:020000040000FA
:06000000020A3C0201C7E8
:03002B0002088741
:030033000206A31F
:0300430002073C75
:030053000200F8B0
:03006B0002068901
:1000830002015C0101FF01010503010F10FEFFCC1A
:1000930012CC12CC12CC1288118211CC123525004D
:1000A3000000009725000000000C0000000C000178
:1000B300FFFF70686F746F726573697374616E6349
:1000C30065000102006605000000D9056400020214
:1000D30000000002050207051E02051E020A0A03AC
:1000E300B80B02803E01028816141F00E0079651E8
:1000F3001800020206C0E074F21203E0A2AFE43378
:10010300FED2AFE5A7FFE5A1F5085F541060061224
:100113001A8E75A1EFE5085F54086008121A9475EA
:10012300A1F7802BEFA2E0C0D0E508A2E092F01285
:100133000963158182F05017906198E0F8900AB72F
:10014300E0C398A2D265D0335002E8F075A1FEEE69
:10015300A2E092AF7F0102043FC0E074F21203E019
:10016300A2AFE433FED2AF9061A4E0F8759B00E543
:100173009158540860087591F7121ADC802AE591AA
:1001830058541060087591EF121AE2801BE8A2E040
:10019300C0D0E591A2E092F0120963158182F0507C
:1001A30007E0C2E0F0121C269061A3E0F8E5E958ED
:1001B3005404600E121BFC75E9FB906193E0A2E608
:1001C30040F2808BC0E074F21203E0A2AFE433FE8E
:1001D300D2AF9061A5E0F8E5BF585404600675BF3F
:1001E300FB121C3E020152C3E498F8E499F912028F
:1001F3002B8026C3E49AFAE49BFBE920E7E9120289
:100203002BE498F8E499F922C3E498F8E499F912F5
:10021300022BE498F8E499F9C3E49AFAE49BFB22ED
:10022300EB20E7CFE920E7E0B90010BB0008E88A3C
:10023300F084F8AAF022E4FBC8FA22EB70227B10C8
:10024300C833C8C933C9335007C39AC3DBF2800626
:100253009A50012ADBEAC833F4C8C933F4C9FA2235
:1002630075F008E4C833C8C933C933C99AC99B5068
:1002730004C92AC93BD5F0ECFBC833F4C8E4C9FA76
:1002830022080808EAC0E0EBC0E086F0E7A4FA1809
:100293000986F0E7A42AFA180986F0E7A42AFA18CF
:1002A3000986F0E7A42AFA1986F0E7A4FBE5F02A09
:1002B300FA190886F0E7A42BFBE5F03AFA19088649
:1002C300F0E7A42BFBE5F03AFA18180986F0E7A447
:1002D300C5F02BFBE43AFA1908E7C5F0C6A426F6E5
:1002E300E5F03BFBE43AFA1886F0E7A4F6E5F008FC
:1002F30026F6E43B08F6E43A08F6D0E0FBD0E0FA51
:1003030022E4CFC0E0E4CEC0E0E4CDC0E0E4CCC062
:10031300E075F020C3E633F608E633F608E633F675
:1003230008E633F6181818EC33FCED33FDEE33FE14
:10033300EF33FFC3EC9709ED9709EE9709EF971990
:100343001919400FFFEC97FC09ED97FD09EE97FE95
:10035300191906D5F0BEECF709EDF709EEF709EF29
:10036300F7191919D0E0FCD0E0FDD0E0FED0E0FF92
:10037300222518C582C0E0E51934FFC583C0E0E536
:1003830018C3958224F810AF0885831985821880D5
:1003930008858319858218D2AFCEF0A3E520F0A398
:1003A3007808E608F0A3DEFAEFF0A3E58124FAF873
:1003B300E608F0A3E608F0A3E608F0A30808E608B9
:1003C300F0A3E608F0A315811581D0E0FED0E0F894
:1003D300158115811581E8C0E0EEC0E022C0D0256B
:1003E30018C582C0E0E51934FFC583C0E0E518C332
:1003F300958224F310AF08858319858218800885B8
:100403008319858218D2AFC8F0A3E9F0A3EAF0A359
:10041300EBF0A37908E709F0A3D8FAECF0A3EDF029
:10042300A3EEF0A3EFF0A3D0E0F0A3D0E0F0A3D0CD
:10043300E0F0A3E520F0A3E5F0F0A322851983857E
:100443001882E0C0E0A3E0F9A3E0FAA3E0FBA378FD
:1004530008E0F608A3DFFAE0FCA3E0FDA3E0FEA3B7
:10046300E0FFA3E0C0E0A3E0C0E0A3E0F5D0A3E099
:10047300F520A3E0A3F5F010AF0885831985821852
:100483008008858319858218D2AFD082D083D0E0CB
:10049300F8D0E032120A9EB900030204D9E49003B3
:1004A30001787E790E8002F0A3D8FCD9FA90107EF1
:1004B300AA82AB83900086787379018015E493A3B5
:1004C300AC82AD838A828B83F0A3AA82AB838C82B6
:1004D3008D83D8E9D9E77582DA7583DA7403120755
:1004E300FF7582D275831E74001207FF0975F01021
:1004F3008E1A8F1B85821F85831E8518828519831B
:10050300E0CEA3E0CF851F82851E83EBC9EAC8ED49
:10051300CBECCAC3E833C8E933C9EA33CAEB33CBFC
:10052300C3EA9EF51DEB9FF51CB35004AB1CAA1D3B
:10053300EC33CCED33CDD5F0DAAE1AAF1B22D0833A
:10054300D082ECC0E0EDC0E0E493A3FCE493A3FD10
:10055300ED4C600D120619EC24FFFCED34FFFD8019
:10056300EFE493A3FCE493A3FDED4C600D1206E7C7
:10057300EC24FFFCED34FFFD80EFD0E0FDD0E0FC88
:10058300E493A3C0E0E493C0E02285198385188235
:10059300E0A3FEE0A3F5207808E0A3F608DFFAE085
:1005A300A3FFE0A3C0E0E0A3C0E0E0A3C0E0E0A3BA
:1005B300C0E0E0A3C0E010AF0885821885831980EE
:1005C30008858218858319D2AFD083D082020805AB
:1005D300D083D082E9C0E0E493A3C386F0C5F0954D
:1005E300F0F908E493A386F0C5F095F0700BE4935B
:1005F300A3C3994005E9048002A3E475F002A4258E
:1006030082F582E5F03583F583D0E0F9E493A3C066
:10061300E0E493C0E022C0E0C3E49396087401933E
:100623009618400FE4936670080874019366187077
:10063300007019A3A3C3E49396087401939618A3B7
:10064300A3400DD0E0D0E0D0E002057DA3A3A3A397
:10065300A3A3D0E0227404800474028000CCC0E021
:10066300EDC0E0E518C39CCCAD1950011D10AF06D9
:100673008C188D1980068C188D19D2AF120781D072
:10068300E0FDD0E0FC22C0E074F21203E0E589A2B1
:10069300E1500312193E758900C2C57F0102043F70
:1006A300C0E074F21203E0E58BA2E0500312193E9E
:1006B300758B00C2E880E474028000CCC0E0EDC01A
:1006C300E0E518C39CCCAD1950011D10AF068C1882
:1006D3008D1980068C188D19D2AF12075FD0E0FDFB
:1006E300D0E0FC22C0E0C0F088F0E4936670080814
:1006F30074019366187000A8F0A3A3700BD0F0D018
:10070300E0D0E0D0E002057DA3A3D0F0D0E022D07A
:1007130083D082CCC0E0E493A360061207C11470B7
:10072300FAE493A360061208D11470FAD0E0FCE453
:1007330093A3C0E0E493C0E022C0E074F21203E0AC
:10074300A2AFE433FED2AFC2C0E5D1A2E45003129C
:100753001A04EEA2E092AF7F0102043FCAC0E0E4B4
:1007630093A3C582CCC582C583CDC583F0A3C582BF
:10077300CCC582C583CDC583DAE5D0E0CA22CAC021
:10078300E0E0A3C582CCC582C583CDC583F0A3C5F4
:1007930082CCC582C583CDC583DAE6D0E0CA227098
:1007A30009080808226016181818C6C333C608C6F5
:1007B30033C608C633C608C633C6D5E0EA22C0E04E
:1007C300E493A3D39C5010E493A3C39C400AD0E0CA
:1007D300D0E0D0E002072FA3A3A3D0E022C008C338
:1007E300E096F50808A3E096420808A3E0964208BD
:1007F30008A3E09645087001D3D00822C09FF59F57
:10080300E473D09F22D083D082C09FE493C0E0746E
:100813000193C0E0740293F59F222518F58210AF6F
:1008230008F518400215198008F51840021519D269
:10083300AF851983227404800A74038006740280CE
:10084300027401C0E0F40412081DD0E0120A7922F8
:10085300C0D0251810AF08F518500205198008F507
:100863001850020519D2AFD0D022BB0102E722C033
:1008730082C08389828A83BB0003E08002E493D031
:1008830083D08222C0E0C0D0E8C0E0E5A8D2AFC2E6
:10089300C7A2E792AFD0E0F8D0D0D0E0326016081C
:1008A3000808C6C313C618C613C618C613C618C687
:1008B30013C6D5E0EA22C3E0C696F608A3E0C696BF
:1008C300F608A3E0C696F608A3E0C696F622C0E0B3
:1008D300E493A36C7009D0E0D0E0D0E002072FA32B
:1008E300A3D0E022251810AF08F51840021519808F
:1008F30008F51840021519D2AF22E76670100809EF
:10090300E766700A0809E76670040809E76622E0EB
:1009130066701008A3E066700A08A3E06670040816
:10092300A3E06622C3E09608A3E09608A3E0960836
:10093300A3E096A2D265D03322C3E096F008A3E0E9
:1009430096F008A3E096F008A3E096F022E026F0E4
:1009530008A3E036F008A3E036F008A3E036F0225F
:10096300C0E0E8C0E0E58124FCF8E6A2E7D0E0F8C7
:10097300D0E022E647F60809E647F60809E647F617
:100983000809E647F622E026F608A3E036F608A3B0
:10099300E036F608A3E036F622E627F60809E6373E
:1009A300F60809E637F60809E637F622E657F608A9
:1009B30009E657F60809E657F60809E657F622E06E
:1009C30056F608A3E056F608A3E056F608A3E05649
:1009D300F622E056F008A3E056F008A3E056F0082C
:1009E300A3E056F022700422600D18C6C333C60874
:1009F300C633C6D5E0F41822E4C396F608E496F6A7
:100A030008E496F608E496F622C6F4C608C6F4C6C9
:100A130008C6F4C608C6F4C622C3E7960809E796D3
:100A23000809E7960809E79622C3E09608A3E0962B
:100A330008A3E09608A3E0962275D000758140755F
:100A4300180175190300020497E0F608A3E0F608FD
:100A5300A3E0F608A3E0F622600C08C6C313C61889
:100A6300C613C6D5E0F422E6F008A3E6F008A3E631
:100A7300F008A3E6F022CAC0E0E6F0A308DAFAD051
:100A8300E0FA22E0FAA3E0FBA3E0FCA3E0FD22EA04
:100A9300F0A3EBF0A3ECF0A3EDF022E5C754F84488
:100AA30001F5C77901222518F582E43519F583226A
:100AB300C2AF75D69F02000022120808D7DF0212C8
:100AC3000808B9E0021208080EE3021208085BE402
:100AD30002120808FEE40212080845E6021208089A
:100AE30063E6021208083828001208084A28001290
:100AF30008089C2800120808FD2800120808872906
:100B0300001208082B2A001208087F2A001208087E
:100B1300982A00120808BE2A00120808F92A0012AF
:100B230008083D2B00120808642B00120808B52B97
:100B330000120808652C001208081D2D0012080871
:100B4300E52D00120808A52E00120808E92E001250
:100B530008080E2F00120808512F001208089E2FB4
:100B630000120808F630001208087C310012080849
:100B73009A3100120808C43100120808DE3100124D
:100B83000808ED3100120808F83100120808B832DD
:100B930000120808113300120808D33300120808A2
:100BA300DB33001208089F34001208080B350012CB
:100BB30008083636001208085B3600120808D136DA
:100BC30000120808633700120808233800120808C7
:100BD300423800120808513900120808633900121C
:100BE3000808D33900120808FD39001208088B3AA7
:100BF30000120808C43A00120808103B0012080843
:100C03002C3C00120808753E00120808803E0012B2
:100C130008088B3E00120808963E00120808A03E02
:100C230000120808AB3E00120808C53E001208086F
:100C3300CF3E00120808D93E00120808E43E001215
:100C430008080C3F00120808673F00120808713FAC
:100C530000120808953F00120808B93F001208085F
:100C63001740001208085B40001208087740001282
:100C73000808EE40001208082641001208087241D5
:100C830000120808CF410012080889420012080820
:100C93006D4400120808C64400120808F645001205
:100CA30008081C4600120808A54700120808214B33
:100CB30000120808F34C00120808BC4E0012080882
:100CC300694F00120808D45000120808735100122B
:100CD3000808B851001208082252001208083152BD
:100CE30000120808B854001208086A5600120808CF
:100CF300D75600120808B65700120808CF5800123A
:100D030008084C5A001208086B5A00120808C05A07
:100D130000120808C55B00120808ED5B0012080802
:100D2300455C00120808245D00120808685D001283
:100D33000808B35D001208081E5E001208085F5F12
:100D430000120808C35F00120808116100120808A6
:100D5300716300120808A263001208085A650012A2
:100D63000808AF6500120808B36600120808506748
:100D730000120808A967001208085C680012080836
:100D8300FE68001208089E6900120808436A0012F0
:100D930008084C86011208088B8601120808D288BD
:100DA300011208081C8901120808378A0112080871
:100DB3009F8A01120808D48A01120808488C01127C
:100DC3000808CB8E01120808F48F011208088A90D4
:100DD30001120808929901120808279A01120808BB
:100DE3000E9D01120808019E011208086F9E011250
:100DF3000808B59F0112080897A0011208087CA2F1
:100E0300011208088DA401120808F7A401120808AA
:100E1300C9A501120808F7A501120808B4A6011212
:100E230008088BA70112080852A801120808F6A89F
:100E3300011208081FA90112080841A90112080894
:100E430097AB011208086FAC01120808B3AC01128A
:100E530008081BAD01120808D3AD0112080805AE3E
:100E63000112080849AE011208087FAE01120808F2
:100E7300CBAE0112080820AF0112080825AF0112FA
:100E8300080878AF011208089DAF01120808ACB03A
:100E93000112080810B10112080880B101120808F4
:100EA3000CB201120808D9B401120808BDB5011229
:100EB300080840B70112080876B90112080824BAD5
:100EC30001120808D4BA0112080815BD0112080856
:100ED300B8BD01120808FFBD01120808ABBF01121B
:100EE3000808BFBF01120808C9BF01120808F1BFF3
:100EF30001120808FDBF011208081CC001120808EE
:100F03003CC2011208088BC301120808CFC30112A7
:100F1300080877C4011208085AC50112080805C653
:100F23000112080851C7011208084FC80112080826
:100F3300F5C80112080885C9011208089CC90112E5
:100F43000808D3C901120808DDC901120808E8C955
:100F53000112080806CA011208084ACA0112080841
:100F6300A7CA01120808CCCA01120808E6CA01126E
:100F7300080872CB011208088FCC01120808FCCCB8
:100F830001120808E3CD011208080ACE011208086D
:100F93007ECE01120808F9CE01120808FDCF011216
:100FA3000808F3D001120808A2D101120808B5D22B
:100FB3000112080851D301120808DED301120808F0
:100FC300BCD401120808F4D4011208084CD501124C
:100FD300080815D60112080836D601120808BDD62E
:100FE30001120808E1D60112080803D70112080804
:100FF3004CD70112080862D90112080849DA011214
:101003000808FADA0112080830DD0112080880DD49
:1010130001120808C0DD0112080802DE01120808E7
:101023005EDE011208088CDE01120808B0DE011230
:10103300080803DF0112080831DF011208086ADF1C
:1010430001120808BFDF0112080825E00112080891
:1010530079E1011208089CE30112080809E401126E
:10106300080832E401120808BDE40112080824E567
:10107300011208086FE50112080893E50112080838
:10108300B7E50112080812E6011208082DE601125D
:101093000808E6E60112080854820412080893823D
:1010A30004120808788002120808BE800212080899
:1010B3009E8102120808A08202120808A38302126A
:1010C30008082F85021208088D85021208084A862F
:1010D30002120808688702120808D9870212080852
:1010E3001588021208086388021208086D88021224
:1010F3000808B188021208080D8902120808A88995
:1011030002120808258A02120808F48A0212080843
:101113008D8B02120808AD8B02120808E38B0212B2
:101123000808148C02120808D58C02120808E58CF2
:1011330002120808398D02120808548D0212080899
:10114300668D021208086F8D02120808C98D0212FB
:101153000808258E02120808718E021208088C8E68
:1011630002120808BD8E02120808DA8E021208085D
:10117300E68E021208085A900212080873900212AF
:101183000808DA9002120808ED9002120808FB9092
:1011930002120808AF91021208089392021208087B
:1011A3009993021208082394021208082D9402123C
:1011B30008089A9402120808B19402120808E394EA
:1011C300021208081C950212080846950212080824
:1011D300A79502120808C79502120808E59502129E
:1011E30008082B96021208085197021208089E97C6
:1011F30002120808CD970212080843980212080841
:101203006B9802120808A49802120808B2980212F6
:1012130008080A99021208085999021208089899AD
:1012230002120808C89902120808F4990212080861
:10123300FF99021208081D9A02120808DF9A021287
:101243000808E99A021208082A9B021208087F9BE1
:1012530002120808939B02120808A19C02120808B4
:10126300B49C02120808C99C021208086B9D021262
:101273000808EE9D02120808AC9E02120808B79EE9
:1012830002120808E39F02120808FF9F02120808CF
:1012930051A00212080890A002120808A5A0021289
:1012A300080807A10212080896A102120808E1A182
:1012B3000212080832A402120808B0A40212080895
:1012C30025A50212080847A7021208085FA7021201
:1012D300080862A7021208086EA70212080882A76C
:1012E300021208088AA702120808BDA702120808FA
:1012F3006DA802120808E3A80212080856A90212F0
:1013030008080AAA02120808BFAA02120808DEAADD
:101313000212080884AB02120808AFAB02120808D5
:10132300B2AB021208081CAC0212080844AD021248
:1013330008081CAE02120808A7AE02120808C0AFC4
:10134300021208087DB002120808B6B0021208089B
:10135300E7B002120808A5B102120808D5B10212BB
:101363000808B0B20212080849B302120808D4B33D
:101373000212080885B40212080808B50212080808
:101383003AB5021208087BB5021208089BF5011250
:10139300080800F6011208083DF6011208088CF649
:1013A30001120808A2F80112080885FA01120808B8
:1013B300EFFD011208082AFE011208084CFE011273
:1013C3000808AFFE01120808E3FE0112080806FF31
:1013D3000112080833FF011208088FFF01120808E1
:1013E300B1F3021208082FF40212080865F402127E
:1013F3000808D1F40212080844F60212080860F63D
:1014030002120808A5F60212080833F702120808A8
:101413008CF70212080886D602120808CBF90212CA
:10142300080828FA0212080894FA02120808F5FAC2
:101433000212080836FB02120808E3FB021208082E
:10144300F5FC0212080820FD021208086BFD0212C7
:101453000808B2FD0212080844FE02120808FFFE43
:101463000212080898E80312080813E9031208088F
:10147300BBDF021208083FE903120808FA990312B6
:101483000808049A03120808509A03120808BE9A1F
:1014930003120808DF9A031208088F9B0312080837
:1014A300239E031208082C9E031208087F9E031232
:1014B3000808A89E031208080F9F03120808A09F9C
:1014C30003120808E29F031208082CA0031208085D
:1014D3008BA003120808B7A00312080848A103123F
:1014E300080887A103120808C6A103120808FBA174
:1014F300031208080DA2031208081FA2031208080A
:101503003EA20312080847A203120808FDA2031211
:1015130008083DA303120808008004120808B7F264
:1015230003120808EDF20312080836F30312080841
:1015330086F4031208088F6A00120808CE6B0012A3
:1015430008080A6C00120808C96D00120808F26D39
:1015530000120808857000120808C97000120808F4
:10156300527200120808EA7200120808527300123D
:101573000808F3730012080835740012080875741C
:101583000012080800760012080870770012080895
:10159300957900120808C37900120808EA79001245
:1015A3000808F379001208087A7A00120808987D6F
:1015B300001208089D8304120808B3830412080864
:1015C300098204120808DAE103120808EDE10312A4
:1015D30008088AE203120808C5E203120808E0E2D9
:1015E3000312080805E3031208084AE30312080874
:1015F3007BE303120808ACE30312080832E5031285
:101603000808EAF90312080820FA031208083CFA4A
:10161300031208087EFA031208088EFA0312080858
:1016230023FB031208082DFB0312080845FB0312D2
:1016330008083FE503120808FEE503120808AEE6B2
:1016430003120808ECE6031208087AE703120808F5
:10165300F0E7031208088AE602120808DFE602121E
:101663000808C8E70212080861E802120808ABE894
:101673000212080808E9021208081CE90212080805
:101683004EE9021208084CEA0212080890EA021214
:101693000808ABEA02120808FAEA0212080810EB7B
:1016A300021208081DEB0212080851EB0212080887
:1016B3006AEB0212080834EC021208088EEC0212DC
:1016C3000808DCEC02120808FEEC0212080875EFA9
:1016D30002120808AAEF021208083AF002120808D8
:1016E300AFF002120808B4F002120808F0F0021278
:1016F300080846F1021208080AF2021208082FF23B
:101703000212080839F2021208083CF20212080811
:10171300C5F202120808E0F202120808F3F20212FC
:1017230008082EF30212080831F3021208083CF3EA
:101733000212080878F302120808A2FF031208082D
:10174300BAFF0312080854B503120808A3B503121D
:10175300080845B70312080803B9031208084BB970
:10176300031208086DBA031208089EBB0312080887
:10177300C0BB031208081CBC031208089EBC03125A
:101783000808008003120808218003120808AB80B0
:1017930003120808308103120808AC8103120808F9
:1017A300158203120808618203120808E0820312FB
:1017B3000808728303120808FE8303120808408492
:1017C30003120808AC88031208082C8A03120808BD
:1017D300028B03120808318B031208081C8D0312B5
:1017E30008089C8F03120808559003120808729189
:1017F30003120808C99403120808D99403120808AD
:101803003A9603120808C69603120808EF970312C4
:101813000808E0980312080862990312080820E7F1
:1018230001120808DAE7011208084CE80112080857
:10183300E8E80112080858E90112080811EC01123E
:101843000808E8EC0112080855ED01120808D2EE69
:10185300011208089CEF011208080CF00112080895
:10186300D5F101120808E8F20112080881F3011208
:10187300080847F401120808B6D3031208080AD46B
:101883000312080862D403120808ADD4031208082F
:101893000FD5031208087BD5031208082ED60312AE
:1018A30008086FD60312080885D603120808E1D684
:1018B300031208081FD703120808197E001208082C
:1018C3004A7E00120808047F001208086A7F00128B
:1018D300080865DB03120808F1DC031208084A83D1
:1018E300041208085B8304120808D1F603120808DF
:1018F300DFF603120808DB8304120808738104125D
:1019030008088381041208089E8104120808FF81D5
:1019130004120808A0FE0312080825FF0312080892
:1019230089FF031208088EFD03120808B0FD031295
:1019330008081AFE0312080825FE0312080869FEA8
:1019430003120808A2AC03120808B0AC031208087B
:10195300F1AC0312080812AD031208088FAD03128D
:1019630008088FAE03120808B1AE031208081DAFB2
:101973000312080838AF0312080853AF031208080C
:101983005DAF0312080867AF031208087AAF0312AA
:10199300080893AF031208082FB003120808EBB02E
:1019A3000312080862B103120808DCB10312080825
:1019B30028B203120808CEB203120808AAB303120E
:1019C300080850D7031208085ED703120808D8D7AF
:1019D30003120808BCD80312080875DA03120808B2
:1019E300DBFF01120808D2BC031208083EBD031234
:1019F3000808FDBD0312080807BF0312080860C0EA
:101A030003120808BBC00312080810C10312080818
:101A130019C1031208082BC10312080895C1031248
:101A23000808A9C103120808B3C10312080884C631
:101A330003120808D9C603120808D5C803120808F8
:101A430007C90312080829C90312080842C9031267
:101A530008085BC90312080865CA0312080800CB0B
:101A63000312080889F803120808ADF803120808DE
:101A7300C6F803120808F9F8031208082AF9031232
:101A8300080858F903120808BAF903120808C9F933
:101A930003120808D3F903120808E0F9031208082F
:101AA30064EB031208088AEB03120808C7EB03125E
:101AB3000808D6EB03120808F5EB031208085DECDF
:101AC3000312080866EC03120808C5EC03120808A1
:101AD300E9EC03120808A8ED03120808B5ED031298
:101AE3000808C6ED03120808E18204120808FE8202
:101AF3000412080877CB03120808D5CC0312080890
:101B0300E2CC03120808F5CC0312080814CD031223
:101B130008082ACD031208083ECD03120808B3CDE6
:101B23000312080818CE03120808C8CE03120808C7
:101B33009DCF03120808ADCF03120808BCCF0312D0
:101B43000808DA8004120808FE80041208082681B7
:101B5300041208084E8104120808F4ED0312080861
:101B63001BEE031208083CEE03120808A1EE031251
:101B730008085AF00312080873F0031208087FF0EC
:101B83000312080893F003120808B1F003120808BF
:101B9300BBF003120808C5F003120808D8F00312BB
:101BA30008082BF10312080864F10312080893F1E3
:101BB30003120808E1F10312080830F203120808BF
:101BC3004BF20312080855F20312080866F20312D7
:101BD3000808ACF20312080876FF0212080866A38D
:101BE3000312080890A303120808ACA30312080801
:101BF300BFA303120808D5A30312080832A40312D3
:101C0300080865A403120808A1A803120808C7A9B5
:101C130003120808FAA90312080846AA03120808BF
:101C230072AB031208089AAB03120808AFAB031296
:101C33000808BFAB0312080803AC0312080864AC1E
:101C43000312080874AC0312080848FB03120808BF
:101C530063FB031208088CFB03120808A6FB03129C
:101C63000808CBFB03120808EAFB0312080802FC6E
:101C73000312080830FC031208084AFC0312080880
:101C83009D82041208085ADE0312080861DE03125B
:101C930008086DDF031208089DDF03120808C3DF7D
:101CA30003120808E6DF0312080808E00312080815
:101CB30042E003120808A8E003120808E1E0031257
:101CC30008082DE1031208085AE1031208087AE113
:101CD30003120808E9F40312080801F503120808BF
:101CE300EFF503120808CEF6031208087BFC031273
:101CF3000808EDFC031208082BFD031208086CFD0D
:101D030003120808F5CF0312080814D003120808B9
:101D130063D0031208087FD003120808B0D003125F
:101D23000808BDD003120808CAD003120808B6D1A8
:101D330003120808F4D10312080804D30312080895
:101D43000FD30312080821D3031208082AD303125E
:101D5300080834D303120808C7C1031208080CC6C5
:101D6300031208081AC6031208081D830412080880
:101D7300C7FF02120808758304120808BD83041202
:101D83000808DAD50212080820D402120808D0D1B4
:101D93000212080857D102120808FED002120808DE
:101DA3008ED00212080865D00212080845CE02122E
:101DB300080811CE02120808DECD02120808C2CDAF
:101DC30002120808DBCC0212080893CC021208089E
:101DD300DECA021208085ECA021208085BCA0212AF
:101DE300080858C90212080826C90212080863C85D
:101DF300021208088EC6021208081FC6021208083B
:101E0300F1C5021208083FDF02120808F6DE0212CB
:101E13000808AEDE02120808FCDD021208086EDDB7
:101E230002120808EEC502120808DBC502120808F0
:101E330086C50212080861DD0212080875C5021280
:101E4300080867C40212080831C402120808DFC375
:101E5300021208085BDA021208081EE903120808D6
:101E630080C3021208084FC30212080817C00212E7
:101E73000808D7BF02120808CBBF021208082BBFFD
:101E8300021208086BBE02120808EDBB0212080812
:101E93007EB9021208083CB90212080810B80212EF
:101EA3000808C5B70212080804B702120808D7B613
:101EB300021208081AB602120808B0B5021208087E
:101EC300EAB502120808BDD702120808B9F80200E1
:101ED300000080FBE473000000000000000000002D
:101EE300000000000000101010101010000030302F
:101EF3000000001428500000000000000000000053
:101F03000000002828FC284850FC50500000000026
:101F1300103854543018145454381000000000443E
:101F2300A8A8B0541A2A2A440000000000205050E8
:101F330060ACA898927C000000606020C0000000A4
:101F4300000000000000000408081010101010101A
:101F53000808040000004020100804081020400076
:101F630000000000001010D63838D6101000000012
:101F7300000000101010FE10101000000000000000
:101F83000000000000000000606020C000000000AE
:101F93000000FC0000000000000000000000000042
:101FA3000000000060600000000204040408081040
:101FB3001020202040000000003048848484848462
:101FC3004830000000000010701010101010107C3A
:101FD300000000000038444404081020447C000042
:101FE300000000384444180404444438000000004E
:101FF300080818284848887C081C00000000007C5A
:10200300404078440444443800000000003C4480CD
:10201300B8C48484847800000000007C444808101D
:102023001010101000000000007884844878848425
:1020330084780000000000788484848C740488F021
:1020430000000000000000303000000030300000CD
:10205300000000000000100000000010102000002D
:1020630004081020402010080400000000000000B5
:1020730000FC0000FC0000000000000040201008ED
:1020830004081020400000000000788484840810B5
:1020930010003030000000000038449AAAAAAAB405
:1020A300423C00000000001010282828384444EE69
:1020B3000000000000F844447844444444F800001D
:1020C3000000003C4484808080804438000000008D
:1020D30000F048444444444448F00000000000FC3D
:1020E30044404878484044FC0000000000FC424063
:1020F3004878484040E000000000003C4484808071
:102103008E8444380000000000EE4444447C444480
:1021130044EE00000000007C101010101010107C22
:1021230000000000007C101010101010101090E040
:10213300000000EE44485070484844EE00000000A0
:1021430000E040404040404044FC0000000000EEFE
:102153006C6C6C54545454D60000000000EE64645C
:102163005454544C4CE400000000003048848484F0
:10217300848448300000000000F844444478404020
:1021830040E00000000000304884848484B4483870
:102193000C00000000F844447850484844E600002E
:1021A3000000003C44402018040444780000000070
:1021B30000FE92101010101010380000000000EE06
:1021C30044444444444444380000000000EE444482
:1021D3002828282810100000000000D65454545416
:1021E3006C2828280000000000EE44282810282826
:1021F30044EE0000000000EE4428281010101038B0
:1022030000000000007C88081020204044FC0000EF
:10221300001C101010101010101010101C00007073
:10222300101010101010101010107000007010100B
:102233001010101010101010700000102800000073
:10224300000000000000000000000000000000008B
:102253000000000000FE00606020C00000000000DD
:102263000000000000000000000038441C24443E2D
:102273000000000000C0404078444444447800001B
:102283000000000000003C444040443800000000CF
:10229300000C04043C444444443E0000000000009D
:1022A300000038447C40443800000000001C242017
:1022B300F8202020207800000000000000003C48A7
:1022C300483040784438000000C0404058644444DB
:1022D30044EE000000000010000070101010107C8D
:1022E300000000000008000038080808080808700B
:1022F300000000C040405C48507048EC0000000003
:102303000070101010101010107C0000000000006E
:102313000000F854545454D600000000000000009C
:10232300D864444444EE0000000000000000384438
:10233300444444380000000000000000F8444444D2
:10234300447840E00000000000003C444444443C26
:10235300040E000000000000EC30202020F80000F4
:102363000000000000003C443008447800000000F6
:10237300000010107C101010100C00000000000072
:102383000000CC444444443E000000000000000030
:10239300EE44282828100000000000000000D65456
:1023A300545428280000000000000000DC483030AE
:1023B30048EC0000000000000000EE442828101044
:1023C30020E00000000000007C481010247C000086
:1023D3001010101010101010101010101010000119
:1023E300363601010001020100010301000104016D
:1023F300060605020000070100340801000F090466
:1024030001010D0100FF0E08000017020000190171
:1024130000FF1A0100011B0100FE1C0100081D0240
:1024230000001F010001200100012102000023011F
:10243300000F2402000026010001270100082802E2
:1024430000FF2A0100072B0102402C0100002D018F
:1024530000012E0100012F0100FF30010B1C310888
:1024630000003A0100083B01000F2F0100000101A9
:102473007101010101011101010131010101010199
:102483008001100161013B001400630173017201BB
:10249300620143010001130106013D0135000401FE
:1024A30012010001000100010001040104013301D4
:1024B30033013C0144013201360000010001650192
:1024C3000001350081010001050182018301000142
:1024D3000302710230016002110270020102020262
:1024E30002028002100261023A0041006302730299
:1024F3007202620243020002130238000002000269
:10250300040212020002000200020002040204029A
:10251300370037003C024402000239000002000287
:102523006502000235028102000205028202830273
:1025330000020300710030016000110070003102DD
:1025430020035004800010006100000014006300A9
:1025530073007200620043000000130006000000D5
:10256300000004001200000000000000000004004E
:102573000400370037003C02440000000000000064
:102583000000650000003500810000000500000028
:10259300830000000103710301030103010301032D
:1025A30001032203020301031003000300030003DA
:1025B3000003000300030003420300032403060394
:1025C300000300030403120325032303250323034A
:1025D3000403040300030003000344030003000394
:1025E300230300036503210035038103000305036F
:1025F30000030003000303047104020460041104D4
:1026030070040204020401040204100461040004BF
:102613001404630473047204620443040004130483
:10262300060400040004040412040004000400046B
:102633000004510464000004000400044404000482
:1026430000040004000465040004350481046400EC
:102653000504000483040004C9EEDBDACAD0B0B277
:10266300C1AAB5C2BFC6BCBCD3C3BBA7B5C7C2BC96
:10267300D5CABAC5C3DCC2EBC8B7B6A8C8A1CFFBDD
:10268300D7A8D2B5D7A8D7A2CEDECFDFCDA8D1B6F3
:10269300B3CFD0C5C1A2D7E3B4B4D0C2D6C2D4B6E7
:1026A300C7BFB4F3D4ADA3BA0036000100060000DF
:1026B300000F000000000000000000000000000305
:1026C300FFFF00000403FFFF0000FFFF0FF4010002
:1026D30005C4040320000100030B000000000000F8
:1026E300000003010F000036181300D6170100364F
:1026F300180200A0170300A6170400AC170500B2C8
:10270300170600BE17FFFF000001DA0D060A0E08C8
:10271300040E0B160E10560D02E00D05F80D07E61C
:102723000D0CBC0D0DCE0DFF000003EAF5E5D5D56C
:10273300C5B5A59595858575756565555545453526
:10274300352525151505E2111212E811EE110C12AB
:102753000012FA1118121E1224123012F411DC1195
:10276300D61100160F00000B150B020002220F32C8
:10277300000006CC12DE12E412AC11EA12A611B26A
:1027830011261344134A132C1338133213E610E0A3
:10279300101C1122111611CE100C0E020B040B0A81
:1027A3000708000F00383C3E363B3B352B432C00DB
:1027B3000119161816161523030000034948424D44
:1027C3001817250502303017181921301B1D1F302B
:1027D300303016181920231A1C1E301A13F012F663
:1027E300120213FC1206122A123E1336123C120274
:1027F3000402010101010902F210F810EC10281182
:10280300000000000000FE10101100BE040A1500B5
:102813000E0004007F00E8030C0028000000000005
:102823000308100C0A03080900040001FF1E1E0C14
:10283300050408100FC082C0838A828B83E0D2E72D
:10284300F01217040239AFC082C0837900122D043D
:10285300125A1BC082C0839003341247A1D083D085
:1028630082C3E09CA3E09D500C1260EFFAA3E01238
:10287300287B6001090239AFFBEA75F00BA4FAA8C3
:10288300F075F00BEBA428FB900336E02AF8A3E0E5
:102893003B8882F583E0540F2274F712037489088E
:1028A300122D04122DAAACF075F00BE9A42CF990AB
:1028B3000336E028FEA3E039FF740165086006745F
:1028C30002650870208A828B83122D96123A7D74DA
:1028D300026508701B122C55122DDD70138E828F2A
:1028E30083E4F0800BEA2403FCEB122D78122D8491
:1028F300EEFAEFFB120AE60239E774F412037412DC
:102903006A1679008E828F83E06076890A890B804C
:1029130065E50A75F00BA4FAA8F075F00BE50B1248
:1029230028887046E50A75F00BA4F8AAF075F00B39
:10293300E50B122DBC8E828F83E085088285098387
:10294300122E9E850882850983A3123A7DEE240305
:10295300FCEF122D811239B6125495AA08AB091255
:102963000AE67901900334124EAAE50A2401F50A16
:10297300E50B3400F50B122C5DE50A9AE50B9B4041
:1029830090023C2774F5120374EAFEEBFF740B12FA
:102993000AA91239BB750A01EC4D602BEC126A329D
:1029A300ED125A1B123A757901120AF2E50845092C
:1029B300606F850882850983A3126A207902AA08B9
:1029C300AB09120AF2805AE5084509602B125A1F17
:1029D3001240E91239B7122DC7700CEEFAEFFB1251
:1029E3000AF8E9F50A80CBEE2403FA122CFF7031C2
:1029F3007903EEFAEFFB80CA8E828F83A3E064FE35
:102A03007003A3E0F4700BEE24030A0A0A122CFFEE
:102A1300700CEEFAEFFB120AF8E9F50A8003750A67
:102A230000A90A7F0302058D74F71203749003341F
:102A33001239F7EA4B602FEA75F00BA4FAA8F07588
:102A4300F00BEBA428FBEAFEEBFF12152A900336EA
:102A53001239F7900336124CEF6012EEFCEFFD795A
:102A63000012148E8007900336E4F0A3F00239E7D6
:102A7300900334124459C3EE98EF9922C082C08365
:102A8300EC4D6005121CFE80097C087D0079001264
:102A9300148E0239AF74F61203747900EA4B60188E
:102AA30078008808125D62EB1260EB6004790178AC
:102AB3000808E8C3940840EA023A8674F7120374DC
:102AC30074F31208E7ECFEEDFF851882851983E4A1
:102AD300F004120AA9EAF0A3EB12521B7403120AC0
:102AE300A9AC82AD83EEFAEFFB120B0AEEFAEFFB11
:102AF300120B100239E274F712037474F31208E72D
:102B0300ECFEEDFF851882851983E4F0EAFCEBFD0A
:102B13007403120AA9122E977401120AA9123A71A8
:102B23008E828F83123A7D74FE68700374FF69602E
:102B3300047901800279000239E274F7120374EA1E
:102B4300FEEBFF122B9B7014122BA68E828F83E059
:102B5300F4F88A828B83E058F0120AE6A908023956
:102B6300E774F7120374EAFEEBFF7508008E828F99
:102B730083E06022122B9B701D122BA68A828B830B
:102B8300E08F838E82F8E058700CE0F88A828B83A2
:102B9300E048F0120AE680C4120AECE9F508740171
:102BA300650822126A2B122DAE122CF0FAA3E0391B
:102BB300FB2274F41203748A088B097C007D0012D3
:102BC3002C55122D84122D15126A1D790085088249
:102BD300850983A3E064FE7003A3E0F460717E00C3
:102BE3007F008062EEFAEF12287B6057EEFAEFFB6C
:102BF300EA75F00BA4FAA8F075F00BEBA428FB9090
:102C03000336E02AF50AA3E03BF50B850882850924
:102C130083A3125169850A82850B83A3E06A70033B
:102C2300A3E06B701EE50A2403FAE50B122D007076
:102C33000AE50A2403FCE50B122D81122D09790103
:102C4300125A311235F4122C5DEE9AEF9B40950225
:102C53003C27EA24030A0A0AEB229003341256089B
:102C6300C32274F31203748A088B098A828B83A3A9
:102C7300126A20122D04126A1D750C00122C5512B3
:102C83002D0070547E007F008049122CE2FAA3E0ED
:102C9300398A82F583E0540F6036122CE2F50AA3D9
:102CA300E039F50BE50A2403FCE50B122D8B340008
:102CB300FB121CF8E964017017850A82850B83A354
:102CC3001256C9A3123A7D122D09750C01125A31FD
:102CD3001235F4122A7340B2A90C7F0502058DEE5A
:102CE300F8EFF9E875F00BA4F8122CF022AAF075AE
:102CF300F00BE9A42AF9900336E02822EF122DD72E
:102D030022126A31EB22122D15125A2CEEF0A3EF88
:102D1300F022E508126A32E5092274F5120374EA17
:102D2300FEEBFF8E828F83A3126A207C007D00EE70
:102D330024030A0A0AEF122D84EEFAEFFB120AECBF
:102D4300E9F50A7401650A7029126A2B122DAAAAE1
:102D5300F075F00BE9122DBC850882F583122D96D0
:102D6300122DC7700DE5082403FCE509122D781216
:102D73002D84022A243400FDEE2403FAEF22122DBF
:102D83008B3400FB120B0A223400FDE5082403FAFE
:102D9300E50922A3122D9B22122D9F22E0F8A3E026
:102DA300F98E828F83A322122DAE223400F5831273
:102DB300445DE875F00BA4F822122CF6F508A3E0A5
:102DC30039F50922E8F0A3E9F0E5082403FAE50957
:102DD300122DD722122DDD6401223400FB120B10B9
:102DE300E92274F312037474E61208E7126A167583
:102DF3000C01750800750900750A00750B0085182C
:102E030082851983E4F0EE2403FCEF3400FD7403A0
:102E1300120AA9122E97E964017023740B120AA9EE
:102E2300123A757401120AA912516D7003A3E06975
:102E33006051851882851983858208858309740DFD
:102E4300120AA9E4122E9E740E120AA9123A7D7474
:102E53000D120AA9AA82AB83120B2EE96401700B2F
:102E6300740D120AA985820A85830B780A12084019
:102E7300AC08AD09EEFAEFFB120AFE740212085316
:102E8300E9F50CEEFAEFFB120B28A90C741A1208E1
:102E930053022CDD12316A120B34221239F212441E
:102EA3005922C082C083780079008003122F9512C3
:102EB3002C5DE89AE99B5029E8FAE9FBEA75F00BE7
:102EC300A4FAACF075F00BEBA42CFB900336E02ACC
:102ED300FCA3E03B8C82F583E0540F70CF79008034
:102EE3000279010239AFC082C0839028111244AF26
:102EF300EC75F012A4FCA8F075F012EDA428FD798E
:102F0300FF7A267B0B12148E0239AF74F712037407
:102F1300E9FEEAFF7A007B00780079008028E8FC6C
:102F2300E9FDEC75F012A4FC85F00875F012EDA430
:102F330025081233AAC39E400AE0FCEFC39C40035A
:102F43001234C9122F9512339E40D30239E7C0823F
:102F5300C083780079008003122F95122F89501FA8
:102F63001233AEF470F2E875F012A4F8AAF075F01B
:102F730012E9A42AF9742628FA740B39FB80047A1F
:102F8300007B000239AF90281112345FC3E89AE93D
:102F93009B22E8240108E93400F92274F012037437
:102FA30074F31208E78A0A8B0B8C0C8D0D8908ECDD
:102FB300450D6016AA0CAB0D120B828A0E8B0FAE59
:102FC3000EAF0FEE4F600302305C120B588A0E8B6C
:102FD3000FA80EA90FE8FEE9FFE849607C902821BD
:102FE3001230BE60227403650860067404650870BD
:102FF300167A047903120B529028211230D5400718
:103003007A007B000230BB90281F1230BE601B7415
:10301300016508600674026508700F7A027901126F
:103023000B5290281F1230D550D6851882851983EC
:103033007401F0120AA9125495AC0CAD0D7403126D
:103043000AA9123163740B120AA91239C3123E5D25
:10305300E412547D1210268004EE4F604A78007407
:10306300FF2508C39404500278048E828F83125480
:10307300958E828F83A3A3A3A3E508F0E88E828FA6
:1030830083A3A3A3A3A312549D1202231234768E07
:10309300828F83A3A3A3A3A3A3A3F012346D120A65
:1030A30086125A15120A921230C34005901082E418
:1030B300F0120F00EEFAEFFB0244631255B74922F8
:1030C3007A047900120B529028111260D1EA98EB1E
:1030D30099221230EE758328758211E493C398F810
:1030E300A3E49399F9C3EA98EB9922E493F8740162
:1030F30093F92274F212037474F31208E78A088BAB
:1031030009ECFEEDFF750A00EEFAEFFB120B828A63
:103113000C8B0DA80CA90DE849603E88828983E0D9
:1031230065087004A3E06509602F88828983A3A3DF
:10313300A3A3E0C3940550211258C38518828519AF
:10314300837401F0120AA91258C7EEFCEFFD740351
:10315300120AA9123163750A01A90A740D024F619B
:1031630012316A120B4022AA82AB83120B0A851812
:1031730082851983AA82AB832274F61203741231F7
:10318300B8600FA3A3A3A3E014C39404500479016C
:1031930080027900023A8674F61203741231B86021
:1031A3000FA3A3A3A3E014C39402500479018002E4
:1031B3007900023A86120B7C8A828B83E5824583EF
:1031C3002274F61203741231B8600BA3A3A3A3E015
:1031D3007004790180027900023A86C082C083EAD2
:1031E300FCEBFD7A007B000239ACC082C0837C001B
:1031F3007D000239AC74F412037474F31208E7EA25
:10320300FEEBFF8C0A8D0BC3EC94F8ED94FF4007A3
:10321300EE4F70030232B1750800750900802E85E8
:1032230018828519837401F012361C120AA912360A
:103233002A60137403120AA9AC82AD83EEFAEFFB82
:10324300121CF8E97049E508240112344A90281148
:10325300E41255BFE50898E509995052E50875F061
:1032630012A4F8AAF075F012E509A42AF912610470
:1032730060D4EE4F70A974FF650A700474FF650B88
:1032830060C412360C650A7004A3E0650B70B7E5E1
:103293000875F012A4F508A8F075F012E509A42842
:1032A300F50974262508FA740B3509FB80047A00A6
:1032B3007B00023C2274F412037474F31208E77562
:1032C3000800120B828A0A8B0BAE0AAF0BEE4F601B
:1032D3002A85188285198374011239ECF8A3E0F961
:1032E300740B120AA9123B00120B227C127D007987
:1032F300FFEEFAEFFB12148E7508011230C350096A
:103303009010827401F0120F00A908023C2274F796
:10331300120374E9FE74FE6A700374FF6B7800791C
:103323000070058052122F9512339E504AE8FCE933
:10333300FDEC75F012A4FCAFF075F012EDA42F12A2
:1033430033AAF460E0E8FCE9FDEC75F012A4FC7527
:10335300F012EDA42FFD74262CF582740B3DF5833A
:10336300E06A7003A3E06B70BC80091233AE14C330
:1033730094044017122F95122F895018EE70EC12F7
:1033830033AE64016005E0640370E91235FDFAA30E
:10339300E0FB80047AFE7BFF0239E7902811124498
:1033A300B3C3E89CE99D221234FE22E8FAE9FBEA62
:1033B30075F012A4FAACF075F012EBA42CFB742A8E
:1033C3002AF582740B3BF583E022120B940239AF8A
:1033D300C082C083790180F274F01203748A0A8B6D
:1033E3000B7A047901120B528A0C8B0DEA450D609E
:1033F3003EEAC333FAEB33FB12152A8A088B09AE74
:1034030008AF09EE4F60237AFE7BFF120B9A74FE1E
:103413006A700374FF6B601B850882850983123908
:10342300F7E508240212344A80E1750C0080047E1B
:10343300007F00850A82850B83E50CF0EEFAEFFB33
:10344300024468E5082407F508E5093400F5092274
:103453009028111244B3C3EA9CEB9D22E493FA74BF
:103463000193FB22121482740322125A26E4F09071
:10347300862022E88E828F83A3A3A3A3A3A3A3A35F
:103483001234987401123498A3F0EE2410125A29BE
:10349300E4F0A3F022123E69A3A3A322C082C08357
:1034A3007A007B008004191234C91234535010126D
:1034B30034E8C3940550F0E970EC1234D280047AF6
:1034C300007B000239AFEA24010AEB3400FB22EA55
:1034D30075F012A4FA75F012EBA428FB74262AFAED
:1034E300740B3BFB22EAFCEBFDEC75F012A4FCA889
:1034F300F075F012EDA4281234FE22FD742A2CF587
:1035030082740B3DF583E02274F712037474F31293
:1035130008E77E007F000235B0E50875F017A4F8D0
:10352300A9F0126365FAA3E0FBEEF8EFF9E875F092
:1035330012A4F8ACF075F012E9A42C12360B6A70E1
:1035430003A3E06B603FE50875F017A4F8AAF0EA5F
:10355300126364F8A3E0F97401120AA9E068700326
:10356300A3E0696020E50875F017A4F8EAF974A2EE
:1035730028FC740C39FD7403120AA9AA82AB8312C6
:103583001CF8E96014E50875F017A4F8A9F074A015
:1035930028FA740C39FB1210320508902825E4939D
:1035A300F8E508C398500302351C1235F49028112E
:1035B3001266AB5039EEF8EFF91235FDF47003A340
:1035C300E0F460E68518828519837401F0EEF8EF64
:1035D300F9E875F012A4F875F012E9A42AF9123685
:1035E3001C120AA912362A60C175080080AD02397F
:1035F300E2EE24010EEF3400FF22E875F012A4F886
:10360300AAF075F012E9A42AF912361022742628BA
:10361300F582740B39F583E022742828F582740B44
:1036230039124457740B22E8F0A3E9123B08120B3A
:103633003AE922C082C08390033D74F2F0A3740D73
:10364300F090033F74ECF0A3740DF0900343740CFB
:10365300F0A3740CF00239AF74F7120374EAFEEBB3
:10366300FF900377E06408601BE0640460168E82B9
:103673008F83E05403640170481239B6123F5EE051
:103683006406703D8E828F83A3A3E064FE7003A360
:10369300E0F4602D8E828F83A3A3123A71900368A6
:1036A300E0687003A3E069700BEE2415F582EF1256
:1036B30060EB6008120EA0E9F5088008120EA680E0
:1036C300F67508C2EEFAEFFB121530022B5F74F4A5
:1036D3001203748A088B098A828B83E0F8A3E0FAC9
:1036E300E82AFAE43400FB12152A8A0A8B0BAE0A85
:1036F300AF0BEE4F6063850882850983E0FC7D0094
:10370300790012148E8E828F83A3A3126A20120E65
:10371300E28E828F83A3A3A3A31239F78508828540
:103723000983E0F8EE28F8EF3400123A798508822D
:10373300850983A3E0C0E0EE240D125A18D0E0F00F
:10374300120EF4EE240E125A18E91250CAE0C0E029
:10375300EE2411125A18D0E0F0EEFAEFFB023C27E8
:1037630074F612037474EB1208E7EAFEEBFF124CD3
:10377300EC60030238077A077B0012152A9003399D
:103783001239F7124CEC60788E828F83120A86907E
:10379300033A123F61120A921268E4C0E01238132E
:1037A300D0E0F0EE2405FAEF3400FB8A088B098A97
:1037B30082F583E0C0E012380ED0E0123C1EE0C078
:1037C300E012380EA3D0E0123A63120A86851882FB
:1037D300851983120A9288828983E0C0E0740512F6
:1037E3000AA9D0E0F0850882850983E0C0E074046B
:1037F300120AA9D0E0F07407120AA9123949800607
:103803007910800279017415023A83123813A322C6
:10381300900339E0FAA3E0F5838A82A3A3A3A3224A
:10382300C082C083124CEC600D9003391255F690A0
:103833000339E4F0A3F0120E10120FD20239AF7461
:10384300F012037474EB1208E7ECFEEDFF890874C1
:1038530025120AA9780C120A4C7429120AA9E0F954
:10386300742A120AA9E0FC742B120AA9E0FD740F52
:10387300697005740F6C60129010D7E064027005D4
:1038830079C1023944E9C39C40F6900378780C125D
:103893000A6AE50890037EF0E990037CF0ECA3F05C
:1038A300ED90037FF074FF6A700374FF6B701D90DB
:1038B30010E2E0F47003A3E0F470051214A0800C8E
:1038C3009010E21239CCE8F0A3E98007900375EA7F
:1038D300F0A3EBF0EE4F6017EEFAEFFB121092E954
:1038E3006401700BEEFCEFFD7A897B03121CFE90E2
:1038F3000368E4F0A3F090036BF0A3F0900388F067
:103903009010D7E06402700890037C740FF0A3F06A
:103913009003777405F014120AA9E4F09003781267
:103923000A86851882851983120A9290037EE0C065
:10393300E07405120AA9D0E0F07407120AA912393B
:10394300497415024465E4123B08121D2822C08203
:10395300C083900338E070031217D0120BDC804C45
:10396300C082C083900338E09010817004E4F0803B
:103973002D7401F0900338E0F460237C41E0C3949C
:10398300415002E0FCECF8E0C398F0EC75F0E8A4D9
:10399300CCA8F075F003A428FD7A801244BB7A8189
:1039A3007B107941121D168003120B88D083D082BD
:1039B300020805EE125A2722E0F508A3E0F50922D2
:1039C3001239C722122D9FA3221244599003752244
:1039D30074F7120374EB90037FF0120DFE800574ED
:1039E3000D1208537F0102058D1239F2A3E0221252
:1039F3003A63A322EAF0A3EBF02274F71203747480
:103A0300F81208E7EAFEEBFF7900900377E0640819
:103A1300704485188285198374FDF0A374FFF01236
:103A23000EDC7402120AA91239F77405120AA9E40A
:103A33001239F2E0C0E07404120AA9D0E0123A5E2F
:103A4300C0E07406120AA9D0E0F07407120AA9E4D0
:103A5300123B04120F1E74080239E4123A63E02287
:103A6300F08E828F8322F085188285198322124477
:103A73005922E0F8A3E0F9125A26E8F0A3E9F0226C
:103A83001208537F0202058DC082C08390034974DC
:103A93009CF0A3740CF09003EF7478F0A3740FF010
:103AA30090034D74D2F0A3740CF090034F749CF008
:103AB300A3740CF090035174D8F0A3740CF0023982
:103AC300AF74F412037474F91208E78A088B098C33
:103AD3000A8D0B8518828519837808120A6A740483
:103AE300120AA9E9F07405120AA9E4F07406120A8D
:103AF300A9E4123B04120BC47407023C24E8F0A3AC
:103B0300E9123B0822123A69AA82AB832274F412A7
:103B130003748A088B098A828B83125A34EE4F709E
:103B230003023C1C900312124CEF60158A828B83B4
:103B3300A3A3E0F9EEFAEFFB900313123F61121E09
:103B4300D78E828F83A3A3A3A3A3A3A3A3A3E0647A
:103B53000270748E828F83A3A3A3A3A3A3E0540252
:103B63007003023BEE850882850983A3A3E064E921
:103B730060798E828F83A3A3A3A3A3A3A3A3A3A3E9
:103B8300E070149010DAE0048E828F83A3A3A3A3C2
:103B9300A3A3A3A3A3A3F08E828F83A3A3A3A3A30F
:103BA300A3A3A3A3A3E014123C1EA3A3A37404F032
:103BB3009010DB12546FE8F0A3E91265488B0BEA0F
:103BC300450B7003125F268E828F83A3A3A3A3A347
:103BD300A3A3A3A3E0640260128E828F83A3A3A393
:103BE300A3A3A3A3A3A3E06406702E8E828F83A353
:103BF300A3A3A3A3A3E0A2E0501F850882850983A2
:103C0300A3A3E0F9EEFAEFFB121DB88E828F83A314
:103C1300A3A3A3A3A3E054FEF08009123E6522747C
:103C23000D1208537F0402058D74EC12037474DDC6
:103C33001208E7EAFEEBFF8C088D097437120AA914
:103C4300780C120A4C750A007405120AA9AC82ADED
:103C530083120AC27412120AA9E070087415120AB8
:103C6300A9E060207405120AA9E0A2E6501E8E8224
:103C73008F83A3A3A3A3A3A3A3A3A3125169120F87
:103C830054E960087903121CE6023E4B7405120ADC
:103C9300A9E0540C64047005750B018003750B00D7
:103CA300E0A2E55035750A01E50BA2E0402C120EA7
:103CB300E28A108B11A810A9111239B6E0687003BB
:103CC300A3E06960157405120AA9126A27125165E7
:103CD300121DC4E96004790480AC7405120AA9E0DA
:103CE300A2E650227406120AA9E054037018740560
:103CF300120AA9E0540C640C600CE0540C640860D4
:103D03000575100180037510007405120AA9E054AB
:103D130003F8740268700C126A27125165120AD4F0
:103D2300023E4B740168703AE510A2E05003123E64
:103D3300537405120AA9A882A9837403120AA9E875
:103D4300F0A3E912444D851882851983123E5DE084
:103D5300C0E07402120AA9D0E0123B04121EA802AA
:103D63003E4BE86003023E4B90035FE0640170103A
:103D73008E828F83A3A3A3A3A3A3E07003023CD9E2
:103D83007422120AA9740212444D741A120AA91257
:103D93003A7DE510A2E050087405120AA9123E53B9
:103DA300E50BA2E0506AEE240FF582EF1260EBC040
:103DB300E07417120AA9D0E0F0900314124CEF70CC
:103DC30003023E4B120EE28A128B13A812A913743C
:103DD3001A120AA9E0687003A3E069706B780C12E9
:103DE3000838780A1208447808120840A910740C9D
:103DF300120AA9AC82AD837421120AA9AA82AB83E9
:103E0300900314123F5E121ED774071208538038B2
:103E1300780C120838780A1208447808120840907F
:103E2300037512065CEE2412F582EF125E197423F9
:103E3300120AA9AC82AD83740E120AA9AA82AB83BB
:103E4300121DAC740912085374231208530265132C
:103E5300126A27125604120AC822E8F0A3E9123E96
:103E63006522123E6922F08E828F83A3A3A3A3A3AC
:103E7300A32274F71203741216BC0239E774F71203
:103E830003741216C20239E774F71203741216CEC2
:103E93000239E7C082C0831216C80239AF74F71221
:103EA30003741216D40239E774F7120374740912F7
:103EB3000AA9E0F50878081208441216E074010212
:103EC30039E4C082C0831216EC0239AFC082C083CA
:103ED3001216F20239AF74F71203741216F802398C
:103EE300E774F7120374EAFEEBFF890874016508AF
:103EF30070147900120D14902830E493FC7900EECD
:103F0300FAEFFB120C8A0239E774F412037474F9A2
:103F13001208E7E9FE8A088B098C0A8D0B741312C9
:103F23000AA9125169900599124CEF6027EE851882
:103F330082851983F07401120AA97808120A6AEAC1
:103F4300F8EBF97405120AA9123B00900599123F88
:103F53005E121ED7023AFBFB90034BE0F8A3E0F599
:103F630083888222C082C0831217280239AF74F774
:103F7300120374901084E0F97E00800B1260D75412
:103F83000D64017001190E12416B5003E970ED02CB
:103F930039E774F7120374901085E0F97E00800B03
:103FA3001260D7548D64817001190E12416B500356
:103FB300E970ED0239E774F2120374890BE975F0C5
:103FC30006A4240CF508E5F012344E8A0CE5082506
:103FD3000CFAE5093400FB12152A8A0C8B0DAE0C82
:103FE300AF0DEE4F6027AC08AD09790012148E12A5
:103FF30039B6E50BF0EE2508F8EF3509F98E828F17
:1040030083A3A3A3A3A3A3A3A3A3123A7DEEFAEFCF
:10401300FB024F6474F6120374EAFEEBFF120C66A4
:10402300901083E0F8E9C398400990034512516961
:10403300120C6CEE2402F8EF1257799003471256D4
:1040430033900347E004F0EEFAEFFB120C7285089D
:1040530082850983E0025C2FC082C08379009003CC
:10406300458001091251698A828B83E582458370F9
:10407300F20239AF74F7120374EAFEEBFFEE4F60FE
:1040830056900345124CEF604E888289837A007BF9
:1040930000EE65827003EF6583600FAA82AB831223
:1040A30040DDE5824583602F80E79003451240E9B8
:1040B300687002EF698E828F837008123A719003E1
:1040C300458003126525123A7DEEFAEFFB121E7846
:1040D300EEFAEFFB1215300239E71240E1221244E7
:1040E3005D8882898322124459EE22C082C0839064
:1040F3000345800488828983124CEF600B88828990
:10410300831247A1EC4D70EC8A828B83E4F0A3F019
:10411300E84960068882898380039003451239F752
:104123000239AF74F712037490034580048A828BBB
:10413300831241664B60257E0080010E12416B5055
:10414300ECEE75F006A4FCADF0EA2CFCEB3DFDECC7
:104153002410F582ED1241BB70E180047A007B00EC
:104163000239E7125608EA221241C4EEC3982274B8
:10417300F71203747D0080010D1241C0EDC3985006
:1041830034ED75F006A4FEA8F0E8FFEA2EFEEB3F3F
:10419300FFEE2410F582EF1241BB70DCED75F006E3
:1041A300A4FEE8FFEA2EFAEB3FFBEA2411F582EBCB
:1041B3001260EB4CF00239E71260F769221241C436
:1041C30022126A31EB3400F583E0F82274F612030D
:1041D30074120D8C7A007B008025EAF8EBF9E87500
:1041E300F006A4F8ACF075F006E9A42C1255DD1224
:1041F30068F2A3E41256D3F0A31268F8126A6F9020
:10420300281B1230CD40D37A007B00801C8A088B98
:1042130009740378081209E8125091A374FEF0A3FD
:10422300041254B3A3E4126A6F90282412426E401E
:10423300DC7A007B00801D8A088B097403780812DE
:1042430009E874C8125D63740F1265AA74FEF0A3C3
:1042530004126A6F90282A12426E40DB90282EE4E3
:1042630093900353F0124278023A86E493F8C3EA38
:1042730098EB9400227CE87D037A107B009003C2C4
:10428300E0F91215E42274F012037474F51208E7CE
:104293008A088B09890A8C0BE9A2E050147508FC83
:1042A3007509FFA2E15005D2E402434BD2E3024376
:1042B3004B124F507003A3E0697005790002441854
:1042C300AC0A7902AA08AB09120D68E960EDE50AA8
:1042D300F50C780C12084479027CFE7DFFAA08AB2A
:1042E30009124CCB120853E96003024416E50AC2D3
:1042F300E5F50A9003B5E07051E50AA2E6404B7478
:1043030003120AA9AC82AD83AA08AB09120B16E902
:1043130070321245EC8A0C8B0DA80CA90DE8FEE94E
:10432300FFE8496025EE24020A0AEF122DDD601A28
:10433300EE2402FCEF3400FD7403120AA9AA82AB37
:1043430083121CFEE50AD2E5F50A900348E0F50C5A
:10435300900368E0F50EA3E0F50F780E1208407D98
:10436300017C00900348E0F9AA0EAB0F120D2074F4
:1043730002120853E9F8900348E004F0E8600302EE
:104383004416E50AA2E55004740E80027406C0E0E8
:104393007401120AA9D0E0125A458A0E8B0FAE0E91
:1043A300AF0FEE4F606912443612444D8882898301
:1043B3007401F07478550AA3126A37E50C126A3750
:1043C300A3E508F0E509124425E4F0E50AA2E55067
:1043D3000F7403120AA9AC82AD83E8240612441CAD
:1043E3008E828F83A3A374FDF0A374FFF0E50B60AB
:1043F30015902831E493F8E50BC3985009EE241384
:10440300125A18E50BF0EEFAEFFB120BB88006799F
:1044130010800279C7740B8049FAE93400FB121C3F
:10442300FE2288828983A3A3A3A3124431221257B5
:10443300ACA322EE2417125A297401F0120EDCEEFB
:10444300241A125A29EAF0A3EB22F0126A2B340041
:1044530012445722F58312445D22E0F8A3E0F922C7
:10446300740D1208537F0802058D74F61203747AD3
:10447300007B10125F3360089003D47401F080292D
:1044830090063AE064019010D87006E0FC79018050
:1044930004E0FC79037A007B00120C8A902819123D
:1044A30044AF7A007B101244BD023A861244B32211
:1044B300E493FC740193FD227B009003C2E0F912A4
:1044C30015DE2274EC1203748A088B098C0C8D0D93
:1044D300890E7414120AA9124EAA7416120AA9E0BC
:1044E300F510A3E0F511120F54E960077AFF7BFF83
:1044F3000245E99010D7E0640260030245DC7900CD
:10450300AA08AB09120D6EA90E120D628A128B1343
:10451300AE12AF13EE4F70030245C48E828F83A396
:10452300A3A3A3A3E064018E828F83A3A370691264
:1045330051698E828F83A3A3A3A3A3A3E05418601E
:104543004390282FE4938E828F83A3A3A3A3F0EA3F
:10455300650C7003EB650D6014EA650A7003EB6587
:104563000B600AEA65107003EB6511701F78101277
:104573000840AC0AAD0BAA0CAB0D1210507402121A
:1045830008538008900367125F1DA3F074FE6A70DE
:104593000374FF6B601D804EA3A3A3E06403602933
:1045A3008E828F83A3A3A3A3A3E0640470057AFE82
:1045B3000244F18E828F83A3A3A3A3A3E0640270BA
:1045C300089003B4E0640270101245EC8B0BEA45CB
:1045D3000B6006AA08AB09800DAA08AB0990034932
:1045E300123F5E121ED7026513900375124CD1124F
:1045F30010142274F7120374EAFEEBFF120B6AE93C
:10460300700AEEFAEFFB120B76E96006EEFAEFFBA7
:1046130080047AFE7BFF0239E774F01203748A0A7E
:104623008B0B8C0E8D0F8909750800120F54E979D5
:10463300006003024793AA0AAB0B120D6EA909127D
:104643000D628A0C8B0DAE0CAF0DEE4F60198E828E
:104653008F83A3A3A3A3A3E0640270559003B4E0E4
:1046630064027003024791AA0AAB0B90034F123FF7
:104673005E121ED7120B7C8A0C8B0DA80CA90DE8B9
:1046830049700302479188828983A3A3A3A3A3E06C
:10469300A2E04003024791750C01A2E15068790141
:1046A300AC0AAD0BAA0EAB0F120CBAE97064024749
:1046B300918E828F83A3A3A3A3A3E06403700575E4
:1046C3000C0280528E828F83A3A3A3A3A3E0640171
:1046D30060030247919003751247A18E828F831264
:1046E3004AF68A0C8B0DA80CA90DE84960D19028D5
:1046F30028E493FA88828983E0C39A50C2A3E060D6
:104703000302479180B988828983A3A3A3A3A3D279
:10471300E1F0EE4F603A8E828F83A3A3A3A3A3A3FA
:10472300E05418602B7508018E828F83A3A31206B1
:104733005C750CFE750DFF780C1208407900AC0A0D
:10474300AD0BAA0EAB0F120D807404120853803EFA
:10475300900368E0650E7004A3E0650F7014902861
:1047630030E493FCA909AA0AAB0B120C8A75080161
:10477300801CA90CAC0AAD0BAA0EAB0F120CBAE944
:10478300700C750801A909AA0AAB0B120D14A9082C
:10479300024468E50C2415F582E50D125A2C1254D7
:1047A300892274EA12037474F01208E78A0C8B0DE1
:1047B3008C088D097426120AA9E0F514A3E0F515F7
:1047C3007512069003F5124CEF60239003751247A0
:1047D300A1AA08AB0912103E8A108B11EA45116099
:1047E3000D8A828B83A3E070057900024ADEE50C13
:1047F300241DF50EE50D3400F50F850E82124CDBFA
:10480300F51388828983A3A3A3E0FA88828983A30B
:10481300A3A3A3E0F9EA2400FEE439FFAA08AB0945
:10482300120D1A850E82850F83124B19E029F50BA1
:10483300E50AA2E5500375120E7487550A701774C2
:1048430018550A6418600FE50C2417F582E50D125C
:1048530060EB651260077901121CE6808C530A78BD
:10486300C3EE94F8EF94FF501D7900EEFAEFFB12BC
:104873004AE8601288828983A3A3A3A3A3A3E05475
:104883001860030247EC78081208407D00124B0CB5
:10489300120853E9F874036870030247ECE86003F5
:1048A3000249577418550A7003024A0CE50AD2E00C
:1048B300F50AA2E45004D2E1F50AA90A12516212E0
:1048C3004AE8605388828983A3A3A3A3A3A3E054E4
:1048D30018604488828983A3A3A3A3A3E06401701F
:1048E30036E510451160309003751247A18882891F
:1048F30083124AF68A0E8B0FA80EA90FE849601798
:1049030088828983A3E0600F851082851183A312B7
:104913005C3A50030247ECE50AF50E780E120844A0
:10492300124AFF120853E9702B7C007D0085148224
:1049330085158374FFF0A3F0850C82850D83A3A3F3
:10494300A3A3A3A3A3A3E06003124796A90B125149
:10495300621216E6851482851583E0F47003A3E0E2
:10496300F460399003B4E0640270030247EC124E22
:104973009BE0FAA3E0123F5A121ED7EA65087003C0
:10498300EB650960030247ECEEFAEF123F5A121E81
:10499300D7851482851583EAF0A3EBF07808120813
:1049A300407D01124B0C120853A90AEEFAEFFB12D9
:1049B3000D6E8A088B09A808A909900368E068703E
:1049C30003A3E0696003024ACFEEFAEFFB120B7C0C
:1049D3008A088B09A808A909E849606E8882898337
:1049E300A3A3A3A3E06401600D88828983A3A3A387
:1049F300A3E064027054851882851983AC82AD8369
:104A0300EEFAEFFB120B168055900361E0600FE5A1
:104A13000AF50E780E120844124AFF120853E50AEB
:104A2300F50E780E12084479027CFE7DFFEEFAEF54
:104A3300FB124CCB120853E96003024957851482D9
:104A430085158374FFF0A302499E120EDCEAFCEB8A
:104A5300FD851882851983AA82AB83121CFE850CFF
:104A630082850D83A3A3A3A3A3A3A3A3E0640170DF
:104A73000F1247967408120AA9AA82AB83121CFE6E
:104A8300124CA51258B14430F50878081208447442
:104A930001120AA9858208858309780812084074DF
:104AA3000B120AA98582088583097808120840E554
:104AB30013F50878081208447900EEFCEFFD125153
:104AC30062120CB474061208530247EC124CA5127E
:104AD3005A1B124B19E50BF0120EF4741012085303
:104AE3007F0E02058D120D628A0E8B0FA80EA90F81
:104AF300E84922A3A312560812103E227901AC08FA
:104B0300AD091255FD124CCB22AC0BA9131255FD66
:104B1300120D207402221258B9A3A3A3A32274F086
:104B230012037474F01208E78A0C8B0DECFAEDFB98
:104B3300750F089003F5124CEF6014125C338A82F0
:104B43008B83E58245836007A3E07003024CA012C8
:104B53004CA53400124CDBF50B88828983124CAED2
:104B6300E0FBEC2400FEE43BFF88828983A3A312CD
:104B73004CAEA3A3E0FBECF508E43BF5098882897E
:104B830083A3A3A3A3A3A3A3E0F50EE50AA2E45082
:104B930003750F10A2E550067408250FF50F748FE7
:104BA300550A700FE50C2417F582E50D1260EB65CD
:104BB3000F60087901121CE6024CA0530A707800BA
:104BC300E50AA2E45022124CA51260EB2408FCA3D0
:104BD300E03400FD7408120AA9AA82AB83121CFEFA
:104BE3007808E50AC2E4F50AE50AA2E55028124C62
:104BF300A51260EB28F8A3E03400F9E82408FCE9E7
:104C03003400FD851882851983AA82AB83121CFEAA
:104C1300E50AC2E5F50AAC0EA90BEEFAEFFB120D9D
:104C230026E9F87403686075900368E06E7003A367
:104C3300E06F605EE87054E50AF50F780F120844E0
:104C4300124CBC120853E97054780A1208447401D8
:104C5300120AA985820C85830D780C120840740B07
:104C6300120AA985820C85830D780C120840E50B86
:104C7300F50A780A120844A90EAC08AD09EEFAEF5A
:104C8300FB120CB474061208538012740468700D7E
:104C930080B7780A120844124CBC120853741002ED
:104CA3004465E50C241DF582E50D22A3A3A3E0FCD6
:104CB30088828983A3A3A3A3227901124EA2125A45
:104CC3002C124CD1124CCB22120CDE740122E0FCCC
:104CD300A3E0FDAA08AB0922F5831240E1A3E0F5A6
:104CE3000A88828983A3A3E022900339125664229F
:104CF30074E812037474F51208E7EAFEEBFF8C08FC
:104D03008D0989147423120AA9E0F50F7424120A79
:104D1300A9E0F512A3E0F5137426120AA9E0F5162B
:104D2300A3E0F5177428120AA9E0F50EA90F120DD6
:104D33002C8A108B117401120AA97408F0E50EA2D3
:104D4300E450037410F0E50EA2E55004E02408F0EB
:104D5300851882851983AA82AB83120F3C8A0C8B38
:104D63000DEA450D7003024E82EA2417F582EB1219
:104D73004E94120EDCE50C241AF582E50D125A1B33
:104D83001239F77403120AA9AC82AD83AA10AB11CE
:104D9300120B16E9601D124E8C7403120AA9A88225
:104DA300A983E50C2418F582E50D125A1BE8F0A33C
:104DB300E98024E50EA2E4501FE5106E7003E511AF
:104DC3006F7015124E8CE50C2418F582E50D125AFE
:104DD3001BE512F0A3E513F0124E9B124EAA850AAF
:104DE30082F5837402F0A3E50E124EB2E50FF0EEE6
:104DF300850A82850B83A3A3A3F0EF850A82850B23
:104E030083A3A3A3A3124EB2A3A3A3E508F0E509CA
:104E1300850A82850B83A3A3A3A3A3A3F0AA10AB44
:104E230011120D1AE92514850A82850B83A3A3A306
:104E3300A3A3A3A3F0750800E50EA2E45011AC12DE
:104E4300AD13E50A2408FAE50B12441E750808E5BC
:104E53000EA2E55014AC16AD17E50A2508F8E50BCC
:104E63003400F9E8240812441C850C82850D83A3C1
:104E7300A3E510F0A3E511F0AA0CAB0D120BB87467
:104E83000B1208537F1002058DE50C2416F582E5FD
:104E93000D125A2C7401F022124EA2125A2C22E542
:104EA3000C126A32E50D22E0F50AA3E0F50B22F0BD
:104EB300850A82850B83A3A32274F21203748A08E2
:104EC3008B09ECFEEDFF890A7900124F507003A3A2
:104ED300E069700479018073750B01900368E065E4
:104EE300087004A3E06509601F750B00780B1208B6
:104EF30044A90AEEFCEFFDAA08AB09120F90740156
:104F0300120853E9F50B80417900EEFAEFFB120D1D
:104F130062EA4B602B8A828B83A3A3A3A3A3A3E0A0
:104F23005418601C7508FE7509FF78081208408A3A
:104F3300828B83A3A312065C12684712085380096D
:104F43007901EEFAEFFB120C3CA90B8014120D6EE3
:104F53008A0C8B0DA80CA90D900368E06822120837
:104F6300537F0602058D74F41203747508107509D6
:104F73000E7A1012654F8B0BEA450B7003124278C1
:104F8300900353E014F0700C90282EE49390035395
:104F9300F0120D7A7E007F00806C8508828509837C
:104FA300A3A3A3A3E06059F46056E5082404F582A3
:104FB300E509125F177049850882850983A3A3A3B6
:104FC300A3A3E0640370197902850882850983121B
:104FD30047A1850882850983A3A3125169120CBADC
:104FE300850882850983A3A3A3A3A3E064016010BA
:104FF30085088285098374FEF0A3041250C3E4F08C
:105003001235F412344690281D1266AB408C7E0094
:105013007F008039120E828E088F0974037808127C
:1050230009E874882508FC740F3509FD7AC67B0CE2
:10503300120E70EA4B70DD8E088F09740378081224
:1050430009E81250911268F2E4F01235F490282422
:10505300E493F8C3EE98EF9400501B8E088F097405
:105063000378081209E8125099E82407F582E91237
:105073005F1770D680A17E007F00800A1250A46063
:105083000214F01235F41266A840F1023C271250C4
:1050930099888289832274882508F8740F3509F961
:1050A30022EEF8EFF9E875F006A4F8AAF075F00619
:1050B300E9A42AF9742828F582740F39F583E022CC
:1050C3001250CAA3A3A322F0850882850983A3A350
:1050D3002274F712037474E11208E7ECFEEDFF7516
:1050E3000800EE4F60728A828B83E0241C125F48B3
:1050F300124CEF60638A828B831251698518828513
:105103001983AC82AD83EA241BF582EB125E19EAA4
:10511300241CF582EB125165120EC4740B120AA9FA
:1051230012516D7003A3E069702E7402120AA9E094
:1051330064017024741D120AA9123F5EE0640170B9
:1051430017741D120AA9123F60A3A3E0F88E828F81
:1051530083E0687003750801A908741F0239E4121B
:105163004EA23400F58312560822122D9BE06822CA
:1051730074F4120374E97024790090034D123F5EB6
:10518300121ED78A0A8B0BAE0AAF0B74FE6E700326
:1051930074FF6F701A90282BE493601379019003C6
:1051A3004D123F5E121ED78A0A8B0BAE0AAF0B124B
:1051B3000F0002375C74F612037474F31208E712DB
:1051C30014A08A088B09AE08AF09900368E06E70DB
:1051D30003A3E06F60E9120EE8EA6E7002EB6F6002
:1051E300DEEEFAEFFB120F54E970D4EE4F60D08578
:1051F3001882851983E4F004120AA9EEF0A3EF12D2
:10520300521BE970BA74FE6E700374FF6F60B0EEE8
:10521300FAEFFB740D023A83123B08120B2E22C0E5
:1052230082C083120F000239AF7F0A02058D74F228
:10523300120374EAFEEBFF8C0A8D0B8908740E12BD
:105243000AA9E0F50974FC6E700374FF6F700579A9
:1052530000024F647900120D6E8A0C8B0DAE0CAFF9
:105263000D900368E06E7003A3E06F7006E509A27A
:10527300E650DCA909126735706179007AFE7BFF7D
:105283001267357056741855097003025368780015
:1052930079008003122F9590281D122F8C40030252
:1052A3005368E8FAE9FBEA75F007A4FAACF075F085
:1052B30007EBA42CFB74162AF582740E3BF583E0EE
:1052C300541870D0E875F007A4F8AAF075F007E950
:1052D300A42AF9741028F8740E39F988828983A3F3
:1052E300A3A3A3A3A3E0541860097418550970037A
:1052F30002525288828983EEF0A3EFF074FE650AAE
:10530300700474FF650B600312548F88828983A332
:10531300A3A3A3A3A3E509F0A2E0500D8882898388
:10532300A3A3A3A3A3A3D2E2F0740165088882898F
:1053330083A3A3A3A3A3703874011254B3E0541836
:10534300602890282FE49388828983A3A3A3A312C0
:10535300547D12103E8B0DEA450D600302525278C4
:1053630000790080397902025254900367E080D7B4
:10537300E06401700302525288828983A3A3A3A32A
:10538300A3A3E05418600790282FE49380049003AC
:1053930066E0124425E508F0025252122F95902838
:1053A30025E493FAC3E89AE9940040030252527A3F
:1053B300007B00804BEAFCEBFDEC75F007A4FCAE30
:1053C300F075F007EDA42EFD74122CF582740E3DDA
:1053D300F583125A34E8FCE9FDEC75F017A4FC855B
:1053E300F00975F017EDA42509FD74A02CF582745E
:1053F3000C3DF583E06E7003A3E06F609E1234C929
:1054030090281D12345640AD1244AFEC6A7002ED81
:105413006B7088E875F017A4F8AAF075F017E9A483
:105423002AF974A028FE740C39FF7C177D007900DB
:10543300EEFAEFFB12148E8E828F83125495900333
:105443007512546FA3A3A3A3A3A3E8F0A3E9125473
:10545300757401F0EE240E125A18740112549D1241
:105463000223EE240D125A18E802539A1239C7A3E5
:10547300A322F0EE240F125A2922F0125486AA0A0C
:10548300AB0B22900375E0FCA3E0FD2288828983A5
:10549300A3A3E50AF0A3E50BF022F01254A2229095
:1054A3002828E4932401F8E43400F97A027B0022EB
:1054B300124431A32274ED1203748A088B09890EF6
:1054C3001255E6400579050255B412172EAA08AB0A
:1054D300091256B890281B1255B7650A7003E9657F
:1054E3000B70077AFE7BFF1256B890281BE4125507
:1054F300BFE50A98E50B9940030255B21255C36004
:1055030012E50A75F006A4F875F006E50B12560EBF
:10551300121530E50E6018E50A75F006A4F8AAF036
:1055230075F006E50B12563A701A79010255B4E587
:105533000A75F006A4F8AAF075F006E50B12561BDF
:10554300E4F0A3F0E50A75F006A4F8AAF075F006F6
:10555300E50B1255DBA31258C788828983A3AA825D
:10556300AB831256298A828B83E0603F1255C36056
:105573003A8E108F11751200781012083CE50EC395
:1055830033FCE433FDE50A75F006A4F50AA8F075CB
:10559300F006E50BA428F50B742C250AF582740F8D
:1055A300350B125167123467120853790080027960
:1055B3000702674B1230EEE8229028111260D222C4
:1055C300E50A75F006A4F8AAF075F006E50B125685
:1055D30016F8A3E0F9E84922A42A12576F888289B2
:1055E30083A322ECFEEDFF902826E493F8E9C39809
:1055F30022F58312560812153022E50C126A32E5A1
:105603000D3400F583E0FAA3E0FB22125616FAA349
:10561300E0FB2212561BE022A42AF9742C28F582FF
:10562300740F39F58322E50EF09010D91256332208
:10563300E088828983F022125793F50CE93400F550
:105643000DE50EC333FAE433FB12152A850C82856C
:105653000D83EAF0A3EBF0850C82850D831256646B
:105663002212445DE8492274F4120374ECFEEDFF48
:10567300740C120AA9123A71880889091256B8AC37
:105683000AAD0BECF8EDF990281B1256C05021E837
:1056930075F006A4F8AAF075F006E91255DBE08E62
:1056A300828F831256D31256C9123A7D7900800233
:1056B3007904023C27120CF08A0A8B0B2212345F06
:1056C300C3EC9AED9B2212445985088285098322F3
:1056D3001257A82274F61203747E007F008028EE0E
:1056E300F8EFF9E875F006A4F8ACF075F006E9A454
:1056F3002CF9742A28F582740F1263566A7003A377
:10570300E06B60571235F41266A840D31266A3709B
:1057130002E96F704674FE6A700374FF6B703C7E1F
:10572300007F0080031235F41266A8502E1250A495
:1057330070F3EEF8EFF9E875F006A4F81257651266
:10574300579A6017125781F8E912577988821255D0
:10575300F4850882850983E4F0A3F0EEFAEFFB02F7
:105763003A8675F006E912576D22A42AF97428289F
:10577300F8740F39F9223400F98808890922EEF800
:10578300EFF9E875F006A4F875F006E912579322CD
:1057930012576DE8240422A3A374FE1257A51256D0
:1057A3006422F0A3041257AC22F088828983A3A356
:1057B300A3A32274F6120374EA241DF582EB125894
:1057C300B1F9604BEA241DF582EB1260EB2402FC75
:1057D300A3E03400FD1255EA40030258A478008088
:1057E300298C828D83E0F508A3E0FFE5082400E41B
:1057F3003FF509E833FEE433FF74702EF582740F2E
:105803003FF5831258C71258A708E8C39940D28AB4
:10581300828B83A3A3A3A3A3A3A3A3A31247A190B0
:105823000368E06C7003A3E06D700F7C707D0F1252
:105833002D04125165120CE48067EA2411F582EB02
:105843001260EB605CFC74FF2CF0750801780812A1
:10585300084475087075090F7808120840E9F508BF
:105863007808120844EA2412F582EB1260EBF5087B
:105873007808120844EA2415F582EB125A1B120623
:105883005CECF9122D0412479E8A828B83A3A3A397
:10589300A3A3A3A3A3A3125169120CFC74071208B8
:1058A30053023A86EC24020C0CED3400FD22125A0A
:1058B3002C1258B9E022E0F8A3E0F5838882A322F2
:1058C30088828983E508F0A3E509F02274EA1203CC
:1058D3007474FD1208E78A148B158C0E8D0F890DD5
:1058E3007419120AA9125A34741B120AA9E0F51189
:1058F300741C120AA9E0F50C741D120AA9124EAA0F
:10590300741F120AA9E0F5106008E50CC3332404E0
:1059130080027402C0E07401120AA9D0E0125A4551
:105923008A088B09EA45097003025A108A828B831D
:10593300A3A3E514F0A3E51512653EE50EF0A3E578
:105943000FF0EA2413F582EB125A1BE50DF0EA245B
:1059530014F582EB125A1BE511F0EA2417F582EBDA
:105963001260EB64017040120EE28A0E8B0FA80ED8
:10597300A90F850882850983A3A3A3A3E068700305
:10598300A3E0696022EE4F6011E508241AF582E571
:1059930009125A1BEEF0A3EF800CE5082417F582D9
:1059A300E509125A1BE4F0125A1F125A348E828FE1
:1059B300837405F0A3E5107004E50C804874012599
:1059C3000C125A3E7A008028850A82850B83E012E6
:1059D3005A3A850A82850B83A3E08E828F83F0E592
:1059E3000A2402F50AE50B3400F50BA30EAF830A74
:1059F300EAC3950C40D2120EE2EA125A3A120EE2B0
:105A0300EB8E828F83F0AA08AB09120BB8740302E2
:105A13004AE0EE240CF582EF125A2C22122D1512B5
:105A23005A2C22EE240BF582EF3400F583229003E7
:105A330034E0FEA3E0FF228E828F83F0A3AE82AF19
:105A43008322123B08120F3C22C082C083E9C33376
:105A5300FCE433FDEA2CFAEB3DFBEA24FEF582EB92
:105A630034FF1251670239AF74F212037489098A41
:105A73000A1255E64004790080407508008002054B
:105A830008E508C39509502AE508C333F8E433F958
:105A9300EE28F582EF39F583C082C083120EE28AC5
:105AA3000C8B0DD083D082E0650C7004A3E0650DF0
:105AB30070CDE50A650870BE7901024F6474F01277
:105AC300037474F31208E78A088B098C0A8D0B8917
:105AD3000C750D00120F54E979006003025BC2AA32
:105AE30008AB09120D6EA90C120D628A0E8B0FAE54
:105AF3000EAF0FEE4F7003025BC08E828F83A3A3A2
:105B0300A3A3A3A3E0A2E24003025BC0120EE2EA56
:105B1300650A7003EB650B7011780D120844E4F508
:105B23000EF50F780E1208408044AA0AAB0B120B35
