:020000040000FA
:06000000020A960201DB7A
:03002B000208D1F7
:030033000206EDD5
:030043000207862B
:0300530002010C9B
:03006B000206D3B7
:100083000201700101FF0503015C105C105C105C50
:1000930010180F120F5C10A7230000000045230067
:1000A3000000000C0000000C000100002A120000F8
:1000B30000000000E4120000000000000000000047
:1000C300FFFF70686F746F726573697374616E6339
:1000D30065000101010020050000007105E80364CB
:1000E300006400B801020200000002050207051EB9
:1000F30002051E0A03B80B0201028816021F00E064
:10010300079651180002020612C0E074F21203F4BB
:10011300A2AFE433FED2AFE5A7FFE5A1F5085F5434
:1001230010600612196275A1EFE5085F54086008B4
:1001330012196875A1F7802BEFA2E0C0D0E508A2E1
:10014300E092F01209D3158182F05017906198E084
:10015300F890084BE0C398A2D265D0335002E8F080
:1001630075A1FEEEA2E092AF7F01020453C0E074DA
:10017300F21203F4A2AFE433FED2AF9061A4E0F82D
:10018300759B00E59158540860087591F71219B0F2
:10019300802AE59158541060087591EF1219B680C2
:1001A3001BE8A2E0C0D0E591A2E092F01209D315BA
:1001B3008182F05007E0C2E0F0121AFA9061A3E0E6
:1001C300F8E5E9585404600E121AD075E9FB906102
:1001D30093E0A2E640F2808BC0E074F21203F4A233
:1001E300AFE433FED2AF9061A5E0F8E5BF58540405
:1001F300600675BFFB121B12020166C3E498F8E4A4
:1002030099F912023F8026C3E49AFAE49BFBE920A2
:10021300E7E912023FE498F8E499F922C3E498F875
:10022300E499F912023FE498F8E499F9C3E49AFADD
:10023300E49BFB22EB20E7CFE920E7E0B90010BB0A
:100243000008E88AF084F8AAF022E4FBC8FA22EB5B
:1002530070227B10C833C8C933C9335007C39AC34C
:10026300DBF280069A50012ADBEAC833F4C8C933AB
:10027300F4C9FA2275F008E4C833C8C933C933C9CD
:100283009AC99B5004C92AC93BD5F0ECFBC833F487
:10029300C8E4C9FA22080808EAC0E0EBC0E086F027
:1002A300E7A4FA180986F0E7A42AFA180986F0E702
:1002B300A42AFA180986F0E7A42AFA1986F0E7A413
:1002C300FBE5F02AFA190886F0E7A42BFBE5F03AE0
:1002D300FA190886F0E7A42BFBE5F03AFA18180997
:1002E30086F0E7A4C5F02BFBE43AFA1908E7C5F05A
:1002F300C6A426F6E5F03BFBE43AFA1886F0E7A439
:10030300F6E5F00826F6E43B08F6E43A08F6D0E012
:10031300FBD0E0FA22E4CFC0E0E4CEC0E0E4CDC0FD
:10032300E0E4CCC0E075F020C3E633F608E633F62C
:1003330008E633F608E633F6181818EC33FCED3309
:10034300FDEE33FEEF33FFC3EC9709ED9709EE970C
:1003530009EF97191919400FFFEC97FC09ED97FD69
:1003630009EE97FE191906D5F0BEECF709EDF7096A
:10037300EEF709EFF7191919D0E0FCD0E0FDD0E052
:10038300FED0E0FF222518C582C0E0E51934FFC581
:1003930083C0E0E518C3958224F810AF088583195C
:1003A3008582188008858319858218D2AFCEF0A381
:1003B300E520F0A37808E608F0A3DEFAEFF0A3E562
:1003C3008124FAF8E608F0A3E608F0A3E608F0A310
:1003D3000808E608F0A3E608F0A315811581D0E02C
:1003E300FED0E0F8158115811581E8C0E0EEC0E08C
:1003F30022C0D02518C582C0E0E51934FFC583C0EB
:10040300E0E518C3958224F310AF0885831985822C
:10041300188008858319858218D2AFC8F0A3E9F044
:10042300A3EAF0A3EBF0A37908E709F0A3D8FAEC69
:10043300F0A3EDF0A3EEF0A3EFF0A3D0E0F0A3D090
:10044300E0F0A3D0E0F0A3E520F0A3E5F0F0A322D1
:10045300851983851882E0C0E0A3E0F9A3E0FAA33D
:10046300E0FBA37808E0F608A3DFFAE0FCA3E0FDD5
:10047300A3E0FEA3E0FFA3E0C0E0A3E0C0E0A3E0AD
:10048300F5D0A3E0F520A3E0A3F5F010AF08858332
:10049300198582188008858319858218D2AFD08286
:1004A300D083D0E0F8D0E032120AF8B90003020496
:1004B300EDE490030178A2790A8002F0A3D8FCD975
:1004C300FA900CA2AA82AB83900086788779018088
:1004D30015E493A3AC82AD838A828B83F0A3AA82B3
:1004E300AB838C828D83D8E9D9E77582BE75838B04
:1004F30074031208497582A675831D740012084996
:100503000875F0108E1A8F1B85821F85831E851830
:1005130082851983E0CEA3E0CF851F82851E83EBFE
:10052300C9EAC8EDCBECCAC3E833C8E933C9EA3337
:10053300CAEB33CBC3EA9EF51DEB9FF51CB3500406
:10054300AB1CAA1DEC33CCED33CDD5F0DAAE1AAF2C
:100553001B22D083D082ECC0E0EDC0E0E493A3FC87
:10056300E493A3FDED4C600D12062DEC24FFFCED8E
:1005730034FFFD80EFE493A3FCE493A3FDED4C6013
:100583000D120731EC24FFFCED34FFFD80EFD0E0CA
:10059300FDD0E0FCE493A3C0E0E493C0E02285191E
:1005A30083851882E0A3FEE0A3F5207808E0A3F694
:1005B30008DFFAE0A3FFE0A3C0E0E0A3C0E0E0A30C
:1005C300C0E0E0A3C0E0E0A3C0E010AF088582185C
:1005D3008583198008858218858319D2AFD083D08B
:1005E3008202084FD083D082E9C0E0E493A3C3869C
:1005F300F0C5F095F0F908E493A386F0C5F095F003
:10060300700BE493A3C3994005E9048002A3E47546
:10061300F002A42582F582E5F03583F583D0E0F975
:10062300E493A3C0E0E493C0E022C0E0C3E4939664
:10063300087401939618400FE493667008087401D8
:1006430093661870007019A3A3C3E493960874010A
:10065300939618A3A3400DD0E0D0E0D0E00205911B
:10066300A3A3A3A3A3A3D0E022D083D082C5F0E4A5
:1006730093A3C5F0C395F0F5F0E493A3C395F040BD
:1006830005E5F0048001E475F002A42582F582E516
:10069300F03583F583E493A3C0E0E493C0E02274D0
:1006A30004800474028000CCC0E0EDC0E0E518C310
:1006B3009CCCAD1950011D10AF068C188D19800606
:1006C3008C188D19D2AF1207CBD0E0FDD0E0FC22FD
:1006D300C0E074F21203F4E589A2E1500312181288
:1006E300758900C2C57F01020453C0E074F212038E
:1006F300F4E58BA2E05003121812758B00C2E88058
:10070300E474028000CCC0E0EDC0E0E518C39CCCEB
:10071300AD1950011D10AF068C188D1980068C1869
:100723008D19D2AF1207A9D0E0FDD0E0FC22C0E0C2
:10073300C0F088F0E493667008087401936618703B
:1007430000A8F0A3A3700BD0F0D0E0D0E0D0E0027B
:100753000591A3A3D0F0D0E022D083D082CCC0E017
:10076300E493A3600612082A1470FAE493A36006C4
:1007730012091B1470FAD0E0FCE493A3C0E0E493E5
:10078300C0E022C0E074F21203F4A2AFE433FED25D
:10079300AFC2C0E5D1A2E450031218D8EEA2E09292
:1007A300AF7F01020453CAC0E0E493A3C582CCC562
:1007B30082C583CDC583F0A3C582CCC582C583CD55
:1007C300C583DAE5D0E0CA22CAC0E0E0A3C582CC83
:1007D300C582C583CDC583F0A3C582CCC582C5833D
:1007E300CDC583DAE6D0E0CA227009080808226082
:1007F30016181818C6C333C608C633C608C633C688
:1008030008C633C6D5E0EA22C008C3E096F5080857
:10081300A3E096420808A3E096420808A3E09645A1
:10082300087001D3D00822C0E0E493A3D39C5010F6
:10083300E493A3C39C400AD0E0D0E0D0E002077960
:10084300A3A3A3D0E022C09FF59FE473D09F22D03F
:1008530083D082C09FE493C0E0740193C0E074022C
:1008630093F59F227404800A740380067402800245
:100873007401C0E0F404120882D0E0120AD32225E6
:1008830018F58210AF08F518400215198008F518FD
:1008930040021519D2AF85198322BB0102E722C09A
:1008A30082C08389828A83BB0003E08002E493D001
:1008B30083D08222C0D0251810AF08F51850020546
:1008C300198008F51850020519D2AFD0D022C0E024
:1008D300C0D0E8C0E0E5A8D2AFC2C7A2E792AFD0CC
:1008E300E0F8D0D0D0E0326016080808C6C313C6BB
:1008F30018C613C618C613C618C613C6D5E0EA220F
:10090300C3E0C696F608A3E0C696F608A3E0C6962B
:10091300F608A3E0C696F622C0E0E493A36C700940
:10092300D0E0D0E0D0E0020779A3A3D0E0222518DD
:1009330010AF08F518400215198008F51840021584
:1009430019D2AF22E76670100809E766700A080932
:10095300E76670040809E76622E066701008A3E002
:1009630066700A08A3E066700408A3E06622C3E089
:100973009608A3E09608A3E09608A3E096A2D265A2
:10098300D03322C3E096F008A3E096F008A3E096E4
:10099300F008A3E096F022E026F008A3E036F00882
:1009A300A3E036F008A3E036F022E627F60809E6CE
:1009B30037F60809E637F60809E637F622E026F6A1
:1009C30008A3E036F608A3E036F608A3E036F622DD
:1009D300C0E0E8C0E0E58124FCF8E6A2E7D0E0F857
:1009E300D0E022E647F60809E647F60809E647F6A7
:1009F3000809E647F622E657F60809E657F6080916
:100A0300E657F60809E657F622E056F608A3E0563D
:100A1300F608A3E056F608A3E056F622E056F008DF
:100A2300A3E056F008A3E056F008A3E056F02270C6
:100A33000422600D18C6C333C608C633C6D5E0F416
:100A43001822E4C396F608E496F608E496F608E45A
:100A530096F622600D08C6A2E713C618C613C6D5BC
:100A6300E0F322C6F4C608C6F4C608C6F4C608C630
:100A7300F4C622C3E7960809E7960809E79608092A
:100A8300E79622C3E09608A3E09608A3E09608A39E
:100A9300E0962275D0007581407518017519030021
:100AA3000204ABE0F608A3E0F608A3E0F608A3E02F
:100AB300F622600C08C6C313C618C613C6D5E0F4E5
:100AC30022E6F008A3E6F008A3E6F008A3E6F02286
:100AD300CAC0E0E6F0A308DAFAD0E0FA22E0FAA30B
:100AE300E0FBA3E0FCA3E0FD22EAF0A3EBF0A3EC20
:100AF300F0A3EDF022E5C754F84401F5C7790122CC
:100B03002518F582E43519F58322C2AF75D69F0205
:100B130000002212085251B10112085248B20112C8
:100B2300085297B401120852EAB5011208528DB661
:100B330001120852D8B701120852F6B7011208522F
:100B4300305E00120852425E00120852945E001298
:100B53000852F55E001208527F5F001208522360AC
:100B63000012085277600012085290600012085277
:100B7300B66000120852F16000120852356100128B
:100B830008525C6100120852AD61001208525D62A6
:100B930000120852156300120852DD630012085256
:100BA300BA64001208524065001208524F650012E1
:100BB30008525A650012085263660012085274669E
:100BC30000120852EA66001208527C6700120852AB
:100BD300D467001208529A6800120852CB680012B8
:100BE30008521069001208521D6900120852B16AB6
:100BF30000120852146C00120852306D0012085291
:100C03009A6F00120852A56F00120852AF6F0012BC
:100C13000852BA6F00120852C46F00120852CE6F06
:100C230000120852D96F00120852E46F00120852E2
:100C33001570001208523970001208525D700012CC
:100C43000852C27000120852067100120852227133
:100C530000120852997100120852D1710012085201
:100C63001D72001208527A72001208525C7400124C
:100C73000852E27400120852B37500120852C37886
:100C830000120852187900120852447900120852CF
:100C9300907A00120852E07A00120852357B001253
:100CA3000852367C00120852CE7C00120852507D46
:100CB30000120852F07D001208527B2600120852DF
:100CC300B426001208528E2800120852CD280012B2
:100CD3000852172900120852BC29001208521B2A75
:100CE300001208524F2A00120852BC2A001208525E
:100CF300D92B00120852E12C00120852772D001252
:100D03000852BE30001208526731001208524332B3
:100D130000120852A43200120852C13300120852C2
:100D2300EB3500120852A23600120852AC360012FC
:100D33000852DF3600120852A63700120852413813
:100D430000120852A63800120852CF380012085277
:100D5300F13800120852203B00120852F73B0012F0
:100D630008523B3C00120852A83C00120852633D53
:100D730000120852953D00120852D93D0012085244
:100D83000C3E00120852613E00120852B63E001299
:100D930008524A3F00120852AC3F00120852144056
:100DA30000120852BD4100120852A5420012085217
:100DB300E74300120852154600120852D5460012A6
:100DC3000852044900120852A74900120852E54983
:100DD30000120852914B00120852A54B0012085200
:100DE300AF4B00120852D94B00120852E54B0012C8
:100DF3000852044C00120852BB4C00120852FA4C21
:100E030000120852044D00120852B84D0012085245
:100E1300B74E00120852B04F001208524D50001244
:100E23000852EF50001208520651001208523D5169
:100E3300001208525B51001208529F5100120852CF
:100E4300C45100120852AA5200120852165300123B
:100E530008529053001208529F5400120852DE5554
:100E630000120852405600120852FA560012085255
:100E73001D5700120852F157001208523C58001235
:100E830008527E5800120852D558001208520C59C5
:100E9300001208523A5900120852735900120852AC
:100EA300985900120852205A00120852435C00124B
:100EB3000852A25C00120852365D00120852A25D6D
:100EC30000120852F65D0012085282BB0312085248
:100ED300C1BB031208523BB90112085295B9011262
:100EE3000852F1B9011208523DBA0112085258BA18
:100EF3000112085289BA01120852A6BA0112085205
:100F0300B2BA0112085226BC011208523FBC0112A8
:100F13000852A6BC01120852B9BC01120852C7BC40
:100F2300011208527BBD011208525FBE0112085222
:100F330065BF01120852EBBF01120852F5BF01123F
:100F4300085262C00112085279C001120852ABC0A4
:100F530001120852E4C0011208520EC101120852D4
:100F63006FC1011208528FC101120852ADC10112A3
:100F73000852F3C10112085219C30112085266C381
:100F83000112085295C3011208520BC401120852F0
:100F930033C4011208526CC4011208527AC40112FC
:100FA3000852D2C40112085221C50112085260C569
:100FB3000112085290C501120852BCC50112085211
:100FC300C7C501120852E5C501120852A7C601128E
:100FD3000852B1C601120852ECC60112085202C7E8
:100FE300011208520BC70112085260C701120852BE
:100FF30074C70112085282C80112085295C801121F
:101003000852AAC8011208524CC901120852CFC98A
:10101300011208528DCA0112085298CA01120852CD
:10102300BECB01120852DACB011208522CCC0112AA
:1010330008526BCC0112085280CC01120852C2CC68
:10104300011208520FCF011208528DCF011208521C
:1010530000D00112085222D2011208523AD20112D0
:1010630008523DD20112085249D2011208525DD2F0
:101073000112085265D20112085298D20112085285
:1010830048D301120852BED30112085231D40112BF
:101093000852E5D4011208529AD501120852B9D563
:1010A3000112085259D60112085265D6011208528C
:1010B30090D60112085293D601120852FDD601129E
:1010C300085225D801120852FDD80112085288D9B6
:1010D30001120852A1DA011208525EDB0112085212
:1010E30097DB01120852C8DB0112085268DC0112B7
:1010F300085298DC0112085273DD011208520CDE0B
:101103000112085297DE0112085248DF01120852F9
:10111300CADF01120852FCDF011208523DE001123E
:10112300085220C80212085285C802120852C2C8C7
:101133000212085211C90212085227CB0212085296
:101143000ACD0212085274D002120852AFD0021212
:101153000852D1D00212085234D10212085268D177
:10116300021208528BD102120852B8D1021208524D
:1011730014D2021208525BBC02120852D9BC0212EA
:1011830008520FBD021208527BBD02120852EEBE76
:10119300021208520ABF021208524FBF021208522B
:1011A300DDBF0212085236C00212085263C1021296
:1011B300085275C202120852D2C2021208523EC32A
:1011C300021208529FC302120852E0C302120852CD
:1011D3008DC4021208529FC502120852CAC50212D8
:1011E300085215C6021208525CC602120852EEC615
:1011F30002120852A9C70212085217B10312085269
:1012030028B10312085279B103120852BEB1031276
:10121300085268B2031208523AB803120852E3ADF7
:10122300031208523BAF03120852C0F401120852D2
:1012330065F50112085285F501120852A5F5011250
:101243000852B9F50112085211F60112085241F67B
:1012530001120852C2F70112085268F8011208522B
:101263004AF9011208529BF901120852DEF90112E0
:10127300085221FA0112085287FA01120852A8FAF9
:101283000112085234FB0112085265FB0112085285
:10129300D9FB0112085287FD0112085261FE0112A7
:1012A3000852A3FE01120852FDFE011208525AAA67
:1012B300031208527BAA03120852B1AB031208525D
:1012C300DBAB031208520F99031208528A990312D7
:1012D3000852959903120852B699031208521EB088
:1012E3000212085221B002120852DBB00212085255
:1012F30006B1021208524DB10212085272B1021223
:10130300085293B102120852C7B10212085200B236
:101313000212085229B30212085260B30212085291
:1013230080B3021208521BB402120852E0B4021234
:10133300085217B5021208528CB6021208522FB780
:101343000212085228B80212085251B80212085267
:10135300A5B8021208526BB90212085299B90212C7
:1013630008522EBB02120852AFBB02120852E2BB54
:101373000212085260D2021208526AD202120852B2
:10138300B6D20212085224D30212085245D30212D3
:1013930008525CD3021208520CD402120852A0D68F
:1013A30002120852A9D6021208520CA801120852BE
:1013B30025D7021208528CD7021208521DD80212E6
:1013C30008525FD802120852A9D80212085208D94B
:1013D3000212085299D902120852D8D9021208529D
:1013E30017DA021208524CDA021208525EDA0212BB
:1013F300085270DA021208528FDA0212085298DA8F
:101403000212085235B1011208528EDB0212085241
:1014130058FB021208522BFC0212085245FC02121E
:10142300085256FC021208526BFE021208528AFE40
:101433000212085228A8031208525EA80312085287
:10144300A7A803120852F7A90312085272E0011267
:101453000852B1E101120852EDE101120852ACE366
:1014630001120852D5E30112085268E6011208522C
:10147300ACE60112085235E801120852CDE8011218
:10148300085235E901120852D6E90112085218EA46
:101493000112085258EA01120852E3EB01120852F2
:1014A30053ED0112085278EF01120852A6EF011210
:1014B3000852CDEF01120852D6EF0112085231F053
:1014C30001120852C4F001120852E2F30112085249
:1014D30063F401120852E3FF0212085237BB0312EE
:1014E30008523E8F03120852518F03120852EE8F97
:1014F300031208522990031208524490031208520F
:10150300699003120852AE9003120852DF9003123F
:101513000852109103120852969203120852A37EA6
:1015230000120852D97E00120852F57E00120852AA
:10153300377F00120852477F00120852DC7F0012E7
:101543000852E67F00120852A392031208526293D4
:1015530003120852129403120852509403120852B1
:10156300DE94031208525495031208528FA00212FC
:101573000852E7A00212085291A10212085239A29E
:101583000212085296A202120852EFA20212085245
:1015930003A302120852CDA40212085248A5021254
:1015A300085272A5021208522FA7021208524AA724
:1015B3000212085299A702120852AFA70212085248
:1015C300BCA702120852F0A70212085206A8021280
:1015D30008528CA8021208529BA802120852F4A8BF
:1015E300021208524EA9021208529CA90212085272
:1015F300A6AA0212085228AD02120852C2AD021264
:10160300085204AE0212085299AE02120852B6AE44
:1016130002120852B9AE02120852BCAE02120852AC
:101623002FAF021208524AAF0212085276AF0212CB
:101633000852B1AF02120852B4AF02120852C7AF38
:1016430002120852EEAF0212085263BA0312085292
:101653006FBA03120852A9BA03120852BE900212BB
:101663000852E99002120852B591021208523A92B6
:1016730002120852A39202120852EF920212085267
:101683006E93021208520094021208528C940212B2
:101693000852CE94021208523A9902120852BA9A88
:1016A30002120852F99A02120852C29B02120852FD
:1016B300769C02120852269E02120852B29E021211
:1016C3000852008002120852BA80021208522C817A
:1016D300021208523B8102120852B58102120852CB
:1016E3002482021208522E830212085257830212D6
:1016F3000852F78302120852458402120852B58435
:1017030002120852E98502120852C58602120852D3
:10171300368702120852B3880212085275890212E0
:101723000852108A021208526B8A02120852D68A91
:1017330002120852DA8B021208529B8D02120852CF
:101743003A8E02120852AC8E02120852698F0212AC
:101753000852DE9B03120852329C031208528A9CE1
:1017630003120852D59C03120852379D03120852E4
:10177300D09D03120852389E03120852449E03124E
:101783000852D2A50312085203A603120852BDA69B
:101793000312085223A70312085294A703120852F4
:1017A300498C03120852D58D0312085211FF0112FE
:1017B300085222FF01120852C2FF011208522BAC39
:1017C3000312085239AC03120852F4BC0312085234
:1017D300CDB903120852DDB903120852F8B9031246
:1017E300085259BA0312085238B703120852BDB748
:1017F3000312085221B80312085226B603120852E4
:1018030048B603120852B2B603120852BDB6031209
:10181300085201B703120852F3E40212085201E519
:101823000212085242E50212085263E502120852FC
:10183300EDE5021208520FE6021208527BE602128D
:10184300085296E602120852B1E602120852BBE6AB
:1018530002120852C5E602120852D8E602120852D2
:10186300F1E6021208528DE70212085249E8021209
:101873000852C0E8021208523AE90212085286E9F5
:10188300021208522CEA0212085208EB0212085202
:10189300B48403120852C284031208523C85031213
:1018A3000852208603120852D98703120852DCFF1C
:1018B30001120852B2EC021208521FED0212085232
:1018C300E0ED0212085250EE0212085259EF0212D2
:1018D3000852D1F00212085235F1021208528AF16D
:1018E3000212085293F102120852A2F10212085294
:1018F300B5F102120852CBF102120852D4F10212CE
:101903000852E7F1021208523CF20212085238F46C
:10191300021208526AF4021208528CF4021208529C
:10192300A5F402120852BEF402120852C8F50212BC
:10193300085263F6021208527FB203120852A3B28E
:1019430003120852BCB203120852EFB20312085238
:1019530020B3031208524EB303120852B0B303125A
:101963000852BFB303120852C9B303120852D6B3C5
:10197300031208527F9E03120852A59E03120852B7
:10198300E29E03120852F19E03120852109F0312A3
:101993000852789F03120852819F03120852E09F56
:1019A3000312085204A003120852C3A003120852E0
:1019B300D0A003120852E1A0031208520FBC031275
:1019C30008522CBC03120852DAF60212085238F8F5
:1019D3000212085245F80212085258F8021208522D
:1019E30077F8021208528DF802120852A1F8021277
:1019F300085216F9021208527BF9021208522BFA06
:101A03000212085200FB0212085210FB0212085283
:101A13001FFB0212085234B90312085258B90312B9
:101A2300085280B903120852A8B9031208520FA131
:101A33000312085236A10312085257A10312085287
:101A4300BCA10312085275A3031208528EA30312FA
:101A530008529AA303120852AEA303120852CCA34E
:101A630003120852D6A303120852E0A3031208522A
:101A7300F3A30312085246A4031208527FA40312CD
:101A83000852AEA403120852FCA4031208524BA539
:101A93000312085266A50312085270A503120852D6
:101AA30081A503120852C7A503120852E6BA03120E
:101AB3000852B7DB02120852E1DB02120852FDDBC7
:101AC3000212085210DC0212085226DC02120852DB
:101AD30083DC02120852B6DC02120852F2E0021250
:101AE300085218E2021208524BE20212085297E21D
:101AF30002120852C3E302120852EBE30212085225
:101B030000E40212085210E40212085254E40212D2
:101B13000852B5E402120852C5E402120852E0B3B7
:101B230003120852FBB30312085224B403120852DF
:101B33003EB40312085263B40312085282B4031270
:101B430008529AB403120852C8B403120852E2B4FA
:101B530003120852CBBB031208523E8803120852E9
:101B630045880312085251890312085281890312CE
:101B73000852A78903120852CA8903120852EC8932
:101B830003120852268A031208528C8A031208523F
:101B9300C58A03120852118B031208523E8B03129B
:101BA30008525E8B031208528AAF031208529CAF8D
:101BB3000312085287B00312085214B103120852D9
:101BC30013B50312085285B503120852C3B50312A5
:101BD300085204B603120852FC95031208521896D1
:101BE300031208526796031208528396031208528F
:101BF300B49603120852C49603120852B097031204
:101C03000852BA9703120852C79703120852D7987B
:101C130003120852EB9803120852F4980312085265
:101C23000080031208524584031208524A840312A7
:101C3300085281BC031208524BBC03120852AEBCBB
:101C430003120852D6BC0312085260A701120852AD
:101C5300B1A5011208526CA301120852F3A201129A
:101C630008529AA2011208522EA20112085205A28A
:101C730001120852F89F01120852C49F0112085220
:101C8300919F01120852759F011208529B9E0112E7
:101C93000852539E01120852889C01120852089C54
:101CA30001120852059C011208520C9B01120852A2
:101CB300DA9A01120852179A011208524298011235
:101CC3000852D39701120852A59701120852C5B0C2
:101CD300011208527CB00112085234B001120852AA
:101CE30072AF01120852E5AE01120852A297011217
:101CF30008528F970112085227970112085216971C
:101D030001120852D8AE01120852F7950112085277
:101D1300C1950112085284950112085225950112AA
:101D23000852E6AB011208524EDB02120852F49439
:101D330001120852AF9101120852A09001120852E9
:101D43002F9001120852F48F01120852BF8F011213
:101D53000852B38F01120852138F011208525A8E80
:101D6300011208522D8C01120852B989011208522E
:101D7300778901120852428801120852F78701122B
:101D830008522987011208528086011208521C86C4
:101D93000112085256860112085238A9011208523C
:101DA300FCD60200000080FBE4730000000000008A
:101DB30000000000000000000000101010101010C0
:101DC3000000303000000014285000000000000024
:101DD300000000000000002828FC284850FC505058
:101DE30000000000103854543018145454381000B4
:101DF30000000044A8A8B0541A2A2A440000000096
:101E03000020505060ACA898927C000000606020D5
:101E1300C0000000000000000000000408081010CB
:101E230010101010080804000000402010080408D7
:101E33001020400000000000001010D63838D610E3
:101E430010000000000000101010FE101010000021
:101E5300000000000000000000000000606020C0DF
:101E6300000000000000FC00000000000000000073
:101E73000000000000000000606000000002040495
:101E8300040808101020202040000000003048847F
:101E93008484848448300000000000107010101007
:101EA3001010107C00000000003844440408102087
:101EB300447C0000000000384444180404444438BF
:101EC30000000000080818284848887C081C000007
:101ED3000000007C40407844044444380000000083
:101EE300003C4480B8C48484847800000000007CF3
:101EF300444808101010101000000000007884847B
:101F03004878848484780000000000788484848C7A
:101F1300740488F00000000000000030300000006E
:101F2300303000000000000000001000000000102E
:101F330010200000040810204020100804000000B6
:101F43000000000000FC0000FC0000000000000096
:101F5300402010080408102040000000000078848E
:101F63008484081010003030000000000038449AC8
:101F7300AAAAAAB4423C0000000000101028282896
:101F8300384444EE0000000000F8444478444444DC
:101F930044F800000000003C448480808080443882
:101FA3000000000000F048444444444448F000006A
:101FB300000000FC44404878484044FC0000000016
:101FC30000FC42404878484040E000000000003CEC
:101FD300448480808E8444380000000000EE444432
:101FE300447C444444EE00000000007C10101010B8
:101FF3001010107C00000000007C10101010101056
:10200300101090E0000000EE44485070484844EE41
:102013000000000000E040404040404044FC00001D
:10202300000000EE6C6C6C54545454D60000000055
:1020330000EE64645454544C4CE40000000000303F
:1020430048848484848448300000000000F84444B9
:102053004478404040E0000000000030488484841D
:1020630084B448380C00000000F8444478504848D1
:1020730044E600000000003C444020180404447877
:102083000000000000FE9210101010101038000025
:10209300000000EE4444444444444438000000003B
:1020A30000EE44442828282810100000000000D621
:1020B300545454546C2828280000000000EE44288F
:1020C3002810282844EE0000000000EE44282810C1
:1020D3001010103800000000007C880810202040F9
:1020E30044FC0000001C10101010101010101010F1
:1020F3001C00007010101010101010101010700041
:10210300007010101010101010101010700000103C
:102113002800000000000000000000000000000094
:10212300000000000000000000FE00606020C0000E
:102133000000000000000000000000000000384420
:102143001C24443E0000000000C040407844444446
:10215300447800000000000000003C444040443844
:1021630000000000000C04043C444444443E0000CE
:1021730000000000000038447C40443800000000A8
:10218300001C2420F82020202078000000000000FC
:1021930000003C48483040784438000000C04040CC
:1021A3005864444444EE0000000000100000701026
:1021B3001010107C00000000000800003808080818
:1021C30008080870000000C040405C48507048ECAC
:1021D300000000000070101010101010107C0000A0
:1021E300000000000000F854545454D600000000CE
:1021F30000000000D864444444EE000000000000E6
:10220300000038444444443800000000000000004B
:10221300F8444444447840E00000000000003C449B
:102223004444443C040E000000000000EC30202035
:1022330020F800000000000000003C44300844780F
:1022430000000000000010107C101010100C0000A3
:10225300000000000000CC444444443E0000000061
:1022630000000000EE4428282810000000000000B1
:102273000000D65454542828000000000000000039
:10228300DC48303048EC0000000000000000EE4461
:102293002828101020E00000000000007C481010E7
:1022A300247C0000101010101010101010101010CB
:1022B3001010000136360101000102010001030183
:1022C30000010401060605020000070100340801AD
:1022D300000F090401010D0100FF0E0800001702A1
:1022E3000000190100FF1A0100011B0100FE1C017F
:1022F30000081D0200001F0100012001000121024E
:1023030000002301000F2402000026010001270121
:102313000008280200FF2A0100072B0102402C01BC
:1023230000002D0100012E0100012F0100FF3001EB
:102333000B1C310800003A0100083B01000F2F017C
:1023430000000103710301030103010301030103FE
:10235300220302030103100300030003000300032D
:1023630000030003000342030003240306030003E6
:102373000003040312032503230325032303040398
:1023830004030003000300034403000300032303C7
:1023930000036503210035038103000305030003E4
:1023A300000300030300710030016000110070009E
:1023B300310220035004800010006100000014006B
:1023C3006300730072006200430000001300060004
:1023D30000000000040012000000000000000000E4
:1023E30004000400370037003C02440000000000F2
:1023F30000000000650000003500810000000500BA
:1024030000008300000001017101010101011101BC
:1024130001013101010101018001100161013B0052
:10242300140063017301720162014301000113018E
:1024330006013D0135000401120100010001000104
:10244300000104010401330133013C014401320161
:102453003600000100016501000135008101000122
:102463000501820183010001030271023001600250
:1024730011027002010202020202800210026102D2
:102483003A004100630273027202620243020002D5
:1024930013023800000200020402120200020002CA
:1024A3000002000204020402370037003C02440227
:1024B30000023900000200026502000235028102B7
:1024C30000020502820283020002C9EEDBDACAD0EF
:1024D300B0B2C1AAB5C2BFC6BCBCD3C3BBA7B5C744
:1024E300C2BCD5CABAC5C3DCC2EBC8B7B6A8C8A1BB
:1024F300CFFBD7A8D2B5D7A8D7A2CEDECFDFCDA842
:10250300D1B6B3CFD0C5C1A2D7E3B4B4D0C2D6C27B
:10251300D4B6C7BFB4F3D4ADA3BA003600010006E6
:102523000000000F00000000000000000000000099
:102533000003FFFF00000403FFFF0000FFFF0FF491
:10254300010005C4040320000100030B0000000088
:102553000000000003010F0100FE160200741603C1
:10256300007A1604008016050086160600921611DE
:1025730000AA161400B0161500A416FFFF000003EE
:10258300EAF5E5D5D5C5B5A59595858575756565D3
:102593005555454535352525151505720FA20F7877
:1025A3000F7E0F9C0F900F8A0FA80FAE0FB40FC0B2
:1025B3000F840F6C0F660F0A3E0D02080D051A0DEE
:1025C300070E0D0CEA0C0DFC0CFF000000160F00AB
:1025D300000B150B020002220F320000065C106E86
:1025E3001074103C0F7A10360F420FBC10DA10E053
:1025F30010C210CE10C81000011916181616152394
:1026030003000C0E020B040B0A0708000F0003491A
:1026130048424D181725050200383C3E363B3B35F2
:102623002B432C303016181920231A1C1E3030303F
:1026330017181921301B1D1F30960FBA0FD410C65F
:102643000FCC0FB0108010861092108C1002040271
:1026530001010101090200000000000000BE040A9C
:10266300E8030E00150004002800050C0A030908FE
:10267300FF1E1E0F0404100C74F7120388E9900365
:10268300B0F0900365E4F0121BA89003B5E4F0A347
:10269300F09003B1F0A3F0120E76121BAE90033448
:1026A300E4F0A3F090267693FA7902121C0E0253FB
:1026B3001174F2120388EAFEEBFF54806069900301
:1026C300B0E0F91213B68A088B09EA4509604F7C1A
:1026D3000080010CEC75F003A4F8A9F074BA28F596
:1026E30082742539F583E493F4602CE493F8850828
:1026F300828B83E06870DCAA08EC75F003A4F8749D
:10270300BB28F582742539F583E493C0E074019303
:10271300F583D082121DABAA08AB09121DA0EEFAF5
:10272300EF6480FB022881EF5420601D120D988A0C
:10273300088B09EA4509600A120CFCAA08AB0912C6
:102743001DA0EEFAEF642080DAEEA2E0501A9003A7
:102753006AE0640F700B7900120CC6E9600312285B
:1027630084EE6401FAEF80BB5420700302284F7596
:102773000C00123D568B09EA450970107C027D005E
:102783007A207B009003B0E0F91215007C007904F5
:102793007A007B00120D748A088B098018850882E1
:1027A300850983A3A3A3A3A3A3A3A3A37401F08570
:1027B3000A08850B09E5084509606D7C007904AAC0
:1027C30008AB09120D748A0A8B0B750C01E50824FA
:1027D30004F8E509123AFA24FFF0A3E034FF125D8E
:1027E300ED70CC850882850983A3A3A3A3A3A3A328
:1027F300A3A3A3E0640170A5850882850983A3A32D
:10280300A3A3A3A3E054047094850882850983A33A
:10281300A3A3A3A3A3A3A3A37406F07AB7850882F3
:102823008509831229B08087120D447C0079017ACF
:10283300007B00120D748B09EA45097009E50C70E1
:10284300057A20124CB0EE6420022767EF54026031
:102853000B120E70EEFAEF6402022726EF540460A7
:1028630019124E47124D6779019003631250CB1230
:102873000C0CEEFAEF64040227267A007B00022A8E
:10288300B7900CFC12314E120CDE22C082C083744E
:10289300EA120931851882851983AA82AB83794BA1
:1028A300121BE47408120B037402F07409120B0375
:1028B300AA82AB837950121BE47413120B03E41244
:1028C300529A121C02741602427474F7120388742B
:1028D300E1120931EAFEEBFFEE4F60338518828582
:1028E3001983AC82AD83120DBC7406120B03E06036
:1028F3001E7417120B03E0FD7401120B03E0FCEED0
:10290300FAEFFB7900120B34E9600479A4800279B1
:102913000002530C74F6120388EAFEEBFF8E828FDB
:1029230083A3A3A3A3A3A3E05440601B125789125C
:102933002A7E60067AFF7BFF801A8E828F83123F86
:1029430000FAA3E0FB8003120DE074FE6A700374C7
:10295300FF6B6041125789124CF4120E34E98E82D8
:102963008F8360061229A9E480051229A97401F056
:102973007CCC7D0C8E828F831250CB121C08E9F520
:10298300087015EE4F60097901EEFAEFFB120D5056
:10299300A908024D257508CDAA088E828F831229B6
:1029A300B0E960DF80EAE0240D1243CF22E0240C7B
:1029B3001243CFE0F9120CD82274F6120388E9FE11
:1029C300EAFF7A0F7B001213A4EA4B60198A828B09
:1029D30083740CF0EEA3A3F0EF8A828B83A3F0122F
:1029E3004D507900802FEEF9120D7A8A088B09A8D1
:1029F30008A909E849601C88828983A3A3A3A3A328
:102A0300A3A3A3A37406125A14E0F9120C90EEF9CF
:102A1300120D567910024D25C082C08390036AE0DF
:102A2300640F7014EA4B6010900365E0640860055E
:102A3300E064047003122A3E02429EEAFCEBFD7A34
:102A4300017B009003B0E0F91214FA22C082C08324
:102A53007900EA241DF582EB123EFD24FD600B1480
:102A6300600824FD600424FD70010902429E8E82E9
:102A73008F83A3A3A3A3A3A3A3A3A3122A82221294
:102A83003F45FB120E34E9228E828F83A3A3A3A3B7
:102A9300A3A3A3A3A3122A826402228E828F83A3F9
:102AA300A3A3A3A3A3A3A3A3124295900356E068F1
:102AB300221208B77F060205A174F412038874FD7D
:102AC3001209318A088B098A828B83A3A3E0F91246
:102AD3000D7A8A0A8B0BAE0AAF0BEE4F7003022BF3
:102AE300C3850882850983A3E064F1603085088289
:102AF300850983A3E064CD6024850882850983A3C7
:102B0300E0641A6018850882850983A3E064E9609C
:102B13000C850882850983A3E064E17008790012BB
:102B23000D50E9706C850882850983A3E0C0E074C9
:102B330002120B03D0E0124279EEF0A3EF1235A498
:102B4300851882851983AA82AB837005120BF480E2
:102B530003120E1C7402120B03E064E970338E82BD
:102B63008F83122BCF750A01780A120873750AE94D
:102B7300780A120873E508240CF582E509123096E9
:102B8300123581FCA3E0FD8A828B8312359B1208E8
:102B9300B78E828F83A3A3A3A3A3A3A3A3A3E0645A
:102BA3000270108E828F83A3A3A3A3A3A3A3A3A3C3
:102BB3007406F0850882850983A3A3E0F9120D56F4
:102BC300120D44900D00122887023153E0F8A3E060
:102BD300F9E8FAE9FB2274F4120388EAFEEBFF75C5
:102BE30008008E828F83A3A3A3A3A3E0604275088A
:102BF300088E828F83A3A3A3A3A3A3A3A31241A895
:102C03008B0BEA450B601075082C8E828F83A3A370
:102C1300A3A3A3E0D2E0F08E828F83A3A3A3A3A3F5
:102C2300E0540364016003022CC2430811022CC266
:102C3300EE24181231606033EE241A123160700FE3
:102C4300122A9E7003A3E06970757508228070EEE6
:102C5300241BF582EF122CC7241AF582EF1235AC30
:102C6300EE24191257BD120C7E8054122A8B700366
:102C7300750801122A9E7003A3E0697006E508D265
:102C8300E1F508E50860158E828F83A3A3E0700643
:102C9300E508D2E58004E508D2E6F508122A716456
:102CA300017006E508D2E0F5088E828F83A3A3E0C6
:102CB300600D122CD564016006E508C2E0F508A991
:102CC30008023158123EEB122CCE22E0FCA3E0FDA9
:102CD300EE22123EE5123F1DF9120E22E922C082B6
:102CE300C08379018A828B83A3A3E0C3940240014A
:102CF300198A828B83A3A3A3A3E0C394024002791E
:102D0300008A828B83A3A3A3A3A3A3A3A3A3E064A7
:102D1300F87003A3E0F460458A828B83A3A3A3A383
:102D2300A3A3A3A3A3E064F97003A3E0F4602E8A32
:102D3300828B83A3A3A3A3A3A3A3A3A3E064FA7097
:102D430003A3E0F460178A828B83A3A3A3A3A3A3A3
:102D5300A3A3A3E064FB7003A3E0F4700279008AE9
:102D6300828B83A3A3A3E0F8900353E06860027906
:102D73000002429E74F012038874DE120931EAFEE7
:102D8300EBFF8E828F83A3A3A3A3E0600E900CFEC0
:102D9300124D1C6006900CFE1228877403120B035D
:102DA300AC82AD838E828F83A3A3A3124D9E125553
:102DB300D7E9600F7403120B03AA82AB83120CF6DC
:102DC300E970087901121BBA02308BEE241B123E04
:102DD300F07410120B03124D677409120B03E060B9
:102DE30021741A120B03E0FD7404120B03E0FC8E32
:102DF300828F831250C97901120B34E9600479027E
:102E030080C37403120B03AA82AB83120CF0E9F59F
:102E13000A7409120B03E0702A90034DE0602474D6
:102E230022550A6422601C7442550A644270CF74AE
:102E330020120B031230A9600A7420120B03123004
:102E4300A270BBE9A2E650417403120B03AA82AB42
:102E530083120CE4E97003022DC67420120B0312D3
:102E63003F006403700F7420120B03A3124D0EA3D3
:102E7300E0640D60147403120B03AA82AB83120E79
:102E830046E96401700302308BEE242C1230931256
:102E930033B77003A3E069701C7508007808120843
:102EA300737808120873EE242E1257BD1230AF1236
:102EB300359B1208B77409120B03E07003022F68E5
:102EC3001230AF1250CB120E9A8A088B09EA4509C9
:102ED30070030230057404120B03E0F88E828F83B3
:102EE300A3A3E028F8A3E03400F9E8240D12309AF4
:102EF3008A828B83A3A3A3E068601CE88A828B8306
:102F0300A3A3A3F09085DB120AE0850882850983D9
:102F1300A3A3A3A3120AEC7904E9120B031255B479
:102F23002AF8A3E034008882F583A3AA82AB831234
:102F330013928A0C8B0D8C0E8D0F85088285098365
:102F4300A3A3A3A3780C12080B400302308B908534
:102F5300E3780C1209C0850882850983A3A3A3A380
:102F6300780C120AC4900365E064046008E0640905
:102F7300600302308BE50AA2E54003023043EE24EE
:102F83002E123160851882851983F0EE242F1231B9
:102F930060C0E07401120B03D0E0F0EE2430123174
:102FA30060C0E07402120B03D0E0F07414120B0340
:102FB300E064017027740E120B03123EF6EE241226
:102FC300123160687003A3E0697011740C120B0373
:102FD300122A9870077414120B03E4F0EE242412DF
:102FE30030931206A27404120B03AC82AD837407F0
:102FF300120B03AA82AB83120BFA74041208B702F2
:10300300308B9003AAE064016003022F68742012DE
:103013000B031230A97009E50AA2E65003022F68D8
:103023007410120B03E0F47003A3E0F4605AEEFC97
:10303300EFFD7403120B03AA82AB83120D028048C7
:10304300A2E650447420120B031250DA701A741A59
:10305300120B03E0640270307403120B03AA82ABF9
:10306300837900120E1080207420120B031230A2F9
:103073007016741A120B03E06404700C7403120BC1
:1030830003AA82AB83120E0A7422025486EE240B27
:10309300F582EF123EEB22F582E9124D80F82212FF
:1030A300579BE0640722123F1D640622EE242A1276
:1030B3003EE8122CCE2412123EE82274F412038846
:1030C300EAFEEBFF8C088D099005CEE0600F122A13
:1030D3009E7003A3E0697005120C6C804F79001297
:1030E30050BE120C9C8A828B83E58245836035A394
:1030F300A3A3A3A3A3E05418602AE508241BF58225
:10310300E5091230961206A612379412309612066B
:10311300A6EE24181257BD123131120CAE740412EC
:1031230008B780087900123131120C7280278E8221
:103133008F83A3A3A3A3A3A3A3A3A3122CCE240B84
:10314300F582EF12314A223400F583123F45FB2208
:1031530074031208B77F040205A1EE2417F582EF6A
:10316300124D802274F712038874F7120931EAFEB4
:10317300EBFF900365E06403600DE064016008E029
:10318300640960030232318E828F83A3E0707E7CF8
:10319300007D007A027B00121BB4EE2402FAEF12C8
:1031A3003B01123EF6900356124D677953121BEA08
:1031B3007900123236E0640960031235C98518823A
:1031C3008519837401124D3D9003657404F07401F5
:1031D300120B03AA82AB83794A121BE47401120B0C
:1031E30003AC82AD837A5B7B03121BD2900356122E
:1031F30055CD7A031235D3900350E0A2E35004D2A5
:10320300F08002C2F0124D2A122884801E8E828F13
:1032130083A3AE82AF83FC7D007A037B10121BB4C1
:103223008E828F83E0F9123236E4F0120D2C74098A
:1032330002530E90036312314E120C0C900365225D
:10324300C082C083900334124D1C701F900365E04D
:1032530014600924FC600A14600C800F90033C8006
:1032630032900338802D90033A8028E84960089013
:10327300033512357B700C8A828B83A3E0F9120C21
:1032830000801B9003351238307005120E64800ED7
:103293009003D2124D1C6006124D0E121DAB02425A
:1032A3009E74F412038874FB1209318A088B097A1D
:1032B3000F7B001213A48A0A8B0BAE0AAF0BEE4FDF
:1032C30070030233AB8E828F831252987950121B94
:1032D300E4850882850983A3E060030233939003A6
:1032E30063E0F47003A3E0F46034900363E064FEEE
:1032F3007003A3E0F460278518828519831233B71E
:103303007003A3E0696017850882850983A374EAC3
:103313001235B17A637B037950121BEA80728518E8
:103323008285198312577C124D677A567B03795332
:10333300121BE4900356124D98124D677A597B0382
:10334300794B121BE47A587B0379E1121BE4900357
:103353006AE0C3940F5021900358E0C0E074021256
:103363000B03D0E0F07404120B037401F004120B8E
:1033730003AA82AB83121BFC750A00780A12087336
:10338300780A120873900D26E0F91235921208B7E5
:103393008508828509831233B0A3F0900365740313
:1033A300F0EEFAEFFB124D507405023155A3E08E97
:1033B300828F8322125780E068221243D62274F54B
:1033C30012038874D81209318A088B098A828B8385
:1033D300A3A3A3123F227415120B03AC82AD838AFD
:1033E300828B83A3A3A3A3A3A3A3A3123581FAA3CD
:1033F300E0FB120D327415120B03E0706B8508822B
:10340300850983A3A3A3A3A3A3A3A3E0C3940B400E
:10341300578E828F83A3A3A3A3A3A3A3A3E06402D2
:103423007046EE240B123160F4703D900365E06446
:1034330002603AE064066035900334124D1C600567
:1034430012357B604F900365E064086005E0640417
:1034530070167417120B03E0F9741C120B03AC8281
:10346300AD831250BE120D387428025C9A90033457
:10347300124D1C701F750800780812087378081223
:103483000873EE24101230931257D5123BE912350C
:103493009B1208B78E828F8312503A123B13123E4F
:1034A300F67402120B03124D67EE240D123160C045
:1034B300E07404120B03D0E01235A4F508A3E0F581
:1034C30009740F7808120AB57405120B03E508F0A6
:1034D3007419120B03E0C0E07406120B03D0E0F082
:1034E300741B120B03E0C0E07407120B03D0E0F06F
:1034F3007416120B03E0C0E07409120B03D0E0F062
:103503007417120B03E0C0E07408120B03D0E0F051
:10351300EE2410123160C0E0740A120B03D0E0F005
:10352300741A120B03E0C0E0740B120B03D0E0F02B
:103533007427120B03E0C0E0740C120B03D0E0F00D
:10354300741C120B03A982AA8389088A09750A00CD
:10355300780812086B7C087D007410120B03AA8292
:10356300AB831248CB1208B7851882851983AA82C8
:10357300AB83120C0602346B123836640122E0F975
:103583008A828B83A3A3A3A3A3A3A3A3A3E02290D1
:1035930003631255D190035912314E120DF2740286
:1035A30022F0EE240B124D7D22124D80FA22F07A86
:1035B300567B0379531235BC22121BEA7A597B03DB
:1035C300794B121BEA2290036312314E120E94229E
:1035D3007B00121BB49003591255D17A047B00125D
:1035E3001BB422F01257E02274F212038874F8120B
:1035F3000931EAFEEBFF8C0A8D0B890C8518828555
:103603001983AC82AD837583857582917408120723
:10361300CBF50DEEFCEFFD851882851983AA82ABED
:1036230083124F9B7003750D019003B1803BEEFC39
:10363300EFFDE508240BFAE5093400124F9A601EEA
:10364300850882850983A3A3E0650C701185088230
:10365300850983E0650A7004A3E0650B6038E5081B
:103663002414F582E509123096123B0BE50845094F
:103673006024E50DA2E040B6850882850983E065F4
:103683000A7004A3E0650B70D5850882850983A3BE
:10369300A3E0650C70C8AA08AB097408022AB4C079
:1036A30082C0839003B102429B74F7120388900394
:1036B300B1123F458012EA2414F582EB12309612C0
:1036C3003F22121446EEFAEFFBEA4B70E99003B186
:1036D300E4F0A3F00253117F070205A174F1120372
:1036E30088EAFEEBFF890A8C088D098E828F83E0BE
:1036F3008C828D831241B2AE82AF83E012498B126A
:1037030048FCC412498B12379DE054038C828D838D
:103713001248FAA2E2E4338C828D831248F9131320
:1037230013541F12498B1248F8A2E7E4338C828D9D
:1037330083A3A3A3A312379D8E0C8F0D750E007860
:103743000C12086B7C087D00E50824071255401213
:1037530008B71255AB8E0C8F0D780C12086B7C03D7
:103763007D00E508240F1255401208B7E50AC394FB
:103773000F40148E828F83A3A3A3E0C0E01237947B
:10378300123096D0E08006123794125A08F00236AF
:10379300DAE5082412F582E50922A3A31241B60E45
:1037A300AF832274F412038874F9120931EAFEEB31
:1037B300FF8908900334124D1C600E1238307009D3
:1037C300EEFAEFFB120E5E805F900363E06E700310
:1037D300A3E06F70537401650860097A777B031265
:1037E3004F9B70447A007B02123D5A8B0BEA450BC8
:1037F3007036900366120AE0851882851983120ACF
:10380300EC90036CE0C0E07404120B03D0E0F0749E
:1038130005120B037401F07406120B031252981273
:103823000BD0E9609B120BD6740702315512383660
:1038330064022212579CA3A3A3A3A3A3E02274F5BB
:103843001203888A088B098A828B83A3AE82AF8393
:10385300E0F9120C248E828F83E064EB600C850800
:1038630082850983A3E064E1700985088285098361
:10387300A3E4F0122884750A01780A1208738508F4
:1038830082850983A3E0F50878081208737900128A
:1038930035921208B7120D44025C9DEAF0A3EBF0D7
:1038A30002429E74F61203889003B4E0701B7C00FE
:1038B30079017A007B00120D74EA4B600C8A828BCB
:1038C30083124D1C6003120CD2024D25C082C083AB
:1038D300123D42401079FF120D6EE9F890267AE40A
:1038E30093C398500479018002790002429E74F0D8
:1038F3001203888A088B09890B750C008A828B83D3
:10390300A3A3A3A3A3A3A3A3E0F9120D7A8A0E8B07
:103913000FAE0EAF0F750A01EE4F60030239CF856C
:103923000882850983A3A3A3A3A3A31255CD850866
:1039330082850983A3A3A3A3A3A3A31246CB1250F7
:10394300CB120D628A0C8B0DAE0CAF0DEE4F7003D4
:10395300023AF28E828F83A3A3A3A3E4F0A3F0E53C
:1039630008240B123AFEE0C0E0123090D0E0F012CF
:103973000E3AEE240CF582EF124CF0E508240EF516
:1039830082E509123EF3EE240EF582EF124D6475C3
:103993000C01EE2406F8EF123AFA547FF0A3E05438
:1039A300FC125832E054046003023A55900D04129D
:1039B30046BC74077808120A328E828F83A3A3A3AE
:1039C300A3A3A3E04508F0A3E04509F08E828F830B
:1039D300A3A3A3A3123B0974077808120AB5E50849
:1039E3005407F508E50B607A8E828F83A3A3A3A304
:1039F300A3A3A3A3A374021248FD240D1243CBE097
:103A0300A2E2500B900351124D98A3A3124D67E508
:103A1300087003023AC7EE2406F8EF3400F9E8FA17
:103A2300E9FB8A828B83E0547FFCA3E054FCFDE531
:103A33000824FFF508E434FFF50974077808120A2F
:103A430032EC4508F8ED4509F98A828B83124D67FC
:103A530080728E828F83A3A3A3A3A3A3E0448002D7
:103A630039CEE5087005750A0080598E828F83A3CD
:103A7300A3A3A3A3A3E05420601212139EEA547FCE
:103A8300245F8E828F83A3A3A3A380238E828F833D
:103A9300A3A3A3A3A3A3E05410600A12139EEA54A2
:103AA3000F240A80DD8E828F83A3A3A3A37401F066
:103AB300A3E4123B137404123D518B09EA450970C8
:103AC30003124CE3E50CA2E050288E828F83A3A35C
:103AD300A3A31252FEF9EEFAEFFB120D68E960128E
:103AE300124D126003123EDBEEFAEFFB1214467521
:103AF3000A00A90A025489124E5B22FAE50934002E
:103B0300FB8A828B8322A3A3E0F508A3E0F50922B5
:103B1300123B172212555CA3A3A3A3A32274F4128E
:103B2300038874F71209317E00120D7AEA4B700391
:103B3300023BE28A828B83A3A3A3A3A3A3A3A3A38E
:103B4300E064066003023BE28A828B83A3A3A3A300
:103B5300A3A3A3E0FF8A828B831243DEE0C0E07459
:103B630008120B03D0E0123F16124FA1124D671239
:103B73000D8CEF540860668518828519831255CD24
:103B83007A007B00120D5C8B0BEA450B704F9003A0
:103B930063124006121C147C007D007A007B0080B7
:103BA300288E828F83123F00F47003A3E0F4602D0C
:103BB300900363123BE91250CB121908E9641A60AF
:103BC3001C7C007D00EEFAEFFB120D5C8A0A8B0B66
:103BD300AE0AAF0BEE4F70C97900121C1A7E01EECC
:103BE300F97409023155123BED22E0FCA3E0FD8E8E
:103BF300828F8322C082C083EA4B70059003B58015
:103C0300068A828B83A3A3123E0660258A828B8356
:103C1300A3A3A3A3A3A3A3E0540860E5EC4D6015FD
:103C23008A828B83123F006C7003A3E06D70D28095
:103C3300047A007B0002429E74F2120388EAFEEBD0
:103C4300FF890A8C088D097A107B00121440EA4B15
:103C5300603F8A828B83A3A3A3A3A3A3A3A3A3E409
:103C6300123F04A3E50A1257A2A3123C9E8A828B39
:103C730083A3A3A3A3E4F0A3123F10A3F012563629
:103C8300EA240CF582EB1241A2123C97A3A3F0A302
:103C9300F0022AB7A3F08A828B8322A3A3E508F05C
:103CA300A3E509F02274F4120388EAFEEBFF890806
:103CB3008C0A8D0BEE4F6055740165087014790101
:103CC300120D6EE9F8902672E493C398500F7911A0
:103CD300806A74046508702F123D4240F18E828F12
:103CE30083A3A3A3A3A3A3A3A3A3E5081241B2A3FE
:103CF300125D278E828F83A3A3E4F0A3F09003B514
:103D0300124D1C6021800D7402650860D079C1805A
:103D13002BE0F8A3124D91A3A3123E068882898358
:103D2300A3A370ED80039003B5EEF0A3EF123D5112
:103D33008B0BEA450B7003124CE37900023158797F
:103D430004120D6EE9F890266DE493C39822F012E5
:103D53003D56227A207B009003B0E0F912150C2225
:103D6300C082C083E9F879009003B5801D8A828BF5
:103D730083A3A3A3A3A3A3A3A3A3E068600574FFE2
:103D8300687001098A828B83A3A3123E0670DE0248
:103D9300429E74F7120388EA4B70059003B58006C0
:103DA3008A828B83A3A3123E0660248A828B83A319
:103DB300A3A3A3A3A3A3A3A3E06970E4EC60148A61
:103DC300828B83E0240D1255BEA2E240D380047A95
:103DD300007B00025311C082C0839003B580068A22
:103DE300828B83A3A3123E0660128A828B83A3A3D2
:103DF300A3A3A3A3A3A3E06970E580047A007B00D7
:103E030002429E12314EEA4B2274F21203888A0A4E
:103E13008B0B8C0C8D0D750800750900EA450B6042
:103E23002E9003B580068E828F83A3A3123E596022
:103E33001EAC0CAD0DEEFAEFFB850A82850B8312E7
:103E43001DABE9640170DFEEF8EFF988088909AA70
:103E530008AB09022AB7E0FEA3E0FFEE4F2274F796
:103E63001203889003B5123EF67C007D00800DE8B6
:103E7300FCE9FD88828983A3A3123EF6E8496030FA
:103E8300EA687002EB6970E79003B51250CBE86AF9
:103E93007002E96B88828983A3A37008123EF690AF
:103EA30003B58009123EF68C828D83A3A3124D675E
:103EB30002531174F7120388EAFEEBFFEE4F60150D
:103EC300120D86123F28124D126003123EDBEEFAEA
:103ED300EFFB121446025311EE240C123EE8123F7C
:103EE3003D22EE241DF582EF3400F58322F582EFA7
:103EF300123EEB12429522F582EF123EEB123F1D6A
:103F030022123F08221257AAA3A3A3A322123F08F7
:103F1300A3A322123C98123F1D22125795E022E0E0
:103F2300FEA3E0FF228E828F83E0241C1243CF1274
:103F33003F3D8E828F83123F3D22123F45FB121479
:103F43004622E0FAA3E022C082C083EAFCEBFDEC48
:103F53004D700479058044EC24FBF582ED34FF12A7
:103F63004D1A7007123FA1E0F46005121DA080E313
:103F73009003B0E0C0E0123FA1D0E0F090266FE4E0
:103F830093F97AB77B031213D4E96401700B7A00B7
:103F93007B20124CE779008002790402429EEC24D4
:103FA300FFF582ED34FFF5832274F4120388A2AF88
:103FB300E433F508C2AF9003B7123E596038EE24DC
:103FC300FBF582EF34FF124D1A7A007B209003B089
:103FD3006005124CEA8005E0F91213E0E4F50AF5F6
:103FE3000B780A12086FEEFCEFFD7AB77B0312130E
:103FF300CE74021208B7E508A2E092AFEEFAEFFB27
:104003000231581255D1851882851983AA82AB8350
:104013002274F212038874FC120931EAFEEBFF7575
:104023000AFE750BFF120D4AE960057911024197EB
:10403300EE24151231606037900D18E0C43354E05C
:10404300F8E0333354FC48C0E0EE2415123093D02B
:10405300E01241B21241A88B09EA45096011750AC1
:10406300FFEE240F1231604404124D75D2E0F08E3E
:10407300828F83122A7C6006EE241212419FEE2463
:10408300131231607010902675E493C0E0EE241390
:10409300123093D0E0F08E828F83E0A2E750045475
:1040A30003801CEE24141231607015900342E0C0AB
:1040B300E0EE2414123093D0E0F0900342E004F0D9
:1040C300EE2411123160640170169005C5E0600D95
:1040D30090034DE0700A8E828F83E0700312419C3F
:1040E3008E828F83E064017013EE240B123EFA6418
:1040F300027009EE240F1231604440F08518828566
:104103001983AC82AD83EEFAEFFB120DB08A088BF4
:104113000974FE650A700374FFF470098E828F833D
:10412300A3A312554CEA450960668E828F83E0C0D3
:10413300E07401120B03D0E0F07402120B03125669
:104143003A7401120B0385820C85830D780C1208D7
:104153006FEE240F1230931206A6EE240E12316076
:10416300F50C780C1208739003561206A674071206
:104173000B03E0F9AC0AAD0B120DAA74071208B7D2
:10418300E9FE74106E700BAA08AB09121446800284
:104193007E10EEF97404022AB4EE2411F582EF12B4
:1041A3003EEBE4F022A312314E79FF121CDA221205
:1041B30041B622F08E828F83A322C082C08374DE35
:1041C3001209318A828B83A3A3A3A3123EF6740E32
:1041D300120B03E8F0A3E912428C740C120B0312C6
:1041E3004285240DF582EB123163C0E0741A120B81
:1041F30003D0E0F0125499EB123EF37420120B0338
:104203001242852415F582EB123163C0E074081263
:104213000B03D0E0F0EA241CF582EB123EF3741298
:10422300120B031242852411F582EB123163C0E0B5
:104233007409120B03D0E012427974FFF074011277
:104243000B0374FFF07402120B0374FFF09085DB11
:104253001206A27404120B03AC82AD837407120B13
:1042630003AA82AB83120BFA74041208B7790074A1
:10427300221208B7802512427D22F0851882851903
:104283008322E8F0A3E9F0EA22123C98A3124294B5
:1042930022A3E0F8A3E0F9221250CBD083D082020C
:1042A300084F74EC12038874EE1209318A128B13CF
:1042B300ECFEEDFF89097426120B0312554C74288A
:1042C300120B03E0F5107429120B031243C0742B75
:1042D300120B03E0F50EA3E0F50F7508107A1E7BB1
:1042E300001214407402120B03124CF47402120BEA
:1042F30003124D1C70030243B9851882851983AAE2
:1043030082AB837950124BCF1250CB7402120B0342
:104313001243DEA3124CF47410120B03125D2974C2
:1043230002120B03E0240B1243CB7402F0120B03B3
:104333001243DE7402F0120B0312578D12563A74B5
:1043430002120B031250E0E509F07402120B03E0B2
:10435300240C1243CBE510F07402120B031243C872
:10436300E512F0A3E513F07408120B03E50CF0A3B8
:10437300E50DF0740A120B03E510F0850E82850F2C
:1043830083C082C083740D120B03AC82AD83D083D0
:10439300D08274031207CBF97402120B03AA82AB07
:1043A30083120D50E96401700575080080087402DA
:1043B300120B03123EE1A9087412025563E0F50CD7
:1043C300A3E0F50D22E0241C1243CF22F8A3E01250
:1043D30043D6223400F988828983221250D3A3A3BF
:1043E300A3A3A32274EE120388EAFEEBFF8C088DCD
:1043F300098E828F83A37408124DB0E060088E8209
:104403008F83A37410F012315D60098E828F83A3B2
:10441300E02408F0EE241512316060088E828F8349
:10442300A3E004F08E828F83A3A3A3A3A3A3E060DE
:10443300198E828F83A3A3A3A3A3A3A3E0C33324CF
:1044430002F88E828F83A3E028F0EE2411123160EC
:104453006005750B0E8003750B008E828F83A3C0DE
:1044630082C083EE240D123160D083D082F8E0281D
:10447300250B8C828D83F0EE2411123160600512BE
:1044830048DB28F0850882850983E0C394754009D9
:104493007508007509000245C9E0FA7B001256E869
:1044A30070030245C9EEFAEFFB120DB6EA850882E6
:1044B300850983124CF5EE2402F8EF1233BD124640
:1044C300C3124605F0EE24040808EF1233BD124B65
:1044D30005A3124605A3A3F0EE24131245EBF0EE59
:1044E30024141245EBA3F0750A08EE24161231606A
:1044F3006010EE24181255CAE50824081257CB752C
:104503000A1012315D6016EE241A1255CA850A0C80
:10451300E508250C1257CB7408250AF50A8E828FFD
:1045230083A3A3A3A3A3A3E06059EE2407F510EF8D
:104533003400F511851082F583E0C0E01245D212F4
:104543003096D0E01245F5E0C0E01245D212309625
:10455300D0E01245F5A31245DE12086B8510828563
:104563001183E0C333FCE433FD850A0CE508250C15
:104573001255401208B7851082851183E0C3332595
:104583000AF50AEE2415123160600BC0E01245D221
:10459300123096D0E0F01230901245DE12086BEE26
:1045A300240D123160FC7D00850B0A8E828F83A35C
:1045B300E0F8E50828F8E5093400F9E8250AFAE9FE
:1045C3001255431208B7AA08AB097F0A0205A18551
:1045D3000A0CE508250CF582E50922E0F50CA3E0B9
:1045E300F50D750E00780C22123EE812460FA3A3B8
:1045F300A322F0050A8E828F83A3A3A3A3A3A3A35D
:10460300A322A3A3125836A312460F22124B09A3C7
:10461300A32274F61203888A828B83E0FC900353EF
:104623001246BC74027808120A32EC4508FCAD0944
:10463300EA24121246B674067808120A32EC4508C8
:10464300FCED4509FDEA2415F582EB1231636004A4
:10465300780180027800E4C8F9ED49FDEA2411F5F8
:1046630082EB123163F508880974097808120A325B
:10467300ED4509FDEA24161246B6740B7808120AB2
:1046830032ED4509FDEA24171246B6740C78081278
:104693000A32ED4509FD8A828B83A3A3A3A3A3A3B7
:1046A3001246BC740A7808120A32ECFAED4509FB8B
:1046B300024D25F582EB123EEBE0F5087509002269
:1046C300E085088285098322A3E0F98508828509AC
:1046D300832274EE1203888A0A8B0BECFEEDFF75BE
:1046E3000F01E9C39408500579000248C88E828FF0
:1046F30083E9F0124B2EE96003750F00124B128E03
:10470300828F83124B5CEE12549AEF124B51C0E02E
:10471300EE2411123093D0E0124B49C0E0EE241284
:10472300123093D0E01241B27408125554A3A3A3DC
:10473300E06015124AFAEE2413F582EF124D648EEF
:10474300828F83A3E02408F08E828F83A3A3A3A385
:10475300A3A3A3A3E060218E828F83A38582088510
:104763008309124B3DEE2415F582EF124D64850843
:1047730082850983E02408F08E828F83A3A3A3A3F9
:10478300A3E0601A8E828F83A38582088583091232
:104793004B218E828F83A3A3A3A3A31248EDEE2400
:1047A3001912419FEE241B12419FA3124DA8E070E2
:1047B3000302485CEE2419F8EF3400F98E828F83EC
:1047C300A3858208858309E0FAE50A2AF582E50BC9
:1047D300123163888289831248EDFAE50A2AF58249
:1047E300E50B123163C0E0EE241A123093D0E012CD
:1047F30048ED88828983E06059F890266EE493C37C
:1048030098500575110C8008EE2419123160F511CA
:104813008E828F83A3E0F8E50A28F50CE50B124896
:10482300D112086BE511C333FCE433FD7AA67B0B8D
:104833001248CB1208B7EE241B12309374A6F0A3D0
:10484300740BF0E511C333F8850882850983E028EA
:104853008006EE2418125A05F08E828F83A3E0F8A7
:104863008E828F83E0C39850030246EBA3E0FA8A5B
:1048730008E50A2508F8E50B3400F9EE241DF58256
:10488300EF124E701248FDC39AC0E0EE24171230A7
:1048930093D0E0124D6D602BEE2417F8EF3400F93E
:1048A300880889098882F583E024F2124E51240E88
:1048B300FAA3E03400FB88828983124CF41248DBAC
:1048C300C398F0A90F0245CD12137A740322340062
:1048D300F50D750E00780C2290034EE0F9120B3A99
:1048E300E9F8850882850983E022F0850882850935
:1048F30083E004F022A3A3A3A3A3F08E828F83E01B
:104903002274F41203888A088B09EA124992F0EAA6
:104913001313543F12498BA3A3A3F0EAC413131236
:104923004992A3A3F0EB12498412499C7409780AB3
:10493300120AB512498212499B740A780A120AB5FF
:10494300E50A5401C0E0EC2418F582ED123096D04C
:10495300E01249A1740B780A120AB5124982A31214
:10496300499B740C780A120AB5124982A3A3A3A324
:10497300A3A3A3A3F0740D7808120AB5022CC2E511
:104983000A54018C828D8322540F8C828D8322548E
:10499300038C828D83A3A322A3A3A3A3A3A3F08A3F
:1049A3000A8B0B22C082C08379008A828B83A3A3E4
:1049B300A3A3A3A3E090034D600FE070228A828B30
:1049C30083A3A3E07019098016E060138A828B83A6
:1049D3001250C2900356E06A7003A3E06B70E702C3
:1049E300429E74F01203888A0A8B0B890C8C088D03
:1049F30009124B2E124B12850882850983124B5CD8
:104A0300E50812549AE509124B51C0E0E508241158
:104A1300F582E509123096D0E0124B49C0E0123717
:104A230094123096D0E0124E787408124E916011B1
:104A3300124AFAE5082413124E6C124E78E0240849
:104A4300F0850882850983A3A3A3A3A3A3A3A3E05B
:104A53006017850882850983A3124B39E50824155D
:104A6300124E6C1248FD2408F0850882850983A341
:104A7300A3A3A3A3E06019850882850983A3AE825B
:104A8300AF83124B218508828509831248F804F00D
:104A9300AA08AB09120DC8E9F50D70568508828581
:104AA3000983A3A3A3A3A3A3124B057014E0FA8A5B
:104AB3000EE50A250EF8E50B124D59E50CC39A8055
:104AC30021124B39E8240EF8E9124D5990034EE0B8
:104AD300F9120B3A8E828F83E0F8E50CC39824F227
:104AE300C399C0E0E5082417F582E509123096D092
:104AF300E0F0A90D025489E50A2408F8E50B340017
:104B0300F922124B0922E0850882850983A32285B5
:104B13000A82850B83A3A3124B72E0F9EA22E0F821
:104B2300E50A28F582E50B124D80228A828B8312D7
:104B3300548E120DC222AE82AF83E0F8E50A28F844
:104B4300E50B3400F922124B85A3A3A3E022123E06
:104B5300EBE8124B7EA3A3E022A3A3A3A3A3A3A3E7
:104B6300A3A3124B7E124B72A3A3E0F9EAF822E04F
:104B7300FA850A82850B83A3A3A322F0A3E9124B30
:104B83008522F0850A82850B83A3A3A3A322C08277
:104B9300C0837AC57B0379E2121BE47AC57B0302E7
:104BA300429EC082C08390035602429BC082C08350
:104BB30074FE120931851882851983AA82AB837921
:104BC3004B124BCF1250CB7402024274121BE4857A
:104BD300188285198322C082C083794A121BE4029A
:104BE300429E74F61203889003CDE0FE04F0EEF9C2
:104BF300120D7A8B09EA450970EDEE60EAF9024D70
:104C03002574F0120388EAFEEBFF8C088D09890AEC
:104C13007410120B03E0F50B7411120B03E0F50C87
:104C2300120E9AEA4B7013E50C7042A90AAC08AD58
:104C330009EEFAEFFB120EB2806EE50A6021EA2458
:104C430002F582EB123163850A082508F8E4340083
:104C530013E813F070098A828B83A3A37401F0E530
:104C63000C6045E50B70068A828B83E4F074016562
:104C73000C7035E50B9003D47004E4F0802AE00453
:104C8300F0900D05E0F89003D4E0C398401AE4F0E7
:104C9300900359E06E7003A3E06F700CEEFAEFFB24
:104CA3007901120C1E124CAE0254897A017B0090DA
:104CB30003B0E0F912150622C082C08374016A7042
:104CC30001EB70077A01124CE58012900CFC124C38
:104CD300F4EA4B6005122A3E8003124CAE02429E58
:104CE3007A207B009003B0E0F91213DA223400F546
:104CF30083EAF0A3EBF022C082C083900CFE02385B
:104D03009EC082C083900D0002389E12579C22EEF3
:104D1300240CF582EF3400F583124295E849221200
:104D230008B77F020205A1A2F0E433851882851932
:104D330083124D467952121BEA22124D46794212D2
:104D43001BEA22F0AA82AB8322AA08AB099003B024
:104D5300E0F91213B0223400F9E508241DF582E5C9
:104D630009123EEBE8F0A3E9F022125558A3A3E0A1
:104D730022A3F0EE2415124D7D22F582EF3400F5C7
:104D830083E022124D8A223400F583E0F8A3E0F990
:104D93008882898322E0F8124D9E22A3E0F98E8255
:104DA3008F83A3A322F0EE2418123EE822F0EE2410
:104DB30016123EE82274F4120388EAFEEBFF7A002F
:104DC3007B04124CB2124E47124D6790036574096F
:104DD300F0120DD48A088B09AC08AD09EE24131226
:104DE30030931250CB124F9B640170487A0F124ECE
:104DF3003A60418A828B837402124E51FAA3E0FB1C
:104E03008A828B83A3E0FC8A828B83A3A3E0FBECDF
:104E1300850882850983A3A3124CF58882898312AE
:104E230050CF1246C3124D74FAA3E0FB794A121B0A
:104E3300EA124D4C0231587B001213A48A088B09E5
:104E4300EA450922900336124295900D0022F0EEB6
:104E5300241DF8EF124E5B221243D6E022124E6459
:104E6300223400F5837401F022F582E509123EEB4A
:104E7300E8F0A3E922124E7C22124E8022F085082C
:104E830082850983A322124E80A3A3A3A322124ED9
:104E930089A3A3E0221252A2120E2822EE2417F5B0
:104EA30082EF124E64120DD4EE241A123EE8EAF099
:104EB300A3EBF02274F412038874F3120931890806
:104EC300EAFEEBFF7C0D7D0079008518828519834E
:104ED300AA82AB83121386EE241D12309312578DD0
:104EE300A3E0F8741F58600A7901121BBA79000213
:104EF3004F92E8A2E55008740C120B037401F0E81A
:104F0300A2E75008740B120B037401F0E8A2E674D5
:104F13000A5008120B037401F08008120B03E064BB
:104F2300017005EE24138003EE24151255CA740292
:104F3300120B03AA82AB83121BD2123090124FA022
:104F4300124D67740A120B03E064017033122A7165
:104F5300703B120DE08A0A8B0BA80AA90BEE240BF7
:104F6300123160687003A3E0697022120DD4EAFC69
:104F7300EBFD7402120B03AA82AB83124F9B600DED
:104F8300851882851983AA82AB83120C18A9087429
:104F93000D023155EEFAEFFB121BCCE922E0124F62
:104FA300A522F8A3E0F98518828519832274F612E5
:104FB300038874F31209318A088B09ECFEEDFF7C38
:104FC3000D7D007900851882851983AA82AB83122F
:104FD3005932A3A3A3A3A3A3A3A3A312503A12508A
:104FE30043F8A2E55008740B120B037401F0E8A216
:104FF300E75008740A120B037401F0E8A2E6EE50BE
:10500300042413800224151255CA7402120B0312CE
:10501300502CA3A3E0C0E0740C120B03D0E0125297
:105023009A120C12740D024D22AA82AB83121BD268
:1050330085088285098322E0124FA5E8F0A3E922BF
:10504300F0123EE5125791A3E02274F7120388741D
:10505300E1120931EAFEEBFF8E828F831250CFA358
:10506300A3A3E0A2E050518E828F83122BD18A82B8
:105073008B83A3A3A3A3A3A3E054FE1250E78A82C6
:105083008B831250E0E0F98A828B83E0241CFAA31D
:10509300E0123B011250CB120DCEE9701B741D12AE
:1050A3000B031250DA7011851882851983AC82AD17
:1050B30083EEFAEFFB120E1602530C8E828F83A33C
:1050C300A3A3A3A3A3A3A3A312314E221250D322BB
:1050D300125795A3A3A322123F1D640422E0241BAD
:1050E3001243CF2212427DAC82AD8322E9F87900CC
:1050F300740468600A740A686005740368700109BF
:1051030002084F74F61203888A828B837420F0A3FB
:10511300A37401F0120BC48A088B09AE08AF09EE21
:105123004F60108E828F837401F09003A3E07003AD
:10513300124E9FEEFAEFFB024D25C082C08390030F
:10514300B97401F0E9A2E350037403F0E9A2E1505A
:1051530004E0D2E2F002429E74F612038879007CE6
:10516300008A088B0978081205E7F8FF078E518C2F
:10517300518C518C518C51855189518E5182510CD6
:1051830080097C0480050C80F67C089003B9E05C00
:105193006003098003EC600109024D2574F61203D4
:1051A300888A828B83E07012A3124D1C600C8A8262
:1051B3008B831250CA121D0A80047A007B00024DB1
:1051C3002574F512038874F31209318A088B09ECEC
:1051D300FEEDFF750A12EA45097005790002529344
:1051E300900356E065087004A3E065097014120D7E
:1051F300D4EAFCEBFD124F977005750A0180037525
:105203000A00851882851983E4F004120B03E5086C
:10521300F0A3E50912529A120B88E960277403126E
:105223000B03AA82AB83120B6AE964017016750A39
:10523300017403120B03AC82AD83124F9760217587
:105243000A00801C7412650A70169003A2E06402BF
:10525300700EEEFCEFFDAA08AB09120BA0E970DF9C
:10526300EEFCEFFDAA08AB09120EA0E9F8740A6878
:105273007005750A01801774A0687012EEFCEFFDCB
:10528300AA08AB09120EACAA08AB09120EBEA90AF2
:10529300740D025C9A740212529E221252A22212BE
:1052A300427DAA82AB832274F7120388EAFEEBFFE6
:1052B3008E828F83A3A3A3A3A3A3A3A3E06015EE6E
:1052C300241512309312313E120E40E9640170042A
:1052D300790180258E828F83A3A3A3A3A3A3A3E035
:1052E3006015EE24131230931252FEFAA3E0FB1260
:1052F3000E40E9640160D979008013123BEDA3A34A
:10530300A3A3A3A3A3A3A3E022741F1208B77F013F
:105313000205A174F012038874FD1209318A088B07
:1053230009ECFEEDFF890B7413120B03E0F50C750A
:105333000A017401120B0374041257C56048E50C8B
:10534300601DEA2417F582EB125A081257B38A82BA
:105353008B83E0D2E7F0EA2414F582EB1241A21228
:105363005499EB124D867403125D2BEE8882898368
:10537300A3A3F0EF88828983A3A3123C97123C9ED8
:10538300120BBEE9F50AA90A740302548674EC12DF
:10539300038874F51209318A0A8B0B890C8C0E8DE4
:1053A3000F741F120B03E0F50D7420120B03E0F5CD
:1053B30010A3E0F5117E01EE120B03740AF0E970FD
:1053C30007E50DC333240AF012556B700302546DC5
:1053D3001255807409F0A3E50CC43354E0450D1253
:1053E3005592E50C702D7C008023ECC333F8E43335
:1053F300F9E51028F8E51139F98882898312547A7E
:10540300888289831233B0F0A30EAF830CECC3956B
:105413000D40D7E5082417F582E509124E60120DF9
:10542300D4E508241AF582E509124CF07403120B33
:1054330003AC82AD83AA0AAB0B120B70E96019E5CA
:10544300082416F582E509125474120B03A882A9E5
:1054530083E5082418124D60850882850983125D4F
:1054630027AA08AB09120BBEE9FEEEF9740B02552D
:1054730063124E64740322E08E828F83F0A3AE82A4
:10548300AF83221208B77F080205A1123F45F9EA4C
:105493002400E439FB22EA240BF5822274EE120382
:1054A300888A0C8B0D890E8C088D097412120B03DC
:1054B300E0F50F7413120B0312554C900534124D83
:1054C3001C6077E50FC333F8E433F9E8240EFAE9F7
:1054D3003400FB1213A48A108B11AE10AF11EE4FE0
:1054E30060588E828F8374D4F0A3A3E50CF0A3E5F8
:1054F3000D125554E50EF0AC08AD09EE2405FAEF94
:105503001257CEEE240D123093E50FF0850A08856D
:105513000B09750A00780812086BE50FC333FCE426
:1055230033FDEE240EFAEF1255431208B7EEFAEFED
:10553300FB90053412578D121DAB0245CDFAE509D8
:105543003400FB12137A740322E0F50AA3E0F50B8F
:10555300221255582212555C221241B6A3A3A3224C
:105563001208B77F0C0205A1851882851983AA82C8
:10557300AB83120E288A088B09EA450922EA240B19
:10558300F582EB124D80FEA3E0FF8E828F8322F023
:10559300A3AE82AF83AC0EAD0FEEFAEFFB1255A4B0
:1055A30022121BD21255AB22EE2408FEEF3400FF69
:1055B30022E0FA8E828F83A3A3E022FEA3E03400CD
:1055C300FF8E828F83E022123EE81255D122E0FC47
:1055D300A3E0FD2212314E120DBC2274F612038891
:1055E300EAFEEBFF9003BA801388828983E06E7032
:1055F30003A3E06F603A88828983A3A3124D1C70D2
:10560300E87A047B001214408A088B09A808A909C8
:10561300E849601C8882898312563A9003BA125073
:10562300CB88828983A3A3124CF49003BA124D67EB
:10563300024D258A828B83EEF0A3EFF02274F412DD
:1056430003887E009003BA80070E88828983A3A310
:10565300124D1C70F4EEC333FAE433FB1256E860C8
:105663007E7F009003BA8024888289831255CDEF10
:10567300C333FAE433FBE5082AF582E5093BF583F6
:10568300ECF0A3EDF00F88828983A3A3124D1C7065
:10569300D79003AB122AAB7003A3E06978087019A3
:1056A30012086FEEF50A780A1208737C777D037986
:1056B300009003AB1256F3801A12086FEEF50A78C6
:1056C3000A1208737C777D0379009003AB1250CBE9
:1056D300120E5274031208B7AA08AB091214461229
:1056E3000BD60231581214408A088B09EA45092265
:1056F30012314E120E5822C082C08380128A828BCE
:1057030083A3A3123EF69003BA124D671214469078
:1057130003BA123E0670E602429E74F612038890A4
:105723000363123F229003CE12577C124D677ACE49
:105733007B037950121BEA9003CE122CCAFAEFFBBB
:10574300120EB89003CE123F22900536124D1C6004
:10575300257A067B001213A4EA4B601A8A828B8394
:1057630074D5F0A3A3E41257A2041257B3900536DD
:1057730012578D121DAB024D2512578022E0F8A35C
:10578300E0F9900363228E828F831257912212577E
:105793009522E0F812579B22A3E0F5838882221218
:1057A30057A6221257AA22F08A828B83A3A3A3228D
:1057B3001257A6A3EEF0A3EFF022F582EF124D806D
:1057C300F922124E98EA4B22FAE5093400FB121B28
:1057D300D222124D9FA3A3A3A3A3A3A32290267017
:1057E300E4932401F8E43400F97A027B002274F78D
:1057F3001203887E008004125DDE0E12590240F708
:105803007E00EE12581D74FEF0A304125832E4F029
:105813000EEEC3940340EB02531175F003A4F8A9F1
:10582300F074BC28F8740339F988828983A322129F
:10583300583622F0888289832274F71203887F0006
:1058430080010F902678E493F8EFC3985026EF1267
:1058530059EE6A7003A3E06B70E8125D8B6C700302
:10586300A3E06D600A74FF6C700374FF6D70D31254
:1058730058F980047A007B0002531174F6120388EE
:105883007CFF7DFF7AFE7BFF120E7CEA4B70407536
:1058930008008036E50875F017A4F8A9F0744128CC
:1058A300F582740A125A00600C744028F582740A57
:1058B300125A007013743228FE740A39FF8E828FD5
:1058C30083125A0DEEFAEFFB050812596840C50220
:1058D3004D2574F41203888A088B09ECFEEDFF80D2
:1058E3000B120E8EEEFCEFFDAA08AB09120E7CEA3A
:1058F3004B70EE023158743228FA740A39FB229045
:105903002678E493F8EEC3982274F7120388EAFE2C
:10591300EBFFEE4F601012592C74FEF0A304125DDE
:105923003114F0A304F00253117C177D00790012A7
:1059330013868E828F832274F7120388EAFEEBFFAD
:105943007508008018E50875F017A4F8A9F0125D32
:10595300967003A3E06F6003125DE60508125968B1
:1059630040E3025311902678E493F8E508C39822A4
:1059730074F6120388120E7C8A088B09A808A909F9
:10598300E849600AE8240DFAE93400FB80047A0050
:105993007B00024D2574F41203888A0A8B0BECFEFC
:1059A300EDFF750800750900802EE50975F017A451
:1059B300F8A9F0125DD1601EE5091259EE650A706F
:1059C30004A3E0650B700375080AEEFCEFFD125C9F
:1059D3008D60034308A00509902678E493F8E50950
:1059E300C3985004E50860C2022CC275F017A4F8EE
:1059F300A9F01259F922743228F582740A39F58311
:105A0300E022F582EF123EEBE42212314E120CB487
:105A130022125836A3A3A3A3A3A3A3A32274F2120F
:105A230003888A088B09ECFEEDFF740E120B031238
:105A3300554C750C007C007D01801012139EE50C03
:105A4300F5F0EA84ACF0750C007D007800790080F5
:105A530003125BCA125C264003025AECE8FAE9FB24
:105A6300EA75F017A4FA85F00D75F017EBA4250D70
:105A7300125C027003A3E0F460D7125BE065087068
:105A830004A3E0650960CA125BE06E7003A3E06FD4
:105A930060BF125BE0650A7004A3E0650B60B2E8C7
:105AA300FAE9FBEA75F017A4FA75F017EBA4250DD4
:105AB300FB74402AF582740A125BC1509474016D21
:105AC300050C608DE50CC39C4087E875F017A4F8BE
:105AD300AAF075F017E9A42AF9743228F582740A3A
:105AE30039F5831250CB025BBE7800790080031234
:105AF3005BCA125C334003025BA5E8FAE9FBEA7573
:105B0300F012A4FA85F00D125C1264FE7003A3E098
:105B1300F460DC125C0865087004A3E0650960CFDB
:105B2300125C086E7003A3E06F60C4125C08650A20
