:020000040000FA
:0600000002124E0207B7D8
:03002B000210853B
:03003300020E05B5
:03004300020F2188
:030053000206E8BA
:03006B00020DEB98
:1000830002074C0101FF01010503010F10FEFF9E52
:100093001A9E1A9E1A9E1A5A1954199E1A552D0001
:1000A300000000B72D000000000C0000000C000150
:1000B300FFFF0B0005698500414C44323533302086
:1000C3004454550001020092050000000506640037
:1000D300020200000002050207051E02051E020AB5
:1000E3000A03B80B02803E01028816141F00E007C2
:1000F3009651180002020630313233343536373820
:100103003941424344454600286E756C6C20706F3C
:10011300696E74657229003F3F3F000000807F00D5
:1001230000803FF9021550B743BA51000020410047
:10013300E7DB2E0000A04010000000080000000ACA
:1001430000000012129A604612126D603DE9687059
:1001530008F618F618F618F622748067F712017A73
:10016300090909748067F72212126D601D12129A31
:100173007005191919801A121121701F121136C333
:100183007003E6673319191940071818182208086D
:100193000874FFF618F618F618F6221211366017CF
:1001A3001212D9702192F01212E37019501720F035
:1001B30014080808090909E7F61819E7F61819E7F2
:1001C300F61819E7F6221212E360E6E869701F08D1
:1001D30008E62480F608E436F618547FB47F0CE66C
:1001E30054806007F6E418F618F622181822E9C6B8
:1001F300CC08C6CD08C6CE08C6CFC0E0E8C0E0EA4A
:10020300C0E0EBC0E009E9F809E7FA09E7FBE6F922
:1002130018E6F8C3EC98ED99EE9AEBC2E7F5F0EF28
:10022300C2E795F0500E600CEBCFFBEACEFAE9CDB6
:10023300F9E8CCF8EAA2E7D2E7FAEB33FB13F5F0DF
:10024300EEA2E7D2E7FEEF33FFC5F013A2E730E6F5
:1002530001B313C5F0C3C0E0C0F07F00C39BFB60D4
:100263005B9418600C401AD0E023F9D0E0F8020345
:10027300498AF0E9486003D2F0E4AFF0FAF9F88074
:100283003BEB30E40D89F0EA6003D2F0E4AFF0F920
:10029300CAF8EB30E30D88F0EF6002D2F0AFF0E480
:1002A300CAC9F8EB54076014FBC3EA13FAE913F95C
:1002B300E813F8EF135002D2E0FFDBEDD0E0C0E02B
:1002C30030E739C3E49FFFF5F0EC98FC42F0ED9979
:1002D300FD42F0EE9AFE42F0D0E0F9D0E0F8E5F00E
:1002E300607AE923F9EE20E742D8028067C3EF334F
:1002F300FFEC33FCED33FDEE33FE80EAEC28FCED3E
:1003030039FDEE3AFED0E023F9D0E0F84002801B3D
:10031300C3EE13FEED13FDEC13FCEF135002D2E01A
:10032300FF08B800067F7F74FF802EEF3350178CD1
:10033300F020F00260100CBC000C0DBD00080EBED6
:10034300000408E860DFE933E813FFEE2313FE4FF0
:100353004D4C8008E95480FFE4FEFDFCEE33EF339F
:10036300F47004FCFD7E80D0E0FBD0E0FAD0E0F82E
:10037300D0E0CFC618CEC618CDC618CCC6F9221207
:10038300126D70041818182212129A700D74FFF669
:100393001819F61819F61819F622E7548066F6129A
:1003A30012E3700F1212D970F014F608F608F6086B
:1003B300F680D11212D9700CF608F608768008E69A
:1003C300447F80EC121139700C12112460BFE65483
:1003D30080F6E480BB121124700519191980A5E871
:1003E30069700C763F18768018F618F6E8F922E65D
:1003F300CDC0E018ECC0E0E633CD33CDD313F6E740
:1004030019FCE7191933CC33C3947F400ECD9D50AB
:100413002408E65480F6E418F6800FF4043D1450E3
:100423001408E6447FF6187680E418F618F6D0E050
:10043300FCD0E0FD22CCD313CCFD18E4C6CBC0E046
:1004430018E4C6CAC0E00808ED08C633E613F61878
:10045300E433C675F003C3CA97CA09CB97CB199C7B
:1004630040047D08802EBD000302052B16B6FF0550
:100473000606081618C3CA33CACB33CB33CA27CAF6
:1004830009CB37CB193CC37D08803E187D0820E794
:100493005CC633C6CA33CACB33CB33DDF1D5F0EBFD
:1004A30030E77BCA97CA09CB974ACB199C406F4B5D
:1004B3007025E620E0218066187D08C3CA97CA0923
:1004C300CB97CB199CD3C633C6CA33CACB33CB33F2
:1004D30050C9DDE7D5F0E1D3E4C636C608C636C653
:1004E30008C636C608C636C61818188031C3CA9758
:1004F300CA09CB97CB199CB34097C633C6CA33CA34
:10050300CB33CB33DD34D5F02EC6A2E0C640C8CA08
:1005130027CA09CB37194A70BECB3CB480B9080847
:10052300E63308E633601F181818D0E0FAD0E0FB72
:10053300D0E0FCD0E0FD22187D08CA27CA09CB37DA
:10054300CB193CD3808013F618E4B67F11F618B6A6
:10055300FF0EF618C60470D20808768080CAF61813
:10056300F618F680C50012126D604F12129A6012CF
:10057300E7548066F612112170111212D9703B09EB
:100583000909F4F618F618F618F622121136701542
:100593001212E308080860EAE6447FF6187680182A
:1005A300E4F618F6221212E360161212D97012E45E
:1005B300F608F608F608E65480F60909091818182B
:1005C30022EAC0E0EBC0E0ECC0E0EDC0E0E687F07B
:1005D300A4FBACF008E687F0A42CFCE435F0FA1891
:1005E30009E687F0A42C4B60027401CA35F0FCE4E1
:1005F30033FB09E687F0D2F7A42CCB35F0FC1908BE
:10060300E687F0A42BCC35F0FBE433FD0819E6872D
:10061300F0D2E7A42C4ACB35F0CD3400FC09E687B1
:10062300F0D2E7A42DCC35F0FDE433FA0918E687C0
:10063300F0D2F7A42CCD35F0CA3400FC08E687F0DD
:10064300D2E7D2F7A42ACC35F07A7E20E70B0ACB87
:1006530033CBCD33CDCC33CC33CB3350147004ED0B
:1006630030E00ED2F1E4CD3DCDCC3CCC3B5005DAAD
:1006730005C2F1EB547FC63308E63392F0FBE73350
:1006830009E733C39A502D2B70190C0D4C4D70157F
:100693001806E608C333700D20F10AA2F013F6E43E
:1006A30018800B4024E4F630F002768018F618F632
:1006B30018F68024D33B14501074FFA2F013F618DD
:1006C3007680E418F618F6800FA2F013F618E633D6
:1006D30003F618ECF618EDF6D0E0FDD0E0FCD0E020
:1006E300FBD0E0FA22C0E074F2120AD7A2AFE433DF
:1006F300FED2AFE5A7FFE5A1F5085F54106006122F
:10070300223C75A1EFE5085F540860081222427588
:10071300A1F7802BEFA2E0C0D0E508A2E092F0128F
:1007230011AC158182F05017906198E0F8900AE3BC
:10073300E0C398A2D265D0335002E8F075A1FEEE73
:10074300A2E092AF7F01020B36C0E074F2120AD727
:10075300A2AFE433FED2AF9061A4E0F8759B00E54D
:100763009158540860087591F712228A802AE591FE
:1007730058541060087591EF122290801BE8A2E094
:10078300C0D0E591A2E092F01211AC158182F05035
:1007930007E0C2E0F01223D49061A3E0F8E5E95842
:1007A3005404600E1223AA75E9FB906193E0A2E65C
:1007B30040F2808BC0E074F2120AD7A2AFE433FE9A
:1007C300D2AF9061A5E0F8E5BF585404600675BF49
:1007D300FB1223EC020742C3E498F8E499F91208E8
:1007E3001B8026C3E49AFAE49BFBE920E7E912089D
:1007F3001BE498F8E499F922C3E498F8E499F91210
:10080300081BE498F8E499F9C3E49AFAE49BFB2201
:10081300EB20E7CFE920E7E0B90010BB0008E88A46
:10082300F084F8AAF022E4FBC8FA22EB70227B10D2
:10083300C833C8C933C9335007C39AC3DBF2800630
:100843009A50012ADBEAC833F4C8C933F4C9FA223F
:1008530075F008E4C833C8C933C933C99AC99B5072
:1008630004C92AC93BD5F0ECFBC833F4C8E4C9FA80
:10087300221208B420F01430E72B74FFFCFBFA7447
:100883007F8022E4FCFBFA7480801AB48008BC00E9
:10089300F2BB00EF800F50EBF9E4C39AFAE49BFB41
:1008A300E49CFCE499C6CC18C6CB18C6CA18C6F992
:1008B30022E4C9C608CAC608CBC6D3330308CCC6CC
:1008C3003392F0C3947F402E94184019C9B907049A
:1008D300CACBCC225025C309CA33CACB33CBCC33C2
:1008E300CC33D9F422F4600DC9CCC313CB13CBCAD8
:1008F30013CAD9F6CC22E4FCFBFA2214FCFBFA223D
:10090300080808EAC0E0EBC0E086F0E7A4FA18099B
:1009130086F0E7A42AFA180986F0E7A42AFA180948
:1009230086F0E7A42AFA1986F0E7A4FBE5F02AFA91
:10093300190886F0E7A42BFBE5F03AFA190886F0CC
:10094300E7A42BFBE5F03AFA18180986F0E7A4C5EB
:10095300F02BFBE43AFA1908E7C5F0C6A426F6E53E
:10096300F03BFBE43AFA1886F0E7A4F6E5F0082634
:10097300F6E43B08F6E43A08F6D0E0FBD0E0FA22CE
:10098300080808E630E71112115F12099B080808EE
:10099300C64480C618181822181818E9799EC60884
:1009A300CAC608CBC608CCC6C370207996CACBCCBE
:1009B3007019798ECBCC70137986CC700EF9802A9E
:1009C300CA33CACB33CBCC33CC331930E7F2CCCBDD
:1009D300CA3350147004EA30E00DE4CA3ACACB3B80
:1009E300CBCC3CCC500209C3E913C6CC182313C6A5
:1009F300CB18C6CA18C6F922E4CFC0E0E4CEC0E0E3
:100A0300E4CDC0E0E4CCC0E075F020C3E633F608E3
:100A1300E633F608E633F608E633F6181818EC332F
:100A2300FCED33FDEE33FEEF33FFC3EC9709ED9797
:100A330009EE9709EF97191919400FFFEC97FC0975
:100A4300ED97FD09EE97FE191906D5F0BEECF709EF
:100A5300EDF709EEF709EFF7191919D0E0FCD0E02B
:100A6300FDD0E0FED0E0FF222518C582C0E0E519E5
:100A730034FFC583C0E0E518C3958224F810AF089E
:100A83008583198582188008858319858218D2AFDA
:100A9300CEF0A3E520F0A37808E608F0A3DEFAEF92
:100AA300F0A3E58124FAF8E608F0A3E608F0A3E64C
:100AB30008F0A30808E608F0A3E608F0A3158115DB
:100AC30081D0E0FED0E0F8158115811581E8C0E002
:100AD300EEC0E022C0D02518C582C0E0E51934FF7E
:100AE300C583C0E0E518C3958224F310AF0885835E
:100AF300198582188008858319858218D2AFC8F0BA
:100B0300A3E9F0A3EAF0A3EBF0A37908E709F0A3C4
:100B1300D8FAECF0A3EDF0A3EEF0A3EFF0A3D0E04E
:100B2300F0A3D0E0F0A3D0E0F0A3E520F0A3E5F03C
:100B3300F0A322851983851882E0C0E0A3E0F9A31E
:100B4300E0FAA3E0FBA37808E0F608A3DFFAE0FCF1
:100B5300A3E0FDA3E0FEA3E0FFA3E0C0E0A3E0C0A9
:100B6300E0A3E0F5D0A3E0F520A3E0A3F5F010AFF8
:100B7300088583198582188008858319858218D290
:100B8300AFD082D083D0E0F8D0E0321212CEB900D9
:100B930003020BD0E490030178AA790E8002F0A33C
:100BA300D8FCD9FA9010AAAA82AB8390008678C1A8
:100BB30079018015E493A3AC82AD838A828B83F0A1
:100BC300A3AA82AB838C828D83D8E9D9E775828807
:100BD3007583F87403120FE47582F275832674002B
:100BE300120FE4150075F0108E1A8F1B85821F8576
:100BF300831E851882851983E0CEA3E0CF851F82EB
:100C0300851E83EBC9EAC8EDCBECCAC3E833C8E958
:100C130033C9EA33CAEB33CBC3EA9EF51DEB9FF529
:100C23001CB35004AB1CAA1DEC33CCED33CDD5F073
:100C3300DAAE1AAF1B2212126D601C12129A6017E1
:100C43001212E370071212D97001D322C0D012120C
:100C5300D97006D0D0B322C32233D0D0501430E0A1
:100C6300F6C3E7960809E7960809E7960809E796A1
:100C7300B32220E0D5E6970809E6970809E6970826
:100C830009E697B322D083D082ECC0E0EDC0E0E464
:100C930093A3FCE493A3FDED4C600D120DACEC2487
:100CA300FFFCED34FFFD80EFE493A3FCE493A3FD8D
:100CB300ED4C600D120EA6EC24FFFCED34FFFD801D
:100CC300EFD0E0FDD0E0FCE493A3C0E0E493C0E008
:100CD3002212126D601B12129A60161212E3700731
:100CE3001212D9600CB322C0D01212D97005D0D021
:100CF30022C32233D0D0501330E0EBC3E796080968
:100D0300E7960809E7960809E7962220E0E4E697C4
:100D13000809E6970809E6970809E69722851983E3
:100D2300851882E0A3FEE0A3F5207808E0A3F60887
:100D3300DFFAE0A3FFE0A3C0E0E0A3C0E0E0A3C0CC
:100D4300E0E0A3C0E0E0A3C0E010AF08858218850F
:100D530083198008858218858319D2AFD083D08206
:100D6300020FEAD083D082E9C0E0E493A3C386F004
:100D7300C5F095F0F908E493A386F0C5F095F070FB
:100D83000BE493A3C3994005E9048002A3E475F03F
:100D930002A42582F582E5F03583F583D0E0F9E4FA
:100DA30093A3C0E0E493C0E022C0E0C3E4939608B9
:100DB3007401939618400FE49366700808740193C6
:100DC300661870007019A3A3C3E493960874019383
:100DD3009618A3A3400DD0E0D0E0D0E0020CC4A34A
:100DE300A3A3A3A3A3D0E022C0E074F2120AD7E521
:100DF30089A2E150031220F2758900C2C57F010266
:100E03000B36C0E074F2120AD7E58BA2E05003124E
:100E130020F2758B00C2E880E474048004740280BD
:100E230000CCC0E0EDC0E0E518C39CCCAD19500187
:100E33001D10AF068C188D1980068C188D19D2AF32
:100E4300120F66D0E0FDD0E0FC2274028000CCC01B
:100E5300E0EDC0E0E518C39CCCAD1950011D10AF07
:100E6300068C188D1980068C188D19D2AF120F4479
:100E7300D0E0FDD0E0FC2212126D602512129A60C0
:100E8300201212E370030212D9080808E7667010F3
:100E93001819E766700A1819E76670041819E766E7
:100EA30022F422C0E0C0F088F0E49366700808746E
:100EB300019366187000A8F0A3A3700BD0F0D0E0E4
:100EC300D0E0D0E0020CC4A3A3D0F0D0E022D083C2
:100ED300D082CCC0E0E493A36006120FC51470FA6D
:100EE300E493A360061210CC1470FAD0E0FCE493F0
:100EF300A3C0E0E493C0E022C008C3E096F508086D
:100F0300A3E096420808A3E096420808A3E09642AD
:100F130008A2D265D033E5087001D3D00822C0E01F
:100F230074F2120AD7A2AFE433FED2AFC2C0E5D146
:100F3300A2E450031221B8EEA2E092AF7F01020BAC
:100F430036CAC0E0E493A3C582CCC582C583CDC5B0
:100F530083F0A3C582CCC582C583CDC583DAE5D032
:100F6300E0CA22CAC0E0E0A3C582CCC582C583CD56
:100F7300C583F0A3C582CCC582C583CDC583DAE61C
:100F8300D0E0CA22C008C3E096F50808A3E0964261
:100F93000808A3E096420808A3E09645087001D329
:100FA300D008227009080808226016181818C6C34A
:100FB30033C608C633C608C633C608C633C6D5E02B
:100FC300EA22C0E0E493A3D39C5010E493A3C39C10
:100FD300400AD0E0D0E0D0E0020EEEA3A3A3D0E01D
:100FE30022C09FF59FE473D09F22D083D082C09FFD
:100FF300E493C0E0740193C0E0740293F59F22254B
:1010030018F58210AF08F518400215198008F51875
:1010130040021519D2AF851983227404800A740320
:101023008006740280027401C0E0F404121002D03E
:10103300E01212A922C0D0251810AF08F5185002EB
:1010430005198008F51850020519D2AFD0D022BB7C
:101053000102E722C082C08389828A83BB0003E046
:101063008002E493D083D082226016080808C6C3A6
:1010730013C618C613C618C613C618C613C6D5E0BA
:10108300EA22C0E0C0D0E8C0E0E5A8D2AFC2C7A260
:10109300E792AFD0E0F8D0D0D0E032C3E0C696F606
:1010A30008A3E0C696F608A3E0C696F608A3E0C632
:1010B30096F622251810AF08F51840021519800876
:1010C300F51840021519D2AF22C0E0E493A36C7067
:1010D30009D0E0D0E0D0E0020EEEA3A3D0E022C31B
:1010E300E09608A3E09608A3E09608A3E096A2D2B0
:1010F30065D03322E066701008A3E066700A08A387
:10110300E066700408A3E06622E76670100809E74A
:1011130066700A0809E76670040809E7662218186A
:1011230018E6084608700AE608C3337005E633F488
:10113300220822191919E7094709700AE709C33375
:101143007005E733F4220922C3E096F008A3E09682
:10115300F008A3E096F008A3E096F022181818E42C
:10116300C396F608E496F608E496F608E496F622A3
:10117300E026F608A3E036F608A3E036F608A3E077
:1011830036F622E026F008A3E036F008A3E036F0B6
:1011930008A3E036F022E627F60809E637F6080941
:1011A300E637F60809E637F622C0E0E8C0E0E58155
:1011B30024FCF8E6A2E7D0E0F8D0E022E657F608F0
:1011C30009E657F60809E657F60809E657F622E056
:1011D30056F008A3E056F008A3E056F008A3E05643
:1011E300F022700422600D18C6C333C608C633C686
:1011F300D5E0F41822E647F60809E647F60809E6BB
:1012030047F60809E647F622E056F608A3E056F645
:1012130008A3E056F608A3E056F622C6F4C608C6AD
:10122300F4C608C6F4C608C6F4C622C3E09608A3EB
:10123300E09608A3E09608A3E09622C3E796080980
:10124300E7960809E7960809E7962275D0007581A5
:101253004075180175190300020B8EE6F008A3E62A
:10126300F008A3E6F008A3E6F022E6084608C31355
:101273004608336002E633F422600C08C6C313C683
:1012830018C613C6D5E0F422E0F608A3E0F608A3D7
:10129300E0F608A3E0F622E7094709C31347093339
:1012A3006002E733F422CAC0E0E6F0A308DAFAD01A
:1012B300E0FA22EAF0A3EBF0A3ECF0A3EDF022E0D6
:1012C300FAA3E0FBA3E0FCA3E0FD22E5C754F84446
:1012D30001F5C7790122E7C3331947194719472293
:1012E300E6C333184618461846222518F582E43516
:1012F30019F58322C2AF75D69F02000022120FEDAB
:10130300D33300120FED833400120FED3B3500127F
:101313000FED033600120FEDC33600120FED073742
:1013230000120FED2C3700120FED6F3700120FED87
:10133300BC3700120FED143900120FED9A39001269
:101343000FEDB83900120FEDE23900120FEDFC3941
:1013530000120FED0B3A00120FED163A00120FEDCB
:10136300D63A00120FED2F3B00120FEDF13B0012A6
:101373000FEDF93B00120FEDBD3C00120FED293DBF
:1013830000120FED543E00120FED793E00120FEDE7
:10139300EF3E00120FED813F00120FED41400012AE
:1013A3000FED604000120FED6F4100120FED814110
:1013B30000120FEDF14100120FED1B4200120FED71
:1013C300A94200120FEDE24200120FED2E4300126C
:1013D3000FED4A4400120FED934600120FED9E46A7
:1013E30000120FEDA94600120FEDB44600120FEDE7
:1013F300BE4600120FEDC94600120FEDE346001280
:101403000FEDED4600120FEDF74600120FED024708
:1014130000120FED2A4700120FED854700120FED62
:101423008F4700120FEDB34700120FEDD74700129D
:101433000FED354800120FED794800120FED954876
:1014430000120FED0C4900120FED444900120FED8D
:10145300904900120FEDED4900120FEDA74A00125B
:101463000FED8B4C00120FEDE44C00120FED144EF8
:1014730000120FED3A4E00120FEDC34F00120FEDA5
:101483003F5300120FED115500120FEDDA56001203
:101493000FED875700120FEDF25800120FED91591F
:1014A30000120FEDD65900120FED405A00120FED46
:1014B3004F5A00120FEDD65C00120FED885E00123A
:1014C3000FEDF55E00120FEDD45F00120FEDED602E
:1014D30000120FED6A6200120FED896200120FED28
:1014E300DE6200120FEDE36300120FED0B640012D6
:1014F3000FED636400120FED426500120FED866578
:1015030000120FEDD16500120FED3C6600120FEDD6
:101513007D6700120FEDE16700120FED2F690012D6
:101523000FED8F6B00120FEDC06B00120FED786D96
:1015330000120FEDCD6D00120FEDD16E00120FED05
:101543006E6F00120FEDC76F00120FED7A7000126D
:101553000FED1C7100120FEDBC7100120FED6172E3
:1015630000120FED5A8601120FED998601120FED4D
:10157300E08801120FED2A8901120FED458A01124D
:101583000FEDAD8A01120FEDE28A01120FED568CB9
:1015930001120FEDD98E01120FED029001120FED22
:1015A300989001120FEDA09901120FED359A0112D7
:1015B3000FED1C9D01120FED0F9E01120FED7D9E8D
:1015C30001120FEDC39F01120FEDA5A001120FED44
:1015D3008AA201120FED9BA401120FED05A50112C2
:1015E3000FEDD7A501120FED05A601120FEDC2A64F
:1015F30001120FED99A701120FED60A801120FED73
:1016030004A901120FED2DA901120FED4FA901122B
:101613000FEDA5AB01120FED7DAC01120FEDC1ACC7
:1016230001120FED29AD01120FEDE1AD01120FED26
:1016330013AE01120FED57AE01120FED8DAE011275
:101643000FEDD9AE01120FED2EAF01120FED33AF37
:1016530001120FED86AF01120FEDABAF01120FEDCB
:10166300BAB001120FED1EB101120FED8EB10112CE
:101673000FED1AB201120FEDE7B401120FEDCBB566
:1016830001120FED4EB701120FED84B901120FEDE8
:1016930032BA01120FEDE2BA01120FED23BD0112AE
:1016A3000FEDC6BD01120FED0DBE01120FEDB9BF57
:1016B30001120FEDCDBF01120FEDD7BF01120FEDD8
:1016C300FFBF01120FED0BC001120FED2AC0011273
:1016D3000FED4AC201120FED99C301120FEDDDC3E5
:1016E30001120FED85C401120FED68C501120FED54
:1016F30013C601120FED5FC701120FED5DC8011292
:101703000FED03C901120FED93C901120FEDAAC921
:1017130001120FEDE1C901120FEDEBC901120FED3B
:10172300F6C901120FED14CA01120FED58CA0112C6
:101733000FEDB5CA01120FEDDACA01120FEDF4CAAB
:1017430001120FED80CB01120FED9DCC01120FEDB5
:101753000ACD01120FEDF1CD01120FED18CE0112DA
:101763000FED8CCE01120FED07CF01120FED0BD051
:1017730001120FED01D101120FEDB0D101120FEDE6
:10178300C3D201120FED5FD301120FEDECD301129F
:101793000FEDCAD401120FED02D501120FED5AD588
:1017A30001120FED23D601120FED44D601120FEDF6
:1017B300CBD601120FEDEFD601120FED11D70112A7
:1017C3000FED5AD701120FED70D901120FED57DA51
:1017D30001120FED08DB01120FED3EDD01120FEDDB
:1017E3008EDD01120FEDCEDD01120FED10DE0112C1
:1017F3000FED6CDE01120FED9ADE01120FEDBEDE6E
:1018030001120FED11DF01120FED3FDF01120FED9A
:1018130078DF01120FEDCDDF01120FED33E001127E
:101823000FED87E101120FEDAAE301120FED17E4AB
:1018330001120FED40E401120FEDCBE401120FEDA5
:1018430032E501120FED7DE501120FEDA1E5011265
:101853000FEDC5E501120FED20E601120FED3BE69A
:1018630001120FEDF4E601120FED549704120FED80
:10187300939704120FED788002120FEDBE800212CF
:101883000FED9E8102120FEDA08202120FEDA383D2
:1018930002120FED2F8502120FED8D8502120FED4F
:1018A3004A8602120FED688702120FEDD9870212E2
:1018B3000FED158802120FED638802120FED6D888C
:1018C30002120FEDB18802120FED0D8902120FED16
:1018D300A88902120FED258A02120FEDF48A021273
:1018E3000FED8D8B02120FEDAD8B02120FEDE38B1B
:1018F30002120FED148C02120FEDD58C02120FEDB4
:10190300E58C02120FED398D02120FED548D021288
:101913000FED668D02120FED6F8D02120FEDC98D63
:1019230002120FED258E02120FED718E02120FEDD2
:101933008C8E02120FEDBD8E02120FEDDA8E0212A3
:101943000FEDE68E02120FED5A9002120FED739017
:1019530002120FEDDA9002120FEDED9002120FED6D
:10196300FB9002120FEDAF9102120FED9392021250
:101973000FED999302120FED239402120FED2D94A4
:1019830002120FED9A9402120FEDB19402120FEDB1
:10199300E39402120FED1C9502120FED469502120D
:1019A3000FEDA79502120FEDC79502120FEDE59506
:1019B30002120FED2B9602120FED519702120FED4B
:1019C3009E9702120FEDCD9702120FED439802126C
:1019D3000FED6B9802120FEDA49802120FEDB2985F
:1019E30002120FED0A9902120FED599902120FED2F
:1019F300989902120FEDC89902120FEDF499021291
:101A03000FEDFF9902120FED1D9A02120FEDDF9AEF
:101A130002120FEDE99A02120FED2A9B02120FED4B
:101A23007F9B02120FED939B02120FEDA19C0212FA
:101A33000FEDB49C02120FEDC99C02120FED6B9DCA
:101A430002120FEDEE9D02120FEDAC9E02120FED8E
:101A5300B79E02120FEDE39F02120FEDFF9F0212DA
:101A63000FED51A002120FED90A002120FEDA5A0F1
:101A730002120FED07A102120FED96A102120FED54
:101A8300E1A102120FED32A402120FEDB0A4021273
:101A93000FED25A502120FED47A702120FED5FA769
:101AA30002120FED62A702120FED6EA702120FEDE5
:101AB30082A702120FED8AA702120FEDBDA7021231
:101AC3000FED6DA802120FEDE3A802120FED56A958
:101AD30002120FED0AAA02120FEDBFAA02120FEDB6
:101AE300DEAA02120FED84AB02120FEDAFAB0212AE
:101AF3000FEDB2AB02120FED1CAC02120FED44ADB1
:101B030002120FED1CAE02120FEDA7AE02120FED83
:101B1300C0AF02120FED7DB002120FEDB6B002128C
:101B23000FEDE7B002120FEDA5B102120FEDD5B123
:101B330002120FEDB0B202120FED49B302120FED14
:101B4300D4B302120FED85B402120FED08B50212E1
:101B53000FED3AB502120FED7BB502120FED8FAA0E
:101B630003120FEDF4AA03120FED31AB03120FEDC5
:101B730080AB03120FED96AD03120FED79AF031295
:101B83000FEDE3B203120FED1EB303120FED40B3DB
:101B930003120FEDA3B303120FEDD7B303120FED2F
:101BA300FAB303120FED27B403120FED83B403123C
:101BB3000FEDCA9E03120FED489F03120FED7E9F98
:101BC30003120FEDEA9F03120FED5DA103120FED58
:101BD30079A103120FEDBEA103120FED4CA2031264
:101BE3000FEDA5A203120FEDD2A303120FEDE4A490
:101BF30003120FED41A503120FEDADA503120FED77
:101C03000EA603120FED4FA603120FEDFCA603124F
:101C13000FED0EA803120FED39A803120FED23E405
:101C230002120FEDCBA803120FED5DA903120FED06
:101C330018AA03120FEDCFB403120FEDD9B4031298
:101C43000FED25B503120FED93B503120FEDB4B5E8
:101C530003120FED64B603120FEDF8B803120FED84
:101C630001B903120FED54B903120FED7DB903123D
:101C73000FEDE4B903120FED75BA03120FEDB7BA06
:101C830003120FED01BB03120FED60BB03120FED47
:101C93008CBB03120FED823300120FED5CBC0312F9
:101CA3000FED9BBC03120FEDD0BC03120FEDE2BC92
:101CB30003120FEDF4BC03120FED13BD03120FED6E
:101CC3001CBD03120FEDD2BD03120FED12BE0312A2
:101CD3000FEDA99404120FED5D8704120FED9387A6
:101CE30004120FEDDC8704120FED2C8904120FEDA3
:101CF3002EE701120FED6DE801120FEDA9E80112B5
:101D03000FED68EA01120FED91EA01120FED24EDD8
:101D130001120FED68ED01120FEDF1EE01120FED5F
:101D230089EF01120FEDF1EF01120FED92F00112A5
:101D33000FEDD4F001120FED14F101120FED9FF22C
:101D430001120FED0FF401120FED34F601120FED36
:101D530062F601120FED89F601120FED92F60112F0
:101D63000FED19F701120FED37FA01120FED8E98EF
:101D730004120FEDA49804120FED099704120FED4E
:101D8300FFFB03120FED12FC03120FEDAFFC031266
:101D93000FEDEAFC03120FED05FD03120FED2AFD13
:101DA30003120FED6FFD03120FEDA0FD03120FEDF4
:101DB300D1FD03120FED57FF03120FED098F04122C
:101DC3000FED3F8F04120FED5B8F04120FED9D8F0C
:101DD30004120FEDAD8F04120FED429004120FEDBC
:101DE3004C9004120FEDD5E503120FED8AE60312B2
:101DF3000FED61E703120FED9BE803120FED1EE9F0
:101E030003120FED36E903120FEDAD7200120FED61
:101E1300027300120FEDEB7300120FED84740012C6
:101E23000FEDCE7400120FED2B7500120FED3F7501
:101E330000120FED717500120FED6F7600120FEDAA
:101E4300B37600120FEDCE7600120FED1D77001260
:101E53000FED337700120FED407700120FED74771B
:101E630000120FED8D7700120FED577800120FED72
:101E7300B17800120FEDFF7800120FED21790012F7
:101E83000FED987B00120FEDCD7B00120FED5D7C03
:101E930000120FEDD27C00120FEDD77C00120FED74
:101EA300137D00120FED697D00120FED2D7E0012E0
:101EB3000FED527E00120FED5C7E00120FED5F7E80
:101EC30000120FEDE87E00120FED037F00120FEDFD
:101ED300167F00120FED517F00120FED547F001299
:101EE3000FED5F7F00120FED9B7F00120FEDBC968D
:101EF30004120FEDD49604120FED29D003120FED47
:101F030078D003120FED1AD203120FEDD8D30312B8
:101F13000FED20D403120FED42D503120FED73D64C
:101F230003120FED95D603120FEDF1D603120FED49
:101F330073D703120FED68E402120FED89E4021266
:101F43000FED13E502120FED98E502120FED14E603
:101F530002120FED7DE602120FEDC9E602120FED3C
:101F630048E702120FEDDAE702120FED66E80212FC
:101F73000FEDA8E802120FED14ED02120FED94EE2F
:101F830002120FED6AEF02120FED99EF02120FED3D
:101F930084F102120FED04F402120FEDBDF40212EC
:101FA3000FEDDAF502120FED31F902120FED41F9DF
:101FB30002120FEDA2FA02120FED2EFB02120FED29
:101FC30057FC02120FED48FD02120FEDCAFD02127B
:101FD3000FED4F9003120FED099103120FED7B915B
:101FE30003120FED179203120FED879203120FEDF9
:101FF300409503120FED179603120FED849603120B
:102003000FED019803120FEDCB9803120FED3B99DF
:1020130003120FED049B03120FED179C03120FED38
:10202300B09C03120FED769D03120FEDE4ED031246
:102033000FED38EE03120FED90EE03120FEDDBEE12
:1020430003120FED3DEF03120FEDA9EF03120FED96
:102053005CF003120FED9DF003120FEDB3F00312CA
:102063000FED0FF103120FED4DF103120FED778B0F
:1020730004120FEDA88B04120FED628C04120FED06
:10208300C88C04120FED0AF903120FED96FA03122E
:102093000FEDD47F00120FEDE57F00120FED518D90
:1020A30004120FED5F8D04120FEDEAFF01120FED25
:1020B30064FF03120FED74FF03120FED8FFF031282
:1020C3000FEDF0FF03120FEDA79304120FED2C9405
:1020D30004120FED909404120FED959204120FED7C
:1020E300B79204120FED219304120FED2C930412F7
:1020F3000FED709304120FED77C703120FED85C731
:1021030003120FEDC6C703120FEDE7C703120FED5E
:1021130064C803120FED64C903120FED86C90312DD
:102123000FEDF2C903120FED0DCA03120FED28CA0A
:1021330003120FED32CA03120FED3CCA03120FED67
:102143004FCA03120FED68CA03120FED04CB03123B
:102153000FEDC0CB03120FED37CC03120FEDB1CC53
:1021630003120FEDFDCC03120FEDA3CD03120FED00
:102173007FCE03120FED7EF103120FED8CF10312EC
:102183000FED06F203120FEDEAF203120FEDA3F4C3
:1021930003120FED6C9804120FEDB8FA01120FED54
:1021A30024FB01120FEDE3FB01120FEDEDFC011215
:1021B3000FED46FE01120FEDA1FE01120FEDF6FE2B
:1021C30001120FEDFFFE01120FED11FF01120FEDD2
:1021D3007BFF01120FED8FFF01120FED64DC031281
:1021E3000FEDB9DC03120FEDB5DE03120FEDE7DEE1
:1021F30003120FED09DF03120FED22DF03120FEDC0
:102203003BDF03120FED45E003120FEDE0E0031295
:102213000FED62FE02120FED86FE02120FED9FFE1E
:1022230002120FEDD2FE02120FED03FF02120FEDA9
:1022330031FF02120FED93FF02120FEDA2FF021204
:102243000FEDACFF02120FEDB9FF02120FED0A8082
:1022530004120FED308004120FED6D8004120FEDA8
:102263007C8004120FED9B8004120FED0381041296
:102273000FED0C8104120FED6B8104120FED8F81B2
:1022830004120FED4E8204120FED5B8204120FED68
:102293006C8204120FEDC3FF02120FEDE0FF021276
:1022A3000FED57E103120FEDB5E203120FEDC2E29A
:1022B30003120FEDD5E203120FEDF4E203120FED5B
:1022C3000AE303120FED1EE303120FED93E3031270
:1022D3000FEDF8E303120FEDA8E403120FED7DE514
:1022E30003120FED8DE503120FED9CE503120FEDC5
:1022F300239604120FED479604120FED6F96041206
:102303000FED979604120FED9A8204120FEDC1821E
:1023130004120FEDE28204120FED478304120FED56
:10232300008504120FED198504120FED25850412A3
:102333000FED398504120FED578504120FED6185FA
:1023430004120FED6B8504120FED7E8504120FED61
:10235300D18504120FED0A8604120FED398604129B
:102363000FED878604120FEDD68604120FEDF1866A
:1023730004120FEDFB8604120FED0C8704120FED10
:10238300528704120FED99FF01120FED3BBE0312AA
:102393000FED65BE03120FED81BE03120FED94BE68
:1023A30003120FEDAABE03120FED07BF03120FEDC9
:1023B3003ABF03120FED76C303120FED9CC4031251
:1023C3000FEDCFC403120FED1BC503120FED47C66C
:1023D30003120FED6FC603120FED84C603120FED48
:1023E30094C603120FEDD8C603120FED39C70312BB
:1023F3000FED49C703120FED4F9004120FED6A90D2
:1024030004120FED939004120FEDAD9004120FED33
:10241300D29004120FEDF19004120FED0991041202
:102423000FED379104120FED519104120FED9D97AB
:1024330004120FED08F503120FED0FF503120FED64
:102443001BF603120FED4BF603120FED71F6031299
:102453000FED94F603120FEDB6F603120FEDF0F63F
:1024630003120FED56F703120FED8FF703120FED63
:10247300DBF703120FED08F803120FED28F8031230
:102483000FED8F8904120FEDA78904120FED958AC2
:1024930004120FED748B04120FED829104120FEDF1
:1024A300F49104120FED329204120FED73920412A1
:1024B3000FED23EA03120FED42EA03120FED91EA47
:1024C30003120FEDADEA03120FEDDEEA03120FED77
:1024D300EBEA03120FEDF8EA03120FEDE4EB03123C
:1024E3000FED22EC03120FED32ED03120FED3DED74
:1024F30003120FED4FED03120FED58ED03120FED25
:1025030062ED03120FEDA7D703120FEDECDB0312FD
:102513000FEDFADB03120FED179804120FED7C9504
:1025230004120FEDA69504120FEDE19704120FEDBF
:10253300449804120FEDAE9804120FED00800312BD
:102543000FED1E8503120FEDEFE202120FED4CE2C9
:1025530002120FEDFFE002120FEDAADE02120FEDE1
:1025630040DE02120FEDF8DD02120FED6ADD0212FA
:102573000FED5DDD02120FED57DA02120FEDB9D741
:1025830002120FED5B3300120FED173300120FED44
:1025930082D602120FEDD6D502120FEDDC320012F5
:1025A3000FEDB63200120FED1CD402120FEDCCD199
:1025B30002120FED53D102120FEDFAD002120FEDFA
:1025C3008AD002120FED61D002120FED41CE02123A
:1025D3000FED0DCE02120FEDDACD02120FEDBECDCF
:1025E30002120FEDD7CC02120FED8FCC02120FEDBA
:1025F300DACA02120FED5ACA02120FED57CA0212BB
:102603000FED58C902120FED26C902120FED63C870
:1026130002120FED8EC602120FED1FC602120FED4E
:10262300F1C502120FED9D3200120FED4932001277
:102633000FEDA53100120FED1B3100120FEDBA3073
:1026430000120FEDEEC502120FEDDBC502120FED06
:1026530086C502120FED683000120FED75C5021228
:102663000FED67C402120FED31C402120FEDDFC389
:1026730002120FED563000120FED1DBC03120FEDC9
:1026830080C302120FED4FC302120FED17C00212E7
:102693000FEDD7BF02120FEDCBBF02120FED2BBF11
:1026A30002120FED6BBE02120FEDEDBB02120FED26
:1026B3007EB902120FED3CB902120FED10B80212EF
:1026C3000FEDC5B702120FED04B702120FEDD7B627
:1026D30002120FED1AB602120FEDB0B502120FED92
:1026E300EAB502120FED41E402120FED84A80300D4
:1026F300000080FBE4730000000000000000000005
:102703000000000000001010101010100000303006
:10271300000000142850000000000000000000002A
:102723000000002828FC284850FC505000000000FE
:102733001038545430181454543810000000004416
:10274300A8A8B0541A2A2A440000000000205050C0
:1027530060ACA898927C000000606020C00000007C
:1027630000000000000000040808101010101010F2
:10277300080804000000402010080408102040004E
:1027830000000000001010D63838D61010000000EA
:10279300000000101010FE101010000000000000D8
:1027A3000000000000000000606020C00000000086
:1027B3000000FC000000000000000000000000001A
:1027C3000000000060600000000204040408081018
:1027D300102020204000000000304884848484843A
:1027E3004830000000000010701010101010107C12
:1027F300000000000038444404081020447C00001A
:102803000000003844441804044444380000000025
:10281300080818284848887C081C00000000007C31
:10282300404078440444443800000000003C4480A5
:10283300B8C48484847800000000007C44480810F5
:1028430010101010000000000078848448788484FD
:1028530084780000000000788484848C740488F0F9
:1028630000000000000000303000000030300000A5
:102873000000000000001000000000101020000005
:10288300040810204020100804000000000000008D
:1028930000FC0000FC0000000000000040201008C5
:1028A300040810204000000000007884848408108D
:1028B30010003030000000000038449AAAAAAAB4DD
:1028C300423C00000000001010282828384444EE41
:1028D3000000000000F844447844444444F80000F5
:1028E3000000003C44848080808044380000000065
:1028F30000F048444444444448F00000000000FC15
:1029030044404878484044FC0000000000FC42403A
:102913004878484040E000000000003C4484808048
:102923008E8444380000000000EE4444447C444458
:1029330044EE00000000007C101010101010107CFA
:1029430000000000007C101010101010101090E018
:10295300000000EE44485070484844EE0000000078
:1029630000E040404040404044FC0000000000EED6
:102973006C6C6C54545454D60000000000EE646434
:102983005454544C4CE400000000003048848484C8
:10299300848448300000000000F8444444784040F8
:1029A30040E00000000000304884848484B4483848
:1029B3000C00000000F844447850484844E6000006
:1029C3000000003C44402018040444780000000048
:1029D30000FE92101010101010380000000000EEDE
:1029E30044444444444444380000000000EE44445A
:1029F3002828282810100000000000D654545454EE
:102A03006C2828280000000000EE442828102828FD
:102A130044EE0000000000EE442828101010103887
:102A230000000000007C88081020204044FC0000C7
:102A3300001C101010101010101010101C0000704B
:102A430010101010101010101010700000701010E3
:102A5300101010101010101070000010280000004B
:102A63000000000000000000000000000000000063
:102A73000000000000FE00606020C00000000000B5
:102A83000000000000000000000038441C24443E05
:102A93000000000000C040407844444444780000F3
:102AA3000000000000003C444040443800000000A7
:102AB300000C04043C444444443E00000000000075
:102AC300000038447C40443800000000001C2420EF
:102AD300F8202020207800000000000000003C487F
:102AE300483040784438000000C0404058644444B3
:102AF30044EE000000000010000070101010107C65
:102B030000000000000800003808080808080870E2
:102B1300000000C040405C48507048EC00000000DA
:102B23000070101010101010107C00000000000046
:102B33000000F854545454D6000000000000000074
:102B4300D864444444EE0000000000000000384410
:102B5300444444380000000000000000F8444444AA
:102B6300447840E00000000000003C444444443CFE
:102B7300040E000000000000EC30202020F80000CC
:102B83000000000000003C443008447800000000CE
:102B9300000010107C101010100C0000000000004A
:102BA3000000CC444444443E000000000000000008
:102BB300EE44282828100000000000000000D6542E
:102BC300545428280000000000000000DC48303086
:102BD30048EC0000000000000000EE44282810101C
:102BE30020E00000000000007C481010247C00005E
:102BF30010101010101010101010101010100001F1
:102C03003636010100010201000103010001040144
:102C1300060605020000070100340801000F09043D
:102C230001010D0100FF0E08000017020000190149
:102C330000FF1A0100011B0100FE1C0100081D0218
:102C430000001F01000120010001210200002301F7
:102C5300000F2402000026010001270100082802BA
:102C630000FF2A0100072B0102402C0100002D0167
:102C730000012E0100012F0100FF30010B1C310860
:102C830000003A0100083B01000F2F010000010181
:102C93007101010101011101010131010101010171
:102CA3008001100161013B00140063017301720193
:102CB300620143010001130106013D0135000401D6
:102CC30012010001000100010001040104013301AC
:102CD30033013C014401320136000001000165016A
:102CE300000135008101000105018201830100011A
:102CF300030271023001600211027002010202023A
:102D030002028002100261023A0041006302730270
:102D13007202620243020002130238000002000240
:102D23000402120200020002000200020402040272
:102D3300370037003C02440200023900000200025F
:102D4300650200023502810200020502820283024B
:102D530000020300710030016000110070003102B5
:102D63002003500480001000610000001400630081
:102D730073007200620043000000130006000000AD
:102D83000000040012000000000000000000040026
:102D93000400370037003C0244000000000000003C
:102DA3000000650000003500810000000500000000
:102DB3008300000001037103010301030103010305
:102DC30001032203020301031003000300030003B2
:102DD300000300030003000342030003240306036C
:102DE3000003000304031203250323032503230322
:102DF300040304030003000300034403000300036C
:102E03002303000365032100350381030003050346
:102E130000030003000303047104020460041104AB
:102E23007004020402040104020410046104000497
:102E3300140463047304720462044304000413045B
:102E43000604000400040404120400040004000443
:102E5300000451046400000400040004440400045A
:102E630000040004000465040004350481046400C4
:102E73000504000483040004C9EEDBDACAD0B0B24F
:102E8300C1AAB5C2BFC6BCBCD3C3BBA7B5C7C2BC6E
:102E9300D5CABAC5C3DCC2EBC8B7B6A8C8A1CFFBB5
:102EA300D7A8D2B5D7A8D7A2CEDECFDFCDA8D1B6CB
:102EB300B3CFD0C5C1A2D7E3B4B4D0C2D6C2D4B6BF
:102EC300C7BFB4F3D4ADA3BA0036000100060000B7
:102ED300000F0000000000000000000000000003DD
:102EE300FFFF00000403FFFF0000FFFF0FF40100DA
:102EF30005C4040320000100030B000000000000D0
:102F0300000003010F0000EA1F13008A1F0100EAFB
:102F13001F0200541F03005A1F0400601F050066B0
:102F23001F0600721FFFFF000001AC1506DC150829
:102F3300D6150BE81510281502B21505CA1507B8E2
:102F4300150C8E150DA015FF000003EAF5E5D5D588
:102F5300C5B5A595958585757565655555454535FE
:102F6300352525151505B419E419BA19C019DE1943
:102F7300D219CC19EA19F019F619021AC619AE19A1
:102F8300A81900160F00000B150B020002220F32C6
:102F93000000069E1AB01AB61A7E19BC1A78198454
:102FA30019F81A161B1C1BFE1A0A1B041BB818B2AD
:102FB30018EE18F418E818A0180C0E020B040B0AEC
:102FC3000708000F00383C3E363B3B352B432C00B3
:102FD3000119161816161523030000034948424D1C
:102FE3001817250502303017181921301B1D1F3003
:102FF300303016181920231A1C1E30EC1AC21AC8B6
:103003001AD41ACE1AD819FC19101B081A0E1A0250
:103013000402010101010902C418CA18BE18FA18F2
:10302300000000000000D018E21800BE040A0E00E1
:1030330004007F00E8030C002800000000000903DF
:1030430008100C0A03080900040001FF1E1E0C05EA
:1030530004080FC082C0838A828B83E0D2E7F01218
:103063001EB80241CDC082C083790012352212629C
:1030730039C082C083900334124FBFD083D082C340
:10308300E09CA3E09D500C12690DFAA3E012309965
:103093006001090241CDFBEA75F00BA4FAA8F075B3
:1030A300F00BEBA428FB900336E02AF8A3E03B885F
:1030B30082F583E0540F2274F7120A6B89081235E4
:1030C300221235C8ACF075F00BE9A42CF990033645
:1030D300E028FEA3E039FF74016508600674026509
:1030E3000870208A828B831235B412429B74026566
:1030F30008701B1234731235FB70138E828F83E4B6
:10310300F0800BEA2403FCEB1235961235A2EEFA9B
:10311300EFFB12267402420574F4120A6B12723426
:1031230079008E828F83E06076890A890B8065E55A
:103133000A75F00BA4FAA8F075F00BE50B1230A694
:103143007046E50A75F00BA4F8AAF075F00BE50BD1
:103153001235DA8E828F83E08508828509831236E1
:10316300BC850882850983A312429BEE2403FCEFEE
:1031730012359F1241D4125CB3AA08AB091226740C
:1031830079019003341256C8E50A2401F50AE50BC8
:103193003400F50B12347BE50A9AE50B9B40900251
:1031A300444574F5120A6BEAFEEBFF740B1212ED41
:1031B3001241D9750A01EC4D602BEC127250ED12DD
:1031C3006239124293790112263EE5084509606F80
:1031D300850882850983A312723E7902AA08AB0986
:1031E30012263E805AE5084509602B12623D1249BA
:1031F300071241D51235E5700CEEFAEFFB122638B3
:10320300E9F50A80CBEE2403FA12351D70317903F8
:10321300EEFAEFFB80CA8E828F83A3E064FE700315
:10322300A3E0F4700BEE24030A0A0A12351D700C96
:10323300EEFAEFFB122638E9F50A8003750A00A9B6
:103243000A7F03020D2074F7120A6B9003341242B3
:1032530015EA4B602FEA75F00BA4FAA8F075F00B92
:10326300EBA428FBEAFEEBFF121CE49003361242A8
:103273001590033612550D6012EEFCEFFD79001226
:103283001C488007900336E4F0A3F0024205900344
:1032930034124C77C3EE98EF9922C082C083EC4D71
:1032A30060051224AC80097C087D007900121C485B
:1032B3000241CD74F6120A6B7900EA4B601878006C
:1032C3008808126580EB126909600479017808089F
:1032D300E8C3940840EA0242A474F7120A6B74F339
:1032E3001210B6ECFEEDFF851882851983E4F00415
:1032F3001212EDEAF0A3EB125A3974031212EDAC79
:1033030082AD83EEFAEFFB122626EEFAEFFB1225CF
:10331300A202420074F7120A6B74F31210B6ECFEA9
:10332300EDFF851882851983E4F0EAFCEBFD740355
:103333001212ED1236B574011212ED12428F8E8203
:103343008F8312429B74FE68700374FF6960047973
:10335300018002790002420074F7120A6BEAFEEB65
:10336300FF1233B970141233C48E828F83E0F4F8E2
:103373008A828B83E058F0122674A90802420574EE
:10338300F7120A6BEAFEEBFF7508008E828F83E06B
:1033930060221233B9701D1233C48A828B83E08F8B
:1033A300838E82F8E058700CE0F88A828B83E048C1
:1033B300F012267480C4122656E9F50874016508D4
:1033C300221272491235CC12350EFAA3E039FB22D0
:1033D30074F4120A6B8A088B097C007D0012347323
:1033E3001235A212353312723B79008508828509A2
:1033F30083A3E064FE7003A3E0F460717E007F00AA
:103403008062EEFAEF1230996057EEFAEFFBEA753D
:10341300F00BA4FAA8F075F00BEBA428FB9003368D
:10342300E02AF50AA3E03BF50B850882850983A30F
:10343300125987850A82850B83A3E06A7003A3E090
:103443006B701EE50A2403FAE50B12351E700AE5BC
:103453000A2403FCE50B12359F123527790112620A
:103463004F123E1212347BEE9AEF9B409502444575
:10347300EA24030A0A0AEB22900334125E26C322CB
:1034830074F3120A6B8A088B098A828B83A31272E4
:103493003E12352212723B750C0012347312351E24
:1034A30070547E007F008049123500FAA3E0398A08
:1034B30082F583E0540F6036123500F50AA3E03934
:1034C300F50BE50A2403FCE50B1235A93400FB12C6
:1034D30024A6E964017017850A82850B83A3125E13
:1034E300E7A312429B123527750C0112624F123E5D
:1034F3001212329140B2A90C7F05020D20EEF8EFB3
:10350300F9E875F00BA4F812350E22AAF075F00B4A
:10351300E9A42AF9900336E02822EF1235F52212A6
:10352300724FEB2212353312624AEEF0A3EFF02210
:10353300E508127250E5092274F5120A6BEAFEEBF4
:10354300FF8E828F83A312723E7C007D00EE2403E4
:103553000A0A0AEF1235A2EEFAEFFB122656E9F534
:103563000A7401650A70291272491235C8AAF075E6
:10357300F00BE91235DA850882F5831235B412357A
:10358300E5700DE5082403FCE5091235961235A212
:103593000232423400FDEE2403FAEF221235A9343D
:1035A30000FB122626223400FDE5082403FAE50970
:1035B30022A31235B9221235BD22E0F8A3E0F98E19
:1035C300828F83A3221235CC223400F583124C7BE5
:1035D300E875F00BA4F822123514F508A3E039F5C9
:1035E3000922E8F0A3E9F0E5082403FAE509123516
:1035F300F5221235FB6401223400FB1225A2E922D5
:1036030074F3120A6B74E61210B6127234750C015D
:10361300750800750900750A00750B008518828509
:103623001983E4F0EE2403FCEF3400FD740312125B
:10363300ED1236B5E964017023740B1212ED1242D8
:103643009374011212ED12598B7003A3E069605158
:10365300851882851983858208858309740D121262
:10366300EDE41236BC740E1212ED12429B740D126D
:1036730012EDAA82AB83121300E96401700B740D7F
:103683001212ED85820A85830B780A121025AC0885
:10369300AD09EEFAEFFB1226327402121038E9F587
:1036A3000CEEFAEFFB121C96A90C741A12103802D6
:1036B30034FB12398812130622124210124C77225D
:1036C300C082C0837800790080031237B312347B41
:1036D300E89AE99B5029E8FAE9FBEA75F00BA4FAAA
:1036E300ACF075F00BEBA42CFB900336E02AFCA3A3
:1036F300E03B8C82F583E0540F70CF790080027930
:10370300010241CDC082C083900BE6124CCDEC7513
:10371300F012A4FCA8F075F012EDA428FD79FF7A4D
:10372300527B0B121C480241CD74F7120A6BE9FE5F
:10373300EAFF7A007B00780079008028E8FCE9FD45
:10374300EC75F012A4FC85F00875F012EDA42508C1
:10375300123BC8C39E400AE0FCEFC39C4003123CEB
:10376300E71237B3123BBC40D3024205C082C08389
:103773007800790080031237B31237A7501F123B2A
:10378300CCF470F2E875F012A4F8AAF075F012E91F
:10379300A42AF9745228FA740B39FB80047A007B4B
:1037A300000241CD900BE6123C7DC3E89AE99B22CF
:1037B300E8240108E93400F92274F0120A6B74F367
:1037C3001210B68A0A8B0B8C0C8D0D8908EC450DF3
:1037D3006016AA0CAB0D1213548A0E8B0FAE0EAFEC
:1037E3000FEE4F600302387A12132A8A0E8B0FA84A
:1037F3000EA90FE8FEE9FFE849607C90303F1238DC
:10380300DC60227403650860067404650870167A28
:1038130004790312132490303F1238F340077A00DF
:103823007B000238D990303D1238DC601B7401658F
:1038330008600674026508700F7A02790112132476
:1038430090303D1238F350D6851882851983740160
:10385300F01212ED125CB3AC0CAD0D74031212ED49
:10386300123981740B1212ED1241E112467BE412FC
:103873005C9B1217F88004EE4F604A780074FF25B2
:1038830008C39404500278048E828F83125CB38E33
:10389300828F83A3A3A3A3E508F0E88E828F83A37B
:1038A300A3A3A3A3125CBB120813123C948E828FB2
:1038B30083A3A3A3A3A3A3A3F0123C8B1212C2124C
:1038C30062331212B61238E140059010AEE4F012E2
:1038D30016D2EEFAEFFB024C81125DD549227A042F
:1038E3007900121324900BE61268EFEA98EB992201
:1038F30012390C75830B7582E6E493C398F8A3E43D
:103903009399F9C3EA98EB9922E493F8740193F934
:103913002274F2120A6B74F31210B68A088B09EC44
:10392300FEEDFF750A00EEFAEFFB1213548A0C8BBF
:103933000DA80CA90DE849603E88828983E06508DB
:103943007004A3E06509602F88828983A3A3A3A3DE
:10395300E0C3940550211260E185188285198374B0
:1039630001F01212ED1260E5EEFCEFFD740312128A
:10397300ED123981750A01A90A740D02577F1239B4
:103983008812131222AA82AB8312262685188285F7
:103993001983AA82AB832274F6120A6B1239D6609A
:1039A3000FA3A3A3A3E014C39404500479018002DA
:1039B30079000242A474F6120A6B1239D6600FA37F
:1039C300A3A3A3E014C394025004790180027900F5
:1039D3000242A412134E8A828B83E58245832274AA
:1039E300F6120A6B1239D6600BA3A3A3A3E07004EB
:1039F3007901800279000242A4C082C083EAFCEB11
:103A0300FD7A007B000241CAC082C0837C007D0036
:103A13000241CA74F4120A6B74F31210B6EAFEEB95
:103A2300FF8C0A8D0BC3EC94F8ED94FF4007EE4F27
:103A33007003023ACF750800750900802E8518823D
:103A43008519837401F0123E3A1212ED123E48605A
:103A53001374031212EDAC82AD83EEFAEFFB122462
:103A6300A6E97049E5082401123C68900BE6E412CC
:103A73005DDDE50898E509995052E50875F012A453
:103A8300F8AAF075F012E509A42AF912692260D4A4
:103A9300EE4F70A974FF650A700474FF650B60C470
:103AA300123E2A650A7004A3E0650B70B7E508753A
:103AB300F012A4F508A8F075F012E509A428F50999
:103AC30074522508FA740B3509FB80047A007B00D5
:103AD30002444074F4120A6B74F31210B6750800B2
:103AE3001213548A0A8B0BAE0AAF0BEE4F602A8572
:103AF3001882851983740112420AF8A3E0F9740B42
:103B03001212ED12431E1225847C127D0079FFEE02
:103B1300FAEFFB121C487508011238E150099010A6
:103B2300AE7401F01216D2A90802444074F7120AC7
:103B33006BE9FE74FE6A700374FF6B7800790070A2
:103B43000580521237B3123BBC504AE8FCE9FDEC46
:103B530075F012A4FCAFF075F012EDA42F123BC860
:103B6300F460E0E8FCE9FDEC75F012A4FC75F012DA
:103B7300EDA42FFD74522CF582740B3DF583E06A9E
:103B83007003A3E06B70BC8009123BCC14C3940494
:103B930040171237B31237A75018EE70EC123BCC14
:103BA30064016005E0640370E9123E1BFAA3E0FBC5
:103BB30080047AFE7BFF024205900BE6124CD1C3D0
:103BC300E89CE99D22123D1C22E8FAE9FBEA75F024
:103BD30012A4FAACF075F012EBA42CFB74562AF580
:103BE30082740B3BF583E0221213660241CDC0823F
:103BF300C083790180F274F0120A6B8A0A8B0B7A04
:103C03000479011213248A0C8B0DEA450D603EEAF8
:103C1300C333FAEB33FB121CE48A088B09AE08AFFB
:103C230009EE4F60237AFE7BFF12136C74FE6A70F9
:103C33000374FF6B601B850882850983124215E5B7
:103C4300082402123C6880E1750C0080047E007F2A
:103C530000850A82850B83E50CF0EEFAEFFB024C3C
:103C630086E5082407F508E5093400F50922900BD9
:103C7300E6124CD1C3EA9CEB9D22E493FA740193C0
:103C8300FB22121C3C740322126244E4F090863C33
:103C930022E88E828F83A3A3A3A3A3A3A3A3123C8F
:103CA300B67401123CB6A3F0EE2410126247E4F09E
:103CB300A3F022124687A3A3A322C082C0837A0063
:103CC3007B00800419123CE7123C715010123D0630
:103CD300C3940550F0E970EC123CF080047A007B49
:103CE300000241CDEA24010AEB3400FB22EA75F01D
:103CF30012A4FA75F012EBA428FB74522AFA740B7F
:103D03003BFB22EAFCEBFDEC75F012A4FCA8F0757A
:103D1300F012EDA428123D1C22FD74562CF582747A
:103D23000B3DF583E02274F7120A6B74F31210B69D
:103D33007E007F00023DCEE50875F017A4F8A9F0D8
:103D4300126B83FAA3E0FBEEF8EFF9E875F012A427
:103D5300F8ACF075F012E9A42C123E296A7003A3A3
:103D6300E06B603FE50875F017A4F8AAF0EA126B60
:103D730082F8A3E0F974011212EDE0687003A3E086
:103D8300696020E50875F017A4F8EAF974CE28FCF9
:103D9300740C39FD74031212EDAA82AB831224A6AC
:103DA300E96014E50875F017A4F8A9F074CC28FAB3
:103DB300740C39FB1218040508903044E493F8E5B9
:103DC30008C3985003023D3A123E12900BE6126E5E
:103DD300C95039EEF8EFF9123E1BF47003A3E0F477
:103DE30060E68518828519837401F0EEF8EFF9E82F
:103DF30075F012A4F875F012E9A42AF9123E3A12EA
:103E030012ED123E4860C175080080AD024200EE1B
:103E130024010EEF3400FF22E875F012A4F8AAF093
:103E230075F012E9A42AF9123E2E22745228F58263
:103E3300740B39F583E022745428F582740B39121C
:103E43004C75740B22E8F0A3E912432612130CE914
:103E530022C082C08390033D74C4F0A37415F09014
:103E6300033F74BEF0A37415F090034374DEF0A314
:103E73007413F00241CD74F7120A6BEAFEEBFF9064
:103E83000377E06408601BE0640460168E828F830E
:103E9300E05403640170481241D412477CE0640685
:103EA300703D8E828F83A3A3E064FE7003A3E0F4CE
:103EB300602D8E828F83A3A312428F900368E068E4
:103EC3007003A3E069700BEE2415F582EF12690904
:103ED3006008121672E9F508800812167880F675E4
:103EE30008C2EEFAEFFB121CEA02337D74F4120AE5
:103EF3006B8A088B098A828B83E0F8A3E0FAE82AAD
:103F0300FAE43400FB121CE48A0A8B0BAE0AAF0BF3
:103F1300EE4F6063850882850983E0FC7D007900AC
:103F2300121C488E828F83A3A312723E1216B48E84
:103F3300828F83A3A3A3A3124215850882850983D5
:103F4300E0F8EE28F8EF34001242978508828509DD
:103F530083A3E0C0E0EE240D126236D0E0F0121627
:103F6300C6EE240E126236E91258E8E0C0E0EE24F1
:103F730011126236D0E0F0EEFAEFFB02444574F61C
:103F8300120A6B74EB1210B6EAFEEBFF12550A60CD
:103F9300030240257A077B00121CE4900339124286
:103FA3001512550A60788E828F831212C290033ADB
:103FB30012477F1212B6127102C0E0124031D0E0F4
:103FC300F0EE2405FAEF3400FB8A088B098A82F5A8
:103FD30083E0C0E012402CD0E012443CE0C0E01289
:103FE300402CA3D0E01242811212C2851882851997
:103FF300831212B688828983E0C0E074051212ED41
:10400300D0E0F0850882850983E0C0E074041212D1
:10401300EDD0E0F074071212ED12416780067910BB
:104023008002790174150242A1124031A322900348
:1040330039E0FAA3E0F5838A82A3A3A3A322C08273
:10404300C08312550A600D900339125E1490033930
:10405300E4F0A3F01215E21217A40241CD74F0129A
:104063000A6B74EB1210B6ECFEEDFF89087425128F
:1040730012ED780C12128B74291212EDE0F9742AE6
:104083001212EDE0FC742B1212EDE0FD740F697057
:1040930005740F6C6012901105E06402700579C11C
:1040A300024162E9C39C40F6900378780C12125ED9
:1040B300E50890037EF0E990037CF0ECA3F0ED902B
:1040C300037FF074FF6A700374FF6B701D9011100F
:1040D300E0F47003A3E0F47005121C5A800C9011F5
:1040E300101241EAE8F0A3E98007900375EAF0A310
:1040F300EBF0EE4F6017EEFAEFFB121864E9640180
:10410300700BEEFCEFFD7A897B031224AC900368FD
:10411300E4F0A3F090036BF0A3F0900388F0901108
:1041230005E06402700890037C740FF0A3F0900321
:10413300777405F0141212EDE4F09003781212C2B2
:104143008518828519831212B690037EE0C0E0744D
:10415300051212EDD0E0F074071212ED12416774EC
:1041630015024C83E41243261224D622C082C08354
:10417300900338E07003121F841213AE804CC08288
:10418300C083900338E09010AD7004E4F0802D7488
:1041930001F0900338E0F460237C41E0C394415084
:1041A30002E0FCECF8E0C398F0EC75F0E8A4CCA8CE
:1041B300F075F003A428FD7A80124CD97AAD7B10F8
:1041C30079411224C4800312135AD083D082020F80
:1041D300EAEE12624522E0F508A3E0F50922124156
:1041E300E5221235BDA322124C779003752274F792
:1041F300120A6BEB90037FF01215D08005740D1239
:1042030010387F01020D20124210A3E022124281D6
:10421300A322EAF0A3EBF02274F7120A6B74F812EC
:1042230010B6EAFEEBFF7900900377E06408704470
:1042330085188285198374FDF0A374FFF01216AEFE
:1042430074021212ED12421574051212EDE41242B9
:1042530010E0C0E074041212EDD0E012427CC0E022
:1042630074061212EDD0E0F074071212EDE412435B
:10427300221216F07408024202124281E022F08EEA
:10428300828F8322F085188285198322124C77222C
:10429300E0F8A3E0F9126244E8F0A3E9F022121077
:1042A300387F02020D20C082C083900349746EF0F0
:1042B300A37414F09003EF744AF0A37417F09003FF
:1042C3004D74A4F0A37414F090034F746EF0A374B0
:1042D30014F090035174AAF0A37414F00241CD7446
:1042E300F4120A6B74F91210B68A088B098C0A8DC2
:1042F3000B851882851983780812125E74041212D2
:10430300EDE9F074051212EDE4F074061212EDE417
:104313001243221213967407024442E8F0A3E912EF
:10432300432622124287AA82AB832274F4120A6BB9
:104333008A088B098A828B83126252EE4F700302C2
:10434300443A90031212550D60158A828B83A3A3FE
:10435300E0F9EEFAEFFB90031312477F1226F78E74
:10436300828F83A3A3A3A3A3A3A3A3A3E064027045
:10437300748E828F83A3A3A3A3A3A3E05402700329
:1043830002440C850882850983A3A3E064E960796C
:104393008E828F83A3A3A3A3A3A3A3A3A3A3E0704A
:1043A30014901108E0048E828F83A3A3A3A3A3A375
:1043B300A3A3A3A3F08E828F83A3A3A3A3A3A3A3E7
:1043C300A3A3A3E01412443CA3A3A37404F0901189
:1043D30009125C8DE8F0A3E9126D668B0BEA450BBD
:1043E30070031267448E828F83A3A3A3A3A3A3A303
:1043F300A3A3E0640260128E828F83A3A3A3A3A36B
:10440300A3A3A3A3E06406702E8E828F83A3A3A32A
:10441300A3A3A3E0A2E0501F850882850983A3A379
:10442300E0F9EEFAEFFB1225D88E828F83A3A3A3C4
:10443300A3A3A3E054FEF0800912468322740D1255
:1044430010387F04020D2074EC120A6B74DD121015
:10445300B6EAFEEBFF8C088D0974371212ED780C67
:1044630012128B750A0074051212EDAC82AD831221
:10447300255A74121212EDE0700874151212EDE051
:10448300602074051212EDE0A2E6501E8E828F8327
:10449300A3A3A3A3A3A3A3A3A3125987121726E934
:1044A3006008790312249402466974051212EDE040
:1044B300540C64047005750B018003750B00E0A2B6
:1044C300E55035750A01E50BA2E0402C1216B48ABB
:1044D300108B11A810A9111241D4E0687003A3E056
:1044E30069601574051212ED127245125983122573
:1044F300E4E96004790480AC74051212EDE0A2E6ED
:10450300502274061212EDE054037018740512124F
:10451300EDE0540C640C600CE0540C640860057509
:104523001001800375100074051212EDE05403F8B6
:10453300740268700C1272451259831225480246A0
:1045430069740168703AE510A2E050031246717471
:10455300051212EDA882A98374031212EDE8F0A3E9
:10456300E9124C6B85188285198312467BE0C0E003
:1045730074021212EDD0E01243221226C8024669D9
:10458300E8600302466990035FE0640170108E8265
:104593008F83A3A3A3A3A3A3E070030244F774220E
:1045A3001212ED7402124C6B741A1212ED12429B2A
:1045B300E510A2E0500874051212ED124671E50BE6
:1045C300A2E0506AEE240FF582EF126909C0E0748D
:1045D300171212EDD0E0F090031412550D70030280
:1045E30046691216B48A128B13A812A913741A12ED
:1045F30012EDE0687003A3E069706B780C12101D74
:10460300780A1210297808121025A910740C1212B6
:10461300EDAC82AD8374211212EDAA82AB839003B9
:104623001412477C1226F774071210388038780C5E
:1046330012101D780A12102978081210259003759C
:10464300120E20EE2412F582EF1266377423121233
:10465300EDAC82AD83740E1212EDAA82AB831225E8
:10466300CC74091210387423121038026D3112728F
:1046730045125E2212255422E8F0A3E91246832252
:1046830012468722F08E828F83A3A3A3A3A3A32220
:1046930074F7120A6B121E7002420574F7120A6B4A
:1046A300121E7602420574F7120A6B121E82024230
:1046B30005C082C083121E7C0241CD74F7120A6BBF
:1046C300121E8802420574F7120A6B74091212ED66
:1046D300E0F5087808121029121E947401024202B0
:1046E300C082C083121EA00241CDC082C083121EAD
:1046F300A60241CD74F7120A6B121EAC0242057476
:10470300F7120A6BEAFEEBFF89087401650870145F
:1047130079001214E690304FE493FC7900EEFAEF3F
:10472300FB12145C02420574F4120A6B74F9121042
:10473300B6E9FE8A088B098C0A8D0B74131212EDED
:104743001259879005C512550D6027EE851882858D
:104753001983F074011212ED780812125EEAF8EB75
:10476300F974051212ED12431E9005C512477C120F
:1047730026F7024319FB90034BE0F8A3E0F5838887
:104783008222C082C083121EDC0241CD74F7120A5A
:104793006B9010B0E0F97E00800B1268F5540D6445
:1047A300017001190E1249895003E970ED024205A7
:1047B30074F7120A6B9010B1E0F97E00800B126857
:1047C300F5548D64817001190E1249895003E97003
:1047D300ED02420574F2120A6B890BE975F006A427
:1047E300240CF508E5F0123C6C8A0CE508250CFA5C
:1047F300E5093400FB121CE48A0C8B0DAE0CAF0DE3
:10480300EE4F6027AC08AD097900121C481241D461
:10481300E50BF0EE2508F8EF3509F98E828F83A3B7
:10482300A3A3A3A3A3A3A3A312429BEEFAEFFB02AA
:10483300578274F6120A6BEAFEEBFF1214389010DB
:10484300AFE0F8E9C3984009900345125987121461
:104853003EEE2402F8EF125F97900347125E5190E9
:104863000347E004F0EEFAEFFB1214448508828557
:104873000983E002644DC082C083790090034580C0
:1048830001091259878A828B83E582458370F2027C
:1048930041CD74F7120A6BEAFEEBFFEE4F605690C0
:1048A300034512550D604E888289837A007B00EEA2
:1048B30065827003EF6583600FAA82AB831248FBA6
:1048C300E5824583602F80E79003451249076870AE
:1048D30002EF698E828F83700812428F90034580A6
:1048E30003126D4312429BEEFAEFFB122698EEFA87
:1048F300EFFB121CEA0242051248FF22124C7B888E
:1049030082898322124C77EE22C082C083900345B2
:1049130080048882898312550D600B8882898312F3
:104923004FBFEC4D70EC8A828B83E4F0A3F0E8492F
:1049330060068882898380039003451242150241F1
:10494300CD74F7120A6B90034580048A828B83121D
:1049530049844B60257E0080010E12498950ECEE9C
:1049630075F006A4FCADF0EA2CFCEB3DFDEC241045
:10497300F582ED1249D970E180047A007B0002428E
:1049830005125E26EA221249E2EEC3982274F71258
:104993000A6B7D0080010D1249DEEDC3985034EDA2
:1049A30075F006A4FEA8F0E8FFEA2EFEEB3FFFEE4B
:1049B3002410F582EF1249D970DCED75F006A4FEE0
:1049C300E8FFEA2EFAEB3FFBEA2411F582EB1269CA
:1049D300094CF002420512691569221249E22212BA
:1049E300724FEB3400F583E0F82274F6120A6B126F
:1049F300155E7A007B008025EAF8EBF9E875F0068E
:104A0300A4F8ACF075F006E9A42C125DFB1271104A
:104A1300A3E4125EF1F0A312711612728D90303975
:104A23001238EB40D37A007B00801C8A088B097410
:104A33000378081211E51258AFA374FEF0A3041211
:104A43005CD1A3E412728D903043124A8C40DC7A1D
:104A5300007B00801D8A088B09740378081211E516
:104A630074F4126581740F126DC874FEF0A30412FE
:104A7300728D903049124A8C40DB90304DE4939014
:104A83000353F0124A960242A4E493F8C3EA98EB64
:104A93009400227CE87D037A107B009003C2E0F946
:104AA300121D9E2274F0120A6B74F51210B68A0856
:104AB3008B09890A8C0BE9A2E050147508FC75096F
:104AC300FFA2E15005D2E4024B69D2E3024B691223
:104AD300576E7003A3E06970057900024C36AC0A87
:104AE3007902AA08AB0912153AE960EDE50AF50C5B
:104AF300780C12102979027CFE7DFFAA08AB0912FB
:104B030054E9121038E96003024C34E50AC2E5F5B2
:104B13000A9003B5E07051E50AA2E6404B74031214
:104B230012EDAC82AD83AA08AB0912259CE9703261
:104B3300124E0A8A0C8B0DA80CA90DE8FEE9FFE8BA
:104B4300496025EE24020A0AEF1235FB601AEE24AF
:104B530002FCEF3400FD74031212EDAA82AB831240
:104B630024ACE50AD2E5F50A900348E0F50C90037E
:104B730068E0F50EA3E0F50F780E1210257D017C99
:104B830000900348E0F9AA0EAB0F1214F27402125C
:104B93001038E9F8900348E004F0E86003024C346D
:104BA300E50AA2E55004740E80027406C0E07401A5
:104BB3001212EDD0E01262638A0E8B0FAE0EAF0FAE
:104BC300EE4F6069124C54124C6B888289837401D6
:104BD300F07478550AA3127255E50C127255A3E5C9
:104BE30008F0E509124C43E4F0E50AA2E5500F741E
:104BF300031212EDAC82AD83E82406124C3A8E8286
:104C03008F83A3A374FDF0A374FFF0E50B601590ED
:104C13003050E493F8E50BC3985009EE2413126265
:104C230036E50BF0EEFAEFFB12138A80067910805B
:104C33000279C7740B8049FAE93400FB1224AC22D1
:104C430088828983A3A3A3A3124C4F22125FCAA312
:104C530022EE24171262477401F01216AEEE241AE4
:104C6300126247EAF0A3EB22F01272493400124CAD
:104C73007522F583124C7B22E0F8A3E0F922740D30
:104C83001210387F08020D2074F6120A6B7A007B2B
:104C93001012675160089003D47401F080299006C4
:104CA30066E064019011067006E0FC79018004E07F
:104CB300FC79037A007B0012145C903037124CCDE0
:104CC3007A007B10124CDB0242A4124CD122E493F3
:104CD300FC740193FD227B009003C2E0F9121D983E
:104CE3002274EC120A6B8A088B098C0C8D0D890EC9
:104CF30074141212ED1256C874161212EDE0F51068
:104D0300A3E0F511121726E960077AFF7BFF024E35
:104D130007901105E064026003024DFA7900AA08C6
:104D2300AB09121540A90E1215348A128B13AE1259
:104D3300AF13EE4F7003024DE28E828F83A3A3A3C2
:104D4300A3A3E064018E828F83A3A37069125987A2
:104D53008E828F83A3A3A3A3A3A3E05418604390DD
:104D6300304EE4938E828F83A3A3A3A3F0EA650C52
:104D73007003EB650D6014EA650A7003EB650B6065
:104D83000AEA65107003EB6511701F781012102585
:104D9300AC0AAD0BAA0CAB0D121822740212103818
:104DA300800890036712673BA3F074FE6A70037474
:104DB300FF6B601D804EA3A3A3E0640360298E8272
:104DC3008F83A3A3A3A3A3E0640470057AFE024D1B
:104DD3000F8E828F83A3A3A3A3A3E0640270089022
:104DE30003B4E064027010124E0A8B0BEA450B60A9
:104DF30006AA08AB09800DAA08AB0990034912471C
:104E03007C1226F7026D319003751254EF1217E6E8
:104E13002274F7120A6BEAFEEBFF12133CE9700AE5
:104E2300EEFAEFFB121348E96006EEFAEFFB80049B
:104E33007AFE7BFF02420574F0120A6B8A0A8B0B1F
:104E43008C0E8D0F8909750800121726E979006009
:104E530003024FB1AA0AAB0B121540A9091215346C
:104E63008A0C8B0DAE0CAF0DEE4F60198E828F83C3
:104E7300A3A3A3A3A3E0640270559003B4E0640268
:104E83007003024FAFAA0AAB0B90034F12477C1279
:104E930026F712134E8A0C8B0DA80CA90DE8497046
:104EA30003024FAF88828983A3A3A3A3A3E0A2E055
:104EB3004003024FAF750C01A2E150687901AC0ABF
:104EC300AD0BAA0EAB0F12148CE97064024FAF8EB8
:104ED300828F83A3A3A3A3A3E064037005750C02CD
:104EE30080528E828F83A3A3A3A3A3E064016003F4
:104EF300024FAF900375124FBF8E828F83125314EC
:104F03008A0C8B0DA80CA90DE84960D1903047E4B9
:104F130093FA88828983E0C39A50C2A3E0600302B4
:104F23004FAF80B988828983A3A3A3A3A3D2E1F05F
:104F3300EE4F603A8E828F83A3A3A3A3A3A3E0546F
:104F430018602B7508018E828F83A3A3120E207520
:104F53000CFE750DFF780C1210257900AC0AAD0B11
:104F6300AA0EAB0F1215527404121038803E900330
:104F730068E0650E7004A3E0650F701490304FE491
:104F830093FCA909AA0AAB0B12145C750801801CD7
:104F9300A90CAC0AAD0BAA0EAB0F12148CE9700C62
:104FA300750801A909AA0AAB0B1214E6A908024C59
:104FB30086E50C2415F582E50D12624A125CA722E0
:104FC30074EA120A6B74F01210B68A0C8B0D8C08FB
:104FD3008D0974261212EDE0F514A3E0F515751290
:104FE300069003F512550D6023900375124FBFAA67
:104FF30008AB091218108A108B11EA4511600D8A4B
:10500300828B83A3E0700579000252FCE50C241D1A
:10501300F50EE50D3400F50F850E821254F9F513E4
:1050230088828983A3A3A3E0FA88828983A3A3A3A5
:10503300A3E0F9EA2400FEE439FFAA08AB0912143D
:10504300EC850E82850F83125337E029F50BE50AB1
:10505300A2E5500375120E7487550A70177418551C
:105063000A6418600FE50C2417F582E50D1269092F
:10507300651260077901122494808C530A78C3EE79
:1050830094F8EF94FF501D7900EEFAEFFB125306EC
:10509300601288828983A3A3A3A3A3A3E054186007
:1050A3000302500A78081210257D0012532A1210A9
:1050B30038E9F8740368700302500AE86003025188
:1050C300757418550A700302522AE50AD2E0F50AEC
:1050D300A2E45004D2E1F50AA90A12598012530638
:1050E300605388828983A3A3A3A3A3A3E054186076
:1050F3004488828983A3A3A3A3A3E064017036E554
:105103001045116030900375124FBF888289831256
:1051130053148A0E8B0FA80EA90FE84960178882D3
:105123008983A3E0600F851082851183A3126458DD
:10513300500302500AE50AF50E780E121029125395
:105143001D121038E9702B7C007D008514828515B3
:105153008374FFF0A3F0850C82850D83A3A3A3A31F
:10516300A3A3A3A3E06003124FB4A90B12598012A7
:105173001E9A851482851583E0F47003A3E0F4601E
:10518300399003B4E06402700302500A1256B9E086
:10519300FAA3E01247781226F7EA65087003EB6575
:1051A30009600302500AEEFAEF1247781226F785D8
:1051B3001482851583EAF0A3EBF078081210257D9D
:1051C3000112532A121038A90AEEFAEFFB12154006
:1051D3008A088B09A808A909900368E0687003A3EB
:1051E300E06960030252EDEEFAEFFB12134E8A08F8
:1051F3008B09A808A909E849606E88828983A3A35B
:10520300A3A3E06401600D88828983A3A3A3A3E021
:1052130064027054851882851983AC82AD83EEFADB
:10522300EFFB12259C8055900361E0600FE50AF5C2
:105233000E780E12102912531D121038E50AF50EBE
:10524300780E12102979027CFE7DFFEEFAEFFB1235
:1052530054E9121038E960030251758514828515EB
:105263008374FFF0A30251BC1216AEEAFCEBFD857A
:105273001882851983AA82AB831224AC850C82859C
:105283000D83A3A3A3A3A3A3A3A3E06401700F129D
:105293004FB474081212EDAA82AB831224AC1254D9
:1052A300C31260CF4430F508780812102974011234
:1052B30012ED8582088583097808121025740B1274
:1052C30012ED8582088583097808121025E513F508
:1052D3000878081210297900EEFCEFFD12598012AC
:1052E3001486740612103802500A1254C31262391B
:1052F300125337E50BF01216C674101210387F0ED6
:10530300020D201215348A0E8B0FA80EA90FE8493F
:1053130022A3A3125E26121810227901AC08AD094C
:10532300125E1B1254E922AC0BA913125E1B12145A
:10533300F27402221260D7A3A3A3A32274F0120A69
:105343006B74F01210B68A0C8B0DECFAEDFB750F33
:10535300089003F512550D60141264518A828B83F1
:10536300E58245836007A3E070030254BE1254C371
:1053730034001254F9F50B888289831254CCE0FB74
:10538300EC2400FEE43BFF88828983A3A31254CC60
:10539300A3A3E0FBECF508E43BF50988828983A32A
:1053A300A3A3A3A3A3A3E0F50EE50AA2E450037508
:1053B3000F10A2E550067408250FF50F748F550AD8
:1053C300700FE50C2417F582E50D126909650F606E
:1053D3000879011224940254BE530A707800E50A36
:1053E300A2E450221254C31269092408FCA3E03436
:1053F30000FD74081212EDAA82AB831224AC780864
:10540300E50AC2E4F50AE50AA2E550281254C312DC
:10541300690928F8A3E03400F9E82408FCE934001A
:10542300FD851882851983AA82AB831224ACE50A11
:10543300C2E5F50AAC0EA90BEEFAEFFB1214F8E97C
:10544300F87403686075900368E06E7003A3E06FFF
:10545300605EE87054E50AF50F780F1210291254B4
:10546300DA121038E97054780A12102974011212F2
:10547300ED85820C85830D780C121025740B1212A6
:10548300ED85820C85830D780C121025E50BF50A4A
:10549300780A121029A90EAC08AD09EEFAEFFB1237
:1054A300148674061210388012740468700D80B765
:1054B300780A1210291254DA1210387410024C832D
:1054C300E50C241DF582E50D22A3A3A3E0FC88824D
:1054D3008983A3A3A3A32279011256C012624A129D
:1054E30054EF1254E9221214B0740122E0FCA3E039
:1054F300FDAA08AB0922F5831248FFA3E0F50A8849
:10550300828983A3A3E022900339125E822274E886
:10551300120A6B74F51210B6EAFEEBFF8C088D09C4
:10552300891474231212EDE0F50F74241212EDE0C6
:10553300F512A3E0F51374261212EDE0F516A3E0BD
:10554300F51774281212EDE0F50EA90F1214FE8A56
:10555300108B1174011212ED7408F0E50EA2E450E1
:10556300037410F0E50EA2E55004E02408F085185A
:1055730082851983AA82AB8312170E8A0C8B0DEADC
:10558300450D70030256A0EA2417F582EB1256B2BA
:105593001216AEE50C241AF582E50D126239124299
:1055A3001574031212EDAC82AD83AA10AB11122550
:1055B3009CE9601D1256AA74031212EDA882A983F6
:1055C300E50C2418F582E50D126239E8F0A3E980B1
:1055D30024E50EA2E4501FE5106E7003E5116F7011
:1055E300151256AAE50C2418F582E50D126239E569
:1055F30012F0A3E513F01256B91256C8850A82F5C4
:10560300837402F0A3E50E1256D0E50FF0EE850A7F
:1056130082850B83A3A3A3F0EF850A82850B83A363
:10562300A3A3A31256D0A3A3A3E508F0E509850A13
:1056330082850B83A3A3A3A3A3A3F0AA10AB111288
:1056430014ECE92514850A82850B83A3A3A3A3A3E2
:10565300A3A3F0750800E50EA2E45011AC12AD133C
:10566300E50A2408FAE50B124C3C750808E50EA27E
:10567300E55014AC16AD17E50A2508F8E50B340020
:10568300F9E82408124C3A850C82850D83A3A3E51F
:1056930010F0A3E511F0AA0CAB0D12138A740B12D0
:1056A30010387F10020D20E50C2416F582E50D124B
:1056B300624A7401F0221256C012624A22E50C12A9
:1056C3007250E50D22E0F50AA3E0F50B22F0850AFE
:1056D30082850B83A3A32274F2120A6B8A088B09B7
:1056E300ECFEEDFF890A790012576E7003A3E0699F
:1056F300700479018073750B01900368E06508708D
:1057030004A3E06509601F750B00780B121029A92B
:105713000AEEFCEFFDAA08AB09121762740112101E
:1057230038E9F50B80417900EEFAEFFB121534EA04
:105733004B602B8A828B83A3A3A3A3A3A3E0541858
:10574300601C7508FE7509FF78081210258A828B84
:1057530083A3A3120E2012706512103880097901F9
:10576300EEFAEFFB12140EA90B80141215408A0CEB
:105773008B0DA80CA90D900368E068221210387FE6
:1057830006020D2074F4120A6B75083C75090E7A33
:1057930010126D6D8B0BEA450B7003124A96900342
:1057A30053E014F0700C90304DE493900353F012D7
:1057B300154C7E007F00806C850882850983A3A336
:1057C300A3A3E06059F46056E5082404F582E509D3
:1057D3001267357049850882850983A3A3A3A3A310
:1057E300E0640370197902850882850983124FBF2B
:1057F300850882850983A3A312598712148C85080F
:1058030082850983A3A3A3A3A3E064016010850891
:105813008285098374FEF0A3041258E1E4F0123E7A
:1058230012123C6490303B126EC9408C7E007F00A4
:1058330080391216548E088F09740378081211E503
:1058430074B42508FC740F3509FD7A987B1412167D
:1058530042EA4B70DD8E088F09740378081211E554
:105863001258AF127110E4F0123E12903043E493D9
:10587300F8C3EE98EF9400501B8E088F09740378D9
:10588300081211E51258B7E82407F582E9126735C3
:1058930070D680A17E007F00800A1258C260021475
:1058A300F0123E12126EC640F10244451258B788F8
:1058B3008289832274B42508F8740F3509F922EE1E
:1058C300F8EFF9E875F006A4F8AAF075F006E9A474
:1058D3002AF9745428F582740F39F583E02212589B
:1058E300E8A3A3A322F0850882850983A3A32274D6
:1058F300F7120A6B74E11210B6ECFEEDFF750800A7
:10590300EE4F60728A828B83E0241C126766125505
:105913000D60638A828B8312598785188285198368
:10592300AC82AD83EA241BF582EB126637EA241CB2
:10593300F582EB125983121696740B1212ED12595B
:105943008B7003A3E069702E74021212EDE0640100
:105953007024741D1212ED12477CE06401701774F9
:105963001D1212ED12477EA3A3E0F88E828F83E00F
:10597300687003750801A908741F0242021256C019
:105983003400F583125E26221235B9E0682274F4DE
:10599300120A6BE97024790090034D12477C12269A
:1059A300F78A0A8B0BAE0AAF0B74FE6E700374FF9B
:1059B3006F701A90304AE4936013790190034D128B
:1059C300477C1226F78A0A8B0BAE0AAF0B1216D24C
:1059D300023F7A74F6120A6B74F31210B6121C5A51
:1059E3008A088B09AE08AF09900368E06E7003A3C1
:1059F300E06F60E91216BAEA6E7002EB6F60DEEEDA
:105A0300FAEFFB121726E970D4EE4F60D0851882A7
:105A1300851983E4F0041212EDEEF0A3EF125A3964
:105A2300E970BA74FE6E700374FF6F60B0EEFAEF44
:105A3300FB740D0242A112432612130022C082C03E
:105A4300831216D20241CD7F0A020D2074F2120A8C
:105A53006BEAFEEBFF8C0A8D0B8908740E1212EDB4
:105A6300E0F50974FC6E700374FF6F700579000232
:105A7300578279001215408A0C8B0DAE0CAF0D9036
:105A83000368E06E7003A3E06F7006E509A2E650B9
:105A9300DCA909126F53706179007AFE7BFF126FE4
:105AA300537056741855097003025B8678007900A9
:105AB30080031237B390303B1237AA4003025B8650
:105AC300E8FAE9FBEA75F007A4FAACF075F007EB26
:105AD300A42CFB74422AF582740E3BF583E0541820
:105AE30070D0E875F007A4F8AAF075F007E9A42AC6
:105AF300F9743C28F8740E39F988828983A3A3A327
:105B0300A3A3A3E054186009741855097003025A3B
:105B13007088828983EEF0A3EFF074FE650A700447
:105B230074FF650B6003125CAD88828983A3A3A312
