:020000040000FA
:060000000211EB0207B53E
:03002B0002103888
:03003300020E01B9
:03004300020EF3B7
:030053000206E6BC
:03006B00020DE79C
:1000830002074A0101FF0503018F178F178F178F8F
:10009300174B1645168F17562900000000B8290084
:1000A3000000000C0000000C0001FFFF0BB3046A0A
:1000B3008500414C4432353330204454550001010E
:1000C300010045050000009605E80364006400B8DC
:1000D30001020200000002050207051E02051E0AB6
:1000E30003B80B0201028816021F00E0079651189D
:1000F3000002020612303132333435363738394193
:10010300424344454600286E756C6C20706F696EDF
:1001130074657229003F3F3F000000807F0000802C
:100123003FF9021550B743BA510000204100E7DB05
:100133002E0000A04010000000080000000A00008C
:1001430000121237604612120A603DE9687008F621
:1001530018F618F618F622748067F7120178090961
:1001630009748067F72212120A601D121237700594
:10017300191919801A121094701F1210D3C3700327
:10018300E667331919194007181818220808087464
:10019300FFF618F618F618F6221210D3601712128B
:1001A30076702192F01212807019501720F0140803
:1001B3000808090909E7F61819E7F61819E7F61800
:1001C30019E7F62212128060E6E869701F0808E654
:1001D3002480F608E436F618547FB47F0CE6548086
:1001E3006007F6E418F618F622181822E9C6CC08B8
:1001F300C6CD08C6CE08C6CFC0E0E8C0E0EAC0E07E
:10020300EBC0E009E9F809E7FA09E7FBE6F918E6C4
:10021300F8C3EC98ED99EE9AEBC2E7F5F0EFC2E77D
:1002230095F0500E600CEBCFFBEACEFAE9CDF9E87E
:10023300CCF8EAA2E7D2E7FAEB33FB13F5F0EEA230
:10024300E7D2E7FEEF33FFC5F013A2E730E601B3D1
:1002530013C5F0C3C0E0C0F07F00C39BFB605B9499
:1002630018600C401AD0E023F9D0E0F80203478A63
:10027300F0E9486003D2F0E4AFF0FAF9F8803BEB21
:1002830030E40D89F0EA6003D2F0E4AFF0F9CAF884
:10029300EB30E30D88F0EF6002D2F0AFF0E4CAC9AF
:1002A300F8EB54076014FBC3EA13FAE913F9E813F4
:1002B300F8EF135002D2E0FFDBEDD0E0C0E030E70F
:1002C30039C3E49FFFF5F0EC98FC42F0ED99FD4251
:1002D300F0EE9AFE42F0D0E0F9D0E0F8E5F0607A73
:1002E300E923F9EE20E742D8028067C3EF33FFEC3E
:1002F30033FCED33FDEE33FE80EAEC28FCED39FDF3
:10030300EE3AFED0E023F9D0E0F84002801BC3EEC2
:1003130013FEED13FDEC13FCEF135002D2E0FF08C4
:10032300B800067F7F74FF802EEF3350178CF020C8
:10033300F00260100CBC000C0DBD00080EBE0004E2
:1003430008E860DFE933E813FFEE2313FE4F4D4C5B
:100353008008E95480FFE4FEFDFCEE33EF33F470D4
:1003630004FCFD7E80D0E0FBD0E0FAD0E0F8D0E0E2
:10037300CFC618CEC618CDC618CCC6F92212120A9B
:10038300700418181822121237700D74FFF618191A
:10039300F61819F61819F622E7548066F612128039
:1003A300700F12127670F014F608F608F608F6804D
:1003B300D1121276700CF608F608768008E6447FB0
:1003C30080EC1210D6700C12109760BFE65480F6C2
:1003D300E480BB121097700519191980A5E869709C
:1003E3000C763F18768018F618F6E8F922E6CDC0A9
:1003F300E018ECC0E0E633CD33CDD313F6E719FCB8
:10040300E7191933CC33C3947F400ECD9D50240894
:10041300E65480F6E418F6800FF4043D14501408F3
:10042300E6447FF6187680E418F618F6D0E0FCD0A0
:10043300E0FD22CCD313CCFD18E4C6CBC0E018E416
:10044300C6CAC0E00808ED08C633E613F618E4335D
:10045300C675F003C3CA97CA09CB97CB199C40044E
:100463007D08802EBD000302052916B6FF0506068A
:10047300081618C3CA33CACB33CB33CA27CA09CB2E
:1004830037CB193CC37D08803E187D0820E75CC646
:1004930033C6CA33CACB33CB33DDF1D5F0EB30E708
:1004A3007BCA97CA09CB974ACB199C406F4B7025DF
:1004B300E620E0218066187D08C3CA97CA09CB9756
:1004C300CB199CD3C633C6CA33CACB33CB3350C93B
:1004D300DDE7D5F0E1D3E4C636C608C636C608C69E
:1004E30036C608C636C61818188031C3CA97CA0953
:1004F300CB97CB199CB34097C633C6CA33CACB3309
:10050300CB33DD34D5F02EC6A2E0C640C8CA27CA15
:1005130009CB37194A70BECB3CB480B90808E6331F
:1005230008E633601F181818D0E0FAD0E0FBD0E0DB
:10053300FCD0E0FD22187D08CA27CA09CB37CB19A6
:100543003CD3808013F618E4B67F11F618B6FF0E7D
:10055300F618C60470D20808768080CAF618F61812
:10056300F680C50012120A604F1212376012E75468
:100573008066F61210947011121276703B09090905
:10058300F4F618F618F618F6221210D37015121294
:100593008008080860EAE6447FF618768018E4F6D7
:1005A30018F62212128060161212767012E4F60800
:1005B300F608F608E65480F609090918181822EA1D
:1005C300C0E0EBC0E0ECC0E0EDC0E0E687F0A4FBE8
:1005D300ACF008E687F0A42CFCE435F0FA1809E641
:1005E30087F0A42C4B60027401CA35F0FCE433FBA2
:1005F30009E687F0D2F7A42CCB35F0FC1908E6877F
:10060300F0A42BCC35F0FBE433FD0819E687F0D2D8
:10061300E7A42C4ACB35F0CD3400FC09E687F0D2B1
:10062300E7A42DCC35F0FDE433FA0918E687F0D2C0
:10063300F7A42CCD35F0CA3400FC08E687F0D2E7E6
:10064300D2F7A42ACC35F07A7E20E70B0ACB33CB42
:10065300CD33CDCC33CC33CB3350147004ED30E0F9
:100663000ED2F1E4CD3DCDCC3CCC3B5005DA05C2F6
:10067300F1EB547FC63308E63392F0FBE73309E727
:1006830033C39A502D2B70190C0D4C4D7015180651
:10069300E608C333700D20F10AA2F013F6E41880C4
:1006A3000B4024E4F630F002768018F618F618F6BC
:1006B3008024D33B14501074FFA2F013F6187680F5
:1006C300E418F618F6800FA2F013F618E63303F6D3
:1006D30018ECF618EDF6D0E0FDD0E0FCD0E0FBD04E
:1006E300E0FA22C0E074F2120AD5A2AFE433FED2DC
:1006F300AFE5A7FFE5A1F5085F54106006121E5B86
:1007030075A1EFE5085F54086008121E6175A1F733
:10071300802BEFA2E0C0D0E508A2E092F0121149CD
:10072300158182F05017906198E0F8900A70E0C349
:1007330098A2D265D0335002E8F075A1FEEEA2E094
:1007430092AF7F01020B8CC0E074F2120AD5A2AF04
:10075300E433FED2AF9061A4E0F8759B00E59158B5
:10076300540860087591F7121EA9802AE591585420
:100773001060087591EF121EAF801BE8A2E0C0D095
:10078300E591A2E092F0121149158182F05007E041
:10079300C2E0F0121FF39061A3E0F8E5E9585404B6
:1007A300600E121FC975E9FB906193E0A2E640F267
:1007B300808BC0E074F2120AD5A2AFE433FED2AF4D
:1007C3009061A5E0F8E5BF585404600675BFFB12BD
:1007D300200B020740C3E498F8E499F91208198042
:1007E30026C3E49AFAE49BFBE920E7E9120819E43B
:1007F30098F8E499F922C3E498F8E499F9120819EE
:10080300E498F8E499F9C3E49AFAE49BFB22EB2019
:10081300E7CFE920E7E0B90010BB0008E88AF084DD
:10082300F8AAF022E4FBC8FA22EB70227B10C8334B
:10083300C8C933C9335007C39AC3DBF280069A5041
:10084300012ADBEAC833F4C8C933F4C9FA2275F0C4
:1008530008E4C833C8C933C933C99AC99B5004C90A
:100863002AC93BD5F0ECFBC833F4C8E4C9FA221219
:1008730008B220F01430E72B74FFFCFBFA747F807E
:1008830022E4FCFBFA7480801AB48008BC00F2BB3B
:1008930000EF800F50EBF9E4C39AFAE49BFBE49C6E
:1008A300FCE499C6CC18C6CB18C6CA18C6F922E40C
:1008B300C9C608CAC608CBC6D3330308CCC633920D
:1008C300F0C3947F402E94184019C9B90704CACBCA
:1008D300CC225025C309CA33CACB33CBCC33CC3358
:1008E300D9F422F4600DC9CCC313CB13CBCA13CAFA
:1008F300D9F6CC22E4FCFBFA2214FCFBFA2208080A
:1009030008EAC0E0EBC0E086F0E7A4FA180986F035
:10091300E7A42AFA180986F0E7A42AFA180986F048
:10092300E7A42AFA1986F0E7A4FBE5F02AFA1908E6
:1009330086F0E7A42BFBE5F03AFA190886F0E7A462
:100943002BFBE5F03AFA18180986F0E7A4C5F02B5B
:10095300FBE43AFA1908E7C5F0C6A426F6E5F03B2E
:10096300FBE43AFA1886F0E7A4F6E5F00826F6E485
:100973003B08F6E43A08F6D0E0FBD0E0FA22080898
:1009830008E630E7111210FC120999080808C6445A
:1009930080C618181822181818E9799EC608CAC6FE
:1009A30008CBC608CCC6C370207996CACBCC7019C5
:1009B300798ECBCC70137986CC700EF9802ACA332A
:1009C300CACB33CBCC33CC331930E7F2CCCBCA33DD
:1009D30050147004EA30E00DE4CA3ACACB3BCBCCE6
:1009E3003CCC500209C3E913C6CC182313C6CB1859
:1009F300C6CA18C6F922E4CFC0E0E4CEC0E0E4CD15
:100A0300C0E0E4CCC0E075F020C3E633F608E6337B
:100A1300F608E633F608E633F6181818EC33FCED5F
:100A230033FDEE33FEEF33FFC3EC9709ED9709EE89
:100A33009709EF97191919400FFFEC97FC09ED97E8
:100A4300FD09EE97FE191906D5F0BEECF709EDF78F
:100A530009EEF709EFF7191919D0E0FCD0E0FDD042
:100A6300E0FED0E0FF222518C582C0E0E51934FF7F
:100A7300C583C0E0E518C3958224F810AF088583C9
:100A8300198582188008858319858218D2AFCEF024
:100A9300A3E520F0A37808E608F0A3DEFAEFF0A3BD
:100AA300E58124FAF8E608F0A3E608F0A3E608F0E7
:100AB300A30808E608F0A3E608F0A315811581D082
:100AC300E0FED0E0F8158115811581E8C0E0EEC0A5
:100AD300E022C0D02518C582C0E0E51934FFC583E4
:100AE300C0E0E518C3958224F310AF088583198508
:100AF30082188008858319858218D2AFC8F0A3E9CC
:100B0300F0A3EAF0A3EBF0A37908E709F0A3D8FA7E
:100B1300ECF0A3EDF0A3EEF0A3EFF0A3D0E0F0A38D
:100B2300D0E0F0A3D0E0F0A3E520F0A3E5F0F0A33C
:100B33002212126BB90003020B76E490030178C70B
:100B4300790C8002F0A3D8FCD9FA900EC7AA82AB25
:100B53008390008678BF79018015E493A3AC82ADBE
:100B6300838A828B83F0A3AA82AB838C828D83D802
:100B7300E9D9E77582007583807403120F97758234
:100B8300F37583227400120F97851983851882E009
:100B9300C0E0A3E0F9A3E0FAA3E0FBA37808E0F642
:100BA30008A3DFFAE0FCA3E0FDA3E0FEA3E0FFA3BC
:100BB300E0C0E0A3E0C0E0A3E0F5D0A3E0F520A30C
:100BC300E0A3F5F010AF08858319858218800885A6
:100BD3008319858218D2AFD082D083D0E0F8D0E0D9
:100BE3003275F0108E1A8F1B85821F85831E851820
:100BF30082851983E0CEA3E0CF851F82851E83EB18
:100C0300C9EAC8EDCBECCAC3E833C8E933C9EA3350
:100C1300CAEB33CBC3EA9EF51DEB9FF51CB350041F
:100C2300AB1CAA1DEC33CCED33CDD5F0DAAE1AAF45
:100C33001B2212120A601C121237601712128070E4
:100C4300071212767001D322C0D01212767006D02A
:100C5300D0B322C32233D0D0501430E0F6C3E7968A
:100C63000809E7960809E7960809E796B32220E002
:100C7300D5E6970809E6970809E6970809E697B3C2
:100C83002212120A601B12123760161212807007AA
:100C9300121276600CB322C0D01212767005D0D037
:100CA30022C32233D0D0501330E0EBC3E7960809B8
:100CB300E7960809E7960809E7962220E0E4E69715
:100CC3000809E6970809E6970809E69722D083D032
:100CD30082ECC0E0EDC0E0E493A3FCE493A3FDED5C
:100CE3004C600D120DA8EC24FFFCED34FFFD80EFEA
:100CF300E493A3FCE493A3FDED4C600D120EA2EC70
:100D030024FFFCED34FFFD80EFD0E0FDD0E0FCE4F8
:100D130093A3C0E0E493C0E022D083D082E9C0E093
:100D2300E493A3C386F0C5F095F0F908E493A38692
:100D3300F0C5F095F0700BE493A3C3994005E90463
:100D43008002A3E475F002A42582F582E5F03583E1
:100D5300F583D0E0F9E493A3C0E0E493C0E02285F7
:100D63001983851882E0A3FEE0A3F5207808E0A3A9
:100D7300F608DFFAE0A3FFE0A3C0E0E0A3C0E0E0F1
:100D8300A3C0E0E0A3C0E0E0A3C0E010AF08858209
:100D9300188583198008858218858319D2AFD0837B
:100DA300D082020F9DC0E0C3E4939608740193962A
:100DB30018400FE493667008087401936618700076
:100DC3007019A3A3C3E49396087401939618A3A37D
:100DD300400DD0E0D0E0D0E0020D0CA3A3A3A3A369
:100DE300A3D0E022C0E074F2120AD5E589A2E15053
:100DF30003121D17758900C2C57F01020B8CC0E069
:100E030074F2120AD5E58BA2E05003121D17758BFD
:100E130000C2E880E47404800474028000CCC0E063
:100E2300EDC0E0E518C39CCCAD1950011D10AF0611
:100E33008C188D1980068C188D19D2AF120F38D0EB
:100E4300E0FDD0E0FC2274028000CCC0E0EDC0E005
:100E5300E518C39CCCAD1950011D10AF068C188D3D
:100E63001980068C188D19D2AF120F16D0E0FDD061
:100E7300E0FC2212120A602512123760201212803F
:100E83007003021276080808E76670101819E766FF
:100E9300700A1819E76670041819E76622F422C06D
:100EA300E0C0F088F0E49366700808740193661854
:100EB3007000A8F0A3A3700BD0F0D0E0D0E0D0E096
:100EC300020D0CA3A3D0F0D0E022C008C3E096F536
:100ED3000808A3E096420808A3E096420808A3E0A6
:100EE300964208A2D265D033E5087001D3D0082218
:100EF300C0E074F2120AD5A2AFE433FED2AFC2C08F
:100F0300E5D1A2E45003121DD7EEA2E092AF7F0118
:100F1300020B8CCAC0E0E493A3C582CCC582C5830F
:100F2300CDC583F0A3C582CCC582C583CDC583DA85
:100F3300E5D0E0CA22CAC0E0E0A3C582CCC582C521
:100F430083CDC583F0A3C582CCC582C583CDC583BC
:100F5300DAE6D0E0CA2270090808082260161818D9
:100F630018C6C333C608C633C608C633C608C63355
:100F7300C6D5E0EA22C008C3E096F50808A3E096C8
:100F8300420808A3E096420808A3E09645087001CA
:100F9300D3D00822C09FF59FE473D09F22D083D083
:100FA30082C09FE493C0E0740193C0E0740293F5A0
:100FB3009F227404800A7403800674028002740101
:100FC300C0E0F404120FD0D0E0121246222518F527
:100FD3008210AF08F518400215198008F518400271
:100FE3001519D2AF85198322C0D0251810AF08F583
:100FF30018500205198008F51850020519D2AFD010
:10100300D022BB0102E722C082C08389828A83BBCC
:101013000003E08002E493D083D0822260160808A4
:1010230008C6C313C618C613C618C613C618C613F4
:10103300C6D5E0EA22C0E0C0D0E8C0E0E5A8D2AF60
:10104300C2C7A2E792AFD0E0F8D0D0D0E032C3E07D
:10105300C696F608A3E0C696F608A3E0C696F60879
:10106300A3E0C696F622251810AF08F5184002151E
:10107300198008F51840021519D2AF22E7667010DF
:101083000809E766700A0809E76670040809E76655
:1010930022181818E6084608700AE608C3337005D4
:1010A300E633F4220822E066701008A3E066700AB3
:1010B30008A3E066700408A3E06622C3E09608A3D1
:1010C300E09608A3E09608A3E096A2D265D0332267
:1010D300191919E7094709700AE709C3337005E7C6
:1010E30033F4220922C3E096F008A3E096F008A3A4
:1010F300E096F008A3E096F022181818E4C396F6D9
:1011030008E496F608E496F608E496F622E026F656
:1011130008A3E036F608A3E036F608A3E036F62285
:10112300E026F008A3E036F008A3E036F008A3E0D9
:1011330036F022E627F60809E637F60809E637F619
:101143000809E637F622C0E0E8C0E0E58124FCF8B0
:10115300E6A2E7D0E0F8D0E022E056F608A3E05696
:10116300F608A3E056F608A3E056F622E056F00888
:10117300A3E056F008A3E056F008A3E056F022706F
:101183000422600D18C6C333C608C633C6D5E0F4BF
:101193001822E647F60809E647F60809E647F6087F
:1011A30009E647F622E657F60809E657F60809E680
:1011B30057F60809E657F622C6F4C608C6F4C60869
:1011C300C6F4C608C6F4C622C3E09608A3E0960890
:1011D300A3E09608A3E09622C3E7960809E79608DA
:1011E30009E7960809E7962275D0007581407518BE
:1011F3000175190300020B34E6F008A3E6F008A317
:10120300E6F008A3E6F022E6084608C313460833CF
:101213006002E633F422600C08C6C313C618C61373
:10122300C6D5E0F422E0F608A3E0F608A3E0F6084A
:10123300A3E0F622E7094709C3134709336002E72E
:1012430033F422CAC0E0E6F0A308DAFAD0E0FA22C7
:10125300EAF0A3EBF0A3ECF0A3EDF022E0FAA3E0B5
:10126300FBA3E0FCA3E0FD22E5C754F84401F5C766
:10127300790122E7C33319471947194722E6C333D4
:10128300184618461846222518F582E43519F583C1
:1012930022C2AF75D69F02000022120FA0CFE00139
:1012A300120FA0F5E001120FA030E101120FA0749C
:1012B300E101120FA09BE101120FA0ECE101120F5B
:1012C300A09CE201120FA054E301120FA01CE40141
:1012D300120FA0F9E401120FA07FE501120FA08EF7
:1012E300E501120FA099E501120FA0A2E601120F6A
:1012F300A0B3E601120FA029E701120FA0BBE7017B
:10130300120FA013E801120FA0D9E801120FA00ACF
:10131300E901120FA04FE901120FA05CE901120FBE
:10132300A0F0EA01120FA053EC01120FA06FED0120
:10133300120FA0D9EF01120FA0E4EF01120FA0EEDC
:10134300EF01120FA0F9EF01120FA003F001120F2A
:10135300A00DF001120FA018F001120FA023F0014D
:10136300120FA054F001120FA078F001120FA09CED
:10137300F001120FA001F101120FA045F101120FAC
:10138300A061F101120FA0D8F101120FA010F20118
:10139300120FA05CF201120FA0B9F201120FA09B71
:1013A300F401120FA021F501120FA0F2F501120FA3
:1013B300A002F901120FA057F901120FA083F9013E
:1013C300120FA0CFFA01120FA01FFB01120FA0747E
:1013D300FB01120FA075FC01120FA00DFD01120FEE
:1013E300A08FFD01120FA02FFE01120FA0BC2B0036
:1013F300120FA0F52B00120FA0CF2D00120FA00E7D
:101403002E00120FA0582E00120FA0FD2E00120F57
:10141300A05C2F00120FA0902F00120FA0FD2F0031
:10142300120FA01A3100120FA0223200120FA0B81F
:101433003200120FA0FF3500120FA0A83600120FC2
:10144300A0843700120FA0E53700120FA002390065
:10145300120FA02C3B00120FA0E33B00120FA0EDD4
:101463003B00120FA0203C00120FA0E73C00120F1C
:10147300A0823D00120FA0E73D00120FA0103E0016
:10148300120FA0323E00120FA0614000120FA038CD
:101493004100120FA07C4100120FA0E94100120F7E
:1014A300A0A44200120FA0D64200120FA01A4300BC
:1014B300120FA04D4300120FA0A24300120FA0F77A
:1014C3004300120FA08B4400120FA0ED4400120F33
:1014D300A0554500120FA0FE4600120FA0E64700DC
:1014E300120FA0284900120FA0564B00120FA0168E
:1014F3004C00120FA0454E00120FA0E84E00120F31
:10150300A0264F00120FA0D25000120FA0E65000E9
:10151300120FA0F05000120FA01A5100120FA026B4
:101523005100120FA0455100120FA0FC5100120FE1
:10153300A03B5200120FA0455200120FA0F9520017
:10154300120FA0F85300120FA0F15400120FA08E37
:101553005500120FA0305600120FA0475600120F6D
:10156300A07E5600120FA09C5600120FA0E056005A
:10157300120FA0055700120FA0EB5700120FA05730
:101583005800120FA0D15800120FA0E05900120FFB
:10159300A01F5B00120FA0815B00120FA03B5C0039
:1015A300120FA05E5C00120FA0325D00120FA07D2F
:1015B3005D00120FA0BF5D00120FA0165E00120F98
:1015C300A04D5E00120FA07B5E00120FA0B45E0060
:1015D300120FA0D95E00120FA0615F00120FA0844A
:1015E3006100120FA0E36100120FA0776200120FD7
:1015F300A0E36200120FA0376300120FA064A203DE
:10160300120FA0A3A203120FA038B701120FA092CA
:10161300B701120FA0EEB701120FA03AB801120FD3
:10162300A055B801120FA086B801120FA0A3B801EC
:10163300120FA0AFB801120FA023BA01120FA03CE2
:10164300BA01120FA0A3BA01120FA0B6BA01120F6A
:10165300A0C4BA01120FA078BB01120FA05CBC0199
:10166300120FA062BD01120FA0E8BD01120FA0F27C
:10167300BD01120FA05FBE01120FA076BE01120FB3
:10168300A0A8BE01120FA0E1BE01120FA00BBF0163
:10169300120FA06CBF01120FA08CBF01120FA0AAE2
:1016A300BF01120FA0F0BF01120FA016C101120F4C
:1016B300A063C101120FA092C101120FA008C201C1
:1016C300120FA030C201120FA069C201120FA0773E
:1016D300C201120FA0CFC201120FA01EC301120F2D
:1016E300A05DC301120FA08DC301120FA0B9C301E6
:1016F300120FA0C4C301120FA0E2C301120FA0A4D2
:10170300C401120FA0AEC401120FA0E9C401120F4D
:10171300A0FFC401120FA008C501120FA05DC501EF
:10172300120FA071C501120FA07FC601120FA09264
:10173300C601120FA0A7C601120FA049C701120FBD
:10174300A0CCC701120FA08AC801120FA095C8012F
:10175300120FA0BBC901120FA0D7C901120FA029F4
:10176300CA01120FA068CA01120FA07DCA01120F8D
:10177300A0BFCA01120FA00CCD01120FA08ACD0188
:10178300120FA0FDCD01120FA01FD001120FA03721
:10179300D001120FA03AD001120FA046D001120FB0
:1017A300A05AD001120FA062D001120FA095D00150
:1017B300120FA045D101120FA0BBD101120FA02E11
:1017C300D201120FA0E2D201120FA097D301120F80
:1017D300A0B6D301120FA056D401120FA062D401F8
:1017E300120FA08DD401120FA090D401120FA0FAF2
:1017F300D401120FA022D601120FA0FAD601120FA4
:10180300A085D701120FA09ED801120FA05BD901AA
:10181300120FA094D901120FA0C5D901120FA06510
:10182300DA01120FA095DA01120FA070DB01120F7B
:10183300A009DC01120FA094DC01120FA045DD0109
:10184300120FA0C7DD01120FA0F9DD01120FA03A9C
:10185300DE01120FA004C302120FA069C302120F0C
:10186300A0A6C302120FA0F5C302120FA00BC6025B
:10187300120FA0EEC702120FA058CB02120FA093B3
:10188300CB02120FA0B5CB02120FA018CC02120F7D
:10189300A04CCC02120FA06FCC02120FA09CCC0262
:1018A300120FA0F8CC02120FA07FAC02120FA0FD02
:1018B300AC02120FA033AD02120FA09FAD02120FA4
:1018C300A012AF02120FA02EAF02120FA073AF022D
:1018D300120FA001B002120FA05AB002120FA0877C
:1018E300B102120FA099B202120FA0F6B202120FA8
:1018F300A062B302120FA0C3B302120FA004B4027A
:10190300120FA0B1B402120FA0C3B502120FA0EEC2
:10191300B502120FA039B602120FA080B602120F41
:10192300A012B702120FA0CDB702120FA080D602E9
:10193300120FA08AD602120FA0D6D602120FA0440D
:10194300D702120FA065D702120FA015D802120FEB
:10195300A0A9DA02120FA0B2DA02120FA005DB026D
:10196300120FA02EDB02120FA095DB02120FA0268E
:10197300DC02120FA068DC02120FA0B2DC02120F0D
:10198300A011DD02120FA0A2DD02120FA0E1DD0201
:10199300120FA020DE02120FA055DE02120FA06765
:1019A300DE02120FA079DE02120FA098DE02120FE0
:1019B300A0A1DE02120FA069DF02120FA0E79E03AF
:1019C300120FA0F09303120FA0269403120FA06F1F
:1019D3009403120FA0BF9503120FA0716300120F9F
:1019E300A0B06400120FA0EC6400120FA0AB66005D
:1019F300120FA0E9AF01120FA0676900120FA0AB8D
:101A03006900120FA0346B00120FA0CC6B00120FF1
:101A1300A0346C00120FA0D56C00120FA0176D003C
:101A2300120FA0576D00120FA0E26E00120FA0520A
:101A33007000120FA0777200120FA0A57200120F90
:101A4300A0CC7200120FA0D57200120FA05C73001D
:101A5300120FA07A7600120FA069A403120FA0AD93
:101A6300A203120FA0778303120FA08A8303120F1E
:101A7300A0B6E001120FA0628403120FA07D8403BD
:101A8300120FA0A28403120FA0E78403120FA01861
:101A93008503120FA0498503120FA0CF8603120FEF
:101AA300A0BA7E00120FA0F07E00120FA00C7F00E0
:101AB300120FA04E7F00120FA05E7F00120FA0F343
:101AC3007F00120FA092DF02120FA047E002120F55
:101AD300A027E102120FA08CE202120FA003E3027F
:101AE300120FA01BE302120FA0F1E302120FA04F8B
:101AF3009002120FA0A49002120FA04E9102120F97
:101B0300A0F69102120FA0539202120FA067920245
:101B1300120FA0319402120FA0AC9402120FA0D6A0
:101B23009402120FA0739602120FA08E9602120F48
:101B3300A0DD9602120FA0F39602120FA0009702E7
:101B4300120FA0349702120FA04A9702120FA0D5CA
:101B53009702120FA02F9802120FA07D9802120F66
:101B6300A0879902120FA0099C02120FA0A39C0246
:101B7300120FA0E59C02120FA07A9D02120FA097EC
:101B83009D02120FA09A9D02120FA09D9D02120F9B
:101B9300A0109E02120FA02B9E02120FA0579E02AE
:101BA300120FA0929E02120FA0959E02120FA090F8
:101BB300A103120FA09CA103120FA0D6A103120F21
:101BC300A0CE9E02120FA0F99E02120FA0C59F0283
:101BD300120FA04AA002120FA0B3A002120FA0FF7F
:101BE300A002120FA07EA102120FA010A202120FD8
:101BF300A09CA202120FA0DEA202120FA04AA7020B
:101C0300120FA0CAA802120FA021AA02120FA0ADA0
:101C1300AA02120FA044B802120FA0FEB802120FBC
:101C2300A070B902120FA00CBA02120FA07CBA0264
:101C3300120FA0B0BB02120FA08CBC02120FA0FDAA
:101C4300BC02120FA07ABE02120FA03CBF02120FF9
:101C5300A053C002120FA0F2C002120FA0AFC10224
:101C6300120FA0FC8903120FA0508A03120FA0A821
:101C73008A03120FA0F38A03120FA0558B03120FCE
:101C8300A0EE8B03120FA0568C03120FA0628C03DD
:101C9300120FA0229603120FA0539603120FA00D4A
:101CA3009703120FA0739703120FA0828003120FE2
:101CB300A00E8203120FA0D6A303120FA0E7A30363
:101CC300120FA0FC9703120FA00A9803120FA07F14
:101CD300A403120FA0FAA003120FA00AA103120F6C
:101CE300A025A103120FA086A103120FA0F7FE02E5
:101CF300120FA07CFF02120FA0E0FF02120FA0D56B
:101D03009D03120FA0F79D03120FA0619E03120FF4
:101D1300A06C9E03120FA0B09E03120FA0FB7600CF
:101D2300120FA0097700120FA04A7700120FA06BC1
:101D33007700120FA0F57700120FA0177800120F8B
:101D4300A0837800120FA09E7800120FA0B978002C
:101D5300120FA0C37800120FA0CD7800120FA0E0DD
:101D63007800120FA0F97800120FA0957900120FD6
:101D7300A0517A00120FA0C87A00120FA0427B0074
:101D8300120FA08E7B00120FA0347C00120FA01044
:101D93007D00120FA0EDF702120FA0FBF702120F46
:101DA300A075F802120FA059F902120FA012FB023C
:101DB300120FA029A403120FA0E7E402120FA053ED
:101DC300E502120FA012E602120FA01CE702120F87
:101DD300A075E802120FA0D0E802120FA025E902B5
:101DE300120FA02EE902120FA040E902120FA0AABF
:101DF300E902120FA0BEE902120FA0C8E902120FF6
:101E0300A01DEA02120FA019EC02120FA04BEC0264
:101E1300120FA06DEC02120FA086EC02120FA09F0E
:101E2300EC02120FA0A9ED02120FA044EE02120F52
:101E3300A0419B03120FA0659B03120FA07E9B037F
:101E4300120FA0B19B03120FA0E29B03120FA0106D
:101E53009C03120FA0729C03120FA0819C03120F0C
:101E6300A08B9C03120FA0989C03120FA09D8C03C0
:101E7300120FA0C38C03120FA0008D03120FA00F2B
:101E83008D03120FA02E8D03120FA0968D03120F38
:101E9300A09F8D03120FA0FE8D03120FA0228E03AD
:101EA300120FA0E18E03120FA0EE8E03120FA0FFFC
:101EB3008E03120FA037A303120FA054A303120F14
:101EC300A0BBEE02120FA019F002120FA026F0021F
:101ED300120FA039F002120FA058F002120FA06ED9
:101EE300F002120FA082F002120FA0F7F002120FFD
:101EF300A05CF102120FA00CF202120FA0E1F20299
:101F0300120FA0F1F202120FA000F302120FA0C1F0
:101F13009F03120FA0E59F03120FA00DA003120F42
:101F2300A035A003120FA02D8F03120FA0548F030F
:101F3300120FA0758F03120FA0DA8F03120FA09355
:101F43009103120FA0AC9103120FA0B89103120FCB
:101F5300A0CC9103120FA0EA9103120FA0F49103F6
:101F6300120FA0FE9103120FA0119203120FA0648F
:101F73009203120FA09D9203120FA0CC9203120F93
:101F8300A01A9303120FA0699303120FA084930363
:101F9300120FA08E9303120FA09F9303120FA0E5BD
:101FA3009303120FA013A203120FA044CD02120F2A
:101FB300A06ECD02120FA08ACD02120FA09DCD02FA
:101FC300120FA0B3CD02120FA010CE02120FA04326
:101FD300CE02120FA07FD202120FA0A5D302120FBE
:101FE300A0D8D302120FA024D402120FA050D502FE
:101FF300120FA078D502120FA08DD502120FA09D4B
:10200300D502120FA0E1D502120FA042D602120F81
:10201300A052D602120FA0A29C03120FA0BD9C03D4
:10202300120FA0E69C03120FA0009D03120FA02520
:102033009D03120FA0449D03120FA05C9D03120F7A
:10204300A08A9D03120FA0A49D03120FA0F3A20365
:10205300120FA077FB02120FA07EFB02120FA08AC1
:10206300FC02120FA0BAFC02120FA0E0FC02120F36
:10207300A003FD02120FA025FD02120FA05FFD02B7
:10208300120FA0C5FD02120FA0FEFD02120FA04AFF
:10209300FE02120FA077FE02120FA097FE02120F8C
:1020A300A0B49903120FA0C69903120FA0B19A030B
:1020B300120FA03E9B03120FA0E2FE01120FA054C9
:1020C300FF01120FA092FF01120FA0D3FF01120F05
:1020D300A0DC8603120FA0F88603120FA047870324
:1020E300120FA0638703120FA0948703120FA0A4FB
:1020F3008703120FA0908803120FA09A8803120F70
:10210300A0A78803120FA0B78903120FA0CB8903DE
:10211300120FA0D48903120FA039F302120FA07E6D
:10212300F702120FA083F702120FA0A9A303120F45
:10213300A05AA003120FA084A003120FA073A3033D
:10214300120FA001A403120FA04BA403120FA000AF
:102153008002120FA01E8502120FA0A1AF01120F61
:10216300A004AF01120FA0F7AE01120FA005AC013E
:10217300120FA057A901120FA02BA801120FA07FC5
:10218300A701120FA0D0A501120FA08BA301120F5C
:10219300A012A301120FA062E001120FA0BEDF0183
:1021A300120FA0B9A201120FA04DA201120FA03469
:1021B300DF01120FA0D3DE01120FA024A201120F20
:1021C300A017A001120FA0E39F01120FA0B09F015F
:1021D300120FA0949F01120FA0BA9E01120FA072BA
:1021E3009E01120FA0A79C01120FA0279C01120FA2
:1021F300A0249C01120FA02F9B01120FA0FD9A0196
:10220300120FA03A9A01120FA0659801120FA0F6BF
:102213009701120FA0C89701120FA0C59701120FC3
:10222300A0B29701120FA04A9701120FA03997018C
:10223300120FA01A9601120FA081DE01120FA06FD8
:10224300DE01120FA0F3B501120FA0D5B501120FD5
:10225300A09DB401120FA0E49501120FA0A7950150
:10226300120FA0489501120FA0FAB301120FA01785
:102273009501120FA0D29101120FA0C39001120F6A
:10228300A0529001120FA0A7B201120FA02784033E
:10229300120FA0179001120FA0E28F01120FA0D608
:1022A3008F01120FA0368F01120FA07D8E01120F26
:1022B300A0508C01120FA0DC8901120FA09A890192
:1022C300120FA0658801120FA01A8801120FA04CEB
:1022D3008701120FA0A38601120FA03F8601120FE0
:1022E300A0798601120FA058B001120FA0D4660086
:1022F30000000080FBE47300000000000000000009
:10230300000000000000001010101010100000303A
:1023130030000000142850000000000000000000FE
:10232300000000002828FC284850FC505000000002
:10233300001038545430181454543810000000005E
:1023430044A8A8B0541A2A2A4400000000002050D0
:102353005060ACA898927C000000606020C0000030
:102363000000000000000000040808101010101006
:102373001008080400000040201008040810204042
:102383000000000000001010D63838D610100000EE
:1023930000000000101010FE1010100000000000DC
:1023A300000000000000000000606020C00000008A
:1023B300000000FC0000000000000000000000001E
:1023C300000000000060600000000204040408082C
:1023D30010102020204000000000304884848484B2
:1023E300844830000000000010701010101010100E
:1023F3007C000000000038444404081020447C00A2
:102403000000000038444418040444443800000029
:1024130000080818284848887C081C0000000000B1
:102423007C404078440444443800000000003C44AD
:1024330080B8C48484847800000000007C44480889
:102443001010101010000000000078848448788475
:102453008484780000000000788484848C74048869
:10246300F0000000000000003030000000303000B9
:102473000000000000000010000000001010200009
:102483000004081020402010080400000000000091
:102493000000FC0000FC00000000000000402010D1
:1024A3000804081020400000000000788484840899
:1024B3001010003030000000000038449AAAAAAA85
:1024C300B4423C000000000010102828283844447F
:1024D300EE0000000000F844447844444444F8000B
:1024E300000000003C448480808080443800000069
:1024F3000000F048444444444448F0000000000015
:10250300FC44404878484044FC0000000000FC4282
:10251300404878484040E000000000003C4484808C
:10252300808E8444380000000000EE4444447C4420
:102533004444EE00000000007C1010101010101036
:102543007C00000000007C10101010101010109080
:10255300E0000000EE44485070484844EE0000009C
:102563000000E040404040404044FC0000000000C8
:10257300EE6C6C6C54545454D60000000000EE64AE
:10258300645454544C4CE4000000000030488484EC
:1025930084848448300000000000F84444447840B8
:1025A3004040E00000000000304884848484B44844
:1025B300380C00000000F844447850484844E600D2
:1025C300000000003C44402018040444780000004C
:1025D3000000FE92101010101010380000000000D0
:1025E300EE44444444444444380000000000EE44B4
:1025F300442828282810100000000000D654545402
:10260300546C2828280000000000EE4428281028D5
:102613002844EE0000000000EE442828101010109B
:102623003800000000007C88081020204044FC0093
:1026330000001C101010101010101010101C0000BF
:102643007010101010101010101010700000701087
:10265300101010101010101010700000102800003F
:102663000000000000000000000000000000000067
:10267300000000000000FE00606020C000000000B9
:10268300000000000000000000000038441C244447
:102693003E0000000000C0404078444444447800B9
:1026A300000000000000003C4440404438000000AB
:1026B30000000C04043C444444443E000000000079
:1026C30000000038447C40443800000000001C2413
:1026D30020F8202020207800000000000000003CAB
:1026E30048483040784438000000C04040586444B3
:1026F3004444EE00000000001000007010101010A1
:102703007C000000000008000038080808080808DA
:1027130070000000C040405C48507048EC0000006E
:10272300000070101010101010107C00000000004A
:10273300000000F854545454D60000000000000078
:1027430000D864444444EE00000000000000003858
:1027530044444444380000000000000000F84444AE
:1027630044447840E00000000000003C44444444FA
:102773003C040E000000000000EC30202020F80094
:10278300000000000000003C4430084478000000D2
:1027930000000010107C101010100C00000000004E
:1027A300000000CC444444443E000000000000000C
:1027B30000EE44282828100000000000000000D686
:1027C30054545428280000000000000000DC483066
:1027D3003048EC0000000000000000EE4428281000
:1027E3001020E00000000000007C481010247C0052
:1027F30000101010101010101010101010101000F6
:102803000136360101000102010001030100010448
:1028130001060605020000070100340801000F0944
:102823000401010D0100FF0E08000017020000194A
:102833000100FF1A0100011B0100FE1C0100081D1D
:102843000200001F010001200100012102000023FA
:1028530001000F24020000260100012701000828BF
:102863000200FF2A0100072B0102402C0100002D6A
:102873000100012E0100012F0100FF30010B1C316B
:102883000800003A0100083B01000F2F010000017E
:102893000171010101010111010101310101010175
:1028A300018001100161013B001400630173017297
:1028B30001620143010001130106013D01350004DA
:1028C30001120100010001000100010401040133B0
:1028D3000133013C0144013201360000010001656E
:1028E300010001350081010001050182018301001E
:1028F300010302710230016002110270020102023F
:102903000202028002100261023A00410063027374
:102913000272026202430200021302380000020044
:102923000204021202000200020002000204020476
:1029330002370037003C0244020002390000020063
:10294300026502000235028102000205028202834F
:1029530002000203007100300160001100700031B9
:102963000220035004800010006100000014006383
:1029730000730072006200430000001300060000B1
:10298300000000040012000000000000000000042A
:10299300000400370037003C024400000000000040
:1029A3000000006500000035008100000005000004
:1029B300008300000001037103010301030103010C
:1029C30003010322030203010310030003000300B6
:1029D3000300030003000300034203000324030670
:1029E3000300030003040312032503230325032326
:1029F3000304030403000300030003440300030070
:102A0300032303000365032100350381030003054A
:102A130003000300030003C9EEDBDACAD0B0B2C17E
:102A2300AAB5C2BFC6BCBCD3C3BBA7B5C7C2BCD5BE
:102A3300CABAC5C3DCC2EBC8B7B6A8C8A1CFFBD717
:102A4300A8D2B5D7A8D7A2CEDECFDFCDA8D1B6B353
:102A5300CFD0C5C1A2D7E3B4B4D0C2D6C2D4B6C70F
:102A6300BFB4F3D4ADA3BA003600010006000000E2
:102A73000F0000000000000000000000000003FF42
:102A8300FF00000403FFFF0000FFFF0FF401000538
:102A9300C4040320000100030B0000000000000039
:102AA3000003010F01002D1C0200D91B0300DF1BD3
:102AB3000400E51B0500EB1B0600F71BFFFF0000EE
:102AC30003EAF5E5D5D5C5B5A595958585757565F0
:102AD300655555454535352525151505A516D516D1
:102AE300AB16B116CF16C316BD16DB16E116E716E5
:102AF300F316B7169F1699160A7114023B14054D67
:102B0300140741140C1D140D2F14FF000000160FA1
:102B130000000B150B020002220F320000068F1774
:102B2300A117A7176F16AD1769167516EF170D18AE
:102B33001318F5170118FB170001191618161615A7
:102B43002303000C0E020B040B0A0708000F0003FB
:102B53004948424D181725050200383C3E363B3B99
:102B6300352B432C303016181920231A1C1E3030F5
:102B73003017181921301B1D1F30E317B317B9176E
:102B8300C517BF17C916ED160718F916FF16020465
:102B93000201010101090200000000000000BE045F
:102BA3000AE803040015000E002800080C0C0A03B1
:102BB3000908FF1E1E0F04040574F7120A69E99041
:102BC30003B0F0900365E4F01220A19003B5E4F0A4
:102BD300A3F09003B1F0A3F01215A91220A790035C
:102BE30034E4F0A3F0902BB893FA79021221070290
:102BF300585274F2120A69EAFEEBFF54806069903E
:102C030003B0E0F91219698A088B09EA4509604F94
:102C13007C0080010CEC75F003A4F8A9F074FB2888
:102C2300F582742A39F583E493F4602CE493F885F0
:102C330008828B83E06870DCAA08EC75F003A4F8C3
:102C430074FC28F582742A39F583E493C0E0740197
:102C530093F583D0821222F8AA08AB0912195DEE0C
:102C6300FAEF6480FB022DC2EF5420601D1214CBD7
:102C73008A088B09EA4509600A12142FAA08AB09CE
:102C830012195DEEFAEF642080DAEEA2E0501A909A
:102C9300036AE0640F700B79001213F9E960031201
:102CA3002DC5EE6401FAEF80BB54207003022D9012
:102CB300750C001242978B09EA450970107C027D5E
:102CC300007A207B009003B0E0F9121A837C00792C
:102CD300047A007B001214A78A088B0980188508E0
:102CE30082850983A3A3A3A3A3A3A3A3A37401F02E
:102CF300850A08850B09E5084509606D7C007904A0
:102D0300AA08AB091214A78A0A8B0B750C01E508F4
:102D13002404F8E50912403B24FFF0A3E034FF123A
:102D2300632E70CC850882850983A3A3A3A3A3A3E1
:102D3300A3A3A3A3E0640170A5850882850983A3E7
:102D4300A3A3A3A3A3E054047094850882850983F5
:102D5300A3A3A3A3A3A3A3A3A37406F07AB785088D
:102D630082850983122EF180871214777C00790102
:102D73007A007B001214A78B09EA45097009E50C58
:102D830070057A201251F1EE6420022CA8EF540250
:102D9300600B1215A3EEFAEF6402022C67EF5404E2
:102DA30060191253881252A8790190036312560CCA
:102DB30012133FEEFAEF6404022C677A007B0002E1
:102DC3002FF8900F0D12368F12141122C082C08378
:102DD30074EA121069851882851983AA82AB8379F4
:102DE3004B1220DD740812128A7402F07409121255
:102DF3008AAA82AB8379501220DD741312128AE4FB
:102E03001257DB1220FB74160247B574F7120A69D6
:102E130074E1121069EAFEEBFFEE4F60338518820E
:102E2300851983AC82AD831214EF740612128AE003
:102E3300601E741712128AE0FD740112128AE0FCFC
:102E4300EEFAEFFB790012224BE9600479A48002C9
:102E5300790002584D74F6120A69EAFEEBFF8E827E
:102E63008F83A3A3A3A3A3A3E05440601B125CCA54
:102E7300122FBF60067AFF7BFF801A8E828F831228
:102E83004441FAA3E0FB800312151374FE6A700336
:102E930074FF6B6041125CCA125235121567E98EDA
:102EA300828F836006122EEAE48005122EEA7401F3
:102EB300F07CFF7D138E828F8312560C122101E961
:102EC300F5087015EE4F60097901EEFAEFFB121465
:102ED30083A9080252667508CDAA088E828F8312D1
:102EE3002EF1E960DF80EAE0240D12491022E0248C
:102EF3000C124910E0F912140B2274F6120A69E954
:102F0300FEEAFF7A0F7B00121957EA4B60198A8297
:102F13008B83740CF0EEA3A3F0EF8A828B83A3F070
:102F23001252917900802FEEF91214AD8A088B09A1
:102F3300A808A909E849601C88828983A3A3A3A3DD
:102F4300A3A3A3A3A37406125F55E0F91213C3EE60
:102F5300F91214897910025266C082C08390036A01
:102F6300E0640F7014EA4B6010900365E06408603E
:102F730005E064047003122F7F0247DFEAFCEBFDD8
:102F83007A017B009003B0E0F9121A7D22C082C05F
:102F9300837900EA241DF582EB12443E24FD600B85
:102FA30014600824FD600424FD7001090247DF8ECC
:102FB300828F83A3A3A3A3A3A3A3A3A3122FC32299
:102FC300124486FB121567E9228E828F83A3A3A383
:102FD300A3A3A3A3A3A3122FC36402228E828F836E
:102FE300A3A3A3A3A3A3A3A3A31247D6900356E02B
:102FF3006822120FEB7F06020D6274F4120A6974E1
:10300300FD1210698A088B098A828B83A3A3E0F9D6
:103013001214AD8A0A8B0BAE0AAF0BEE4F7003028C
:103023003104850882850983A3E064F16030850853
:1030330082850983A3E064CD6024850882850983A2
:10304300A3E0641A6018850882850983A3E064E914
:10305300600C850882850983A3E064E17008790028
:10306300121483E9706C850882850983A3E0C0E0AC
:10307300740212128AD0E01247BAEEF0A3EF123AAA
:10308300E5851882851983AA82AB837005121327FD
:10309300800312154F740212128AE064E970338EB2
:1030A300828F83123110750A01780A120FC1750AD3
:1030B300E9780A120FC1E508240CF582E5091235F7
:1030C300D7123AC2FCA3E0FD8A828B83123ADC1248
:1030D3000FEB8E828F83A3A3A3A3A3A3A3A3A3E036
:1030E300640270108E828F83A3A3A3A3A3A3A3A3BD
:1030F300A37406F0850882850983A3A3E0F912145B
:1031030089121477900F11122DC8023694E0F8A398
:10311300E0F9E8FAE9FB2274F4120A69EAFEEBFF2C
:103123007508008E828F83A3A3A3A3A3E0604275D7
:1031330008088E828F83A3A3A3A3A3A3A3A31246EA
:10314300E98B0BEA450B601075082C8E828F83A3E5
:10315300A3A3A3A3E0D2E0F08E828F83A3A3A3A3B0
:10316300A3E05403640160030232034308110232F3
:1031730003EE24181236A16033EE241A1236A1701E
:103183000F122FDF7003A3E069707575082280703A
:10319300EE241BF582EF123208241AF582EF123A5D
:1031A300EDEE2419125CFE1213B18054122FCC7071
:1031B30003750801122FDF7003A3E0697006E508A9
:1031C300D2E1F508E50860158E828F83A3A3E07032
:1031D30006E508D2E58004E508D2E6F508122FB229
:1031E30064017006E508D2E0F5088E828F83A3A3FD
:1031F300E0600D12321664016006E508C2E0F508CE
:10320300A90802369912442C12320F22E0FCA3E0E3
:10321300FDEE2212442612445EF9121555E922C02E
:1032230082C08379018A828B83A3A3E0C394024083
:1032330001198A828B83A3A3A3A3E0C39402400250
:1032430079008A828B83A3A3A3A3A3A3A3A3A3E04D
:1032530064F87003A3E0F460458A828B83A3A3A37D
:10326300A3A3A3A3A3A3E064F97003A3E0F4602ED4
:103273008A828B83A3A3A3A3A3A3A3A3A3E064FA38
:103283007003A3E0F460178A828B83A3A3A3A3A391
:10329300A3A3A3A3E064FB7003A3E0F4700279008B
:1032A3008A828B83A3A3A3E0F8900353E0686002B0
:1032B30079000247DF74F0120A6974DE121069EABA
:1032C300FEEBFF8E828F83A3A3A3A3E0600E900F78
:1032D3000F12525D6006900F0F122DC87403121265
:1032E3008AAC82AD838E828F83A3A3A31252DF1293
:1032F3005B18E9600F740312128AAA82AB8312145B
:1033030029E9700879011220B30235CCEE241B128F
:103313004431741012128A1252A8740912128AE0EC
:103323006021741A12128AE0FD740412128AE0FCFE
:103333008E828F8312560A790112224BE960047937
:103343000280C3740312128AAA82AB83121423E984
:10335300F50A740912128AE0702A90034DE0602482
:103363007422550A6422601C7442550A644270CF69
:10337300742012128A1235EA600A742012128A1219
:1033830035E370BBE9A2E65041740312128AAA82A4
:10339300AB83121417E97003023307742012128AE5
:1033A3001244416403700F742012128AA312524F05
:1033B300A3E0640D6014740312128AAA82AB831211
:1033C3001579E9640170030235CCEE242C1235D44F
:1033D3001238F87003A3E069701C750800780812AE
:1033E3000FC17808120FC1EE242E125CFE1235F0C5
:1033F300123ADC120FEB740912128AE070030234E2
:10340300A91235F012560C1215CD8A088B09EA451C
:10341300097003023546740412128AE0F88E828F13
:1034230083A3A3E028F8A3E03400F9E8240D1235C0
:10343300DB8A828B83A3A3A3E068601CE88A828B68
:1034430083A3A3A3F090862812125F8508828509BF
:1034530083A3A3A3A31212537904E912128A125A63
:10346300F52AF8A3E034008882F583A3AA82AB830C
:103473001219458A0C8B0D8C0E8D0F8508828509D8
:1034830083A3A3A3A3780C120F7840030235CC9037
:103493008620780C121110850882850983A3A3A3C3
:1034A300A3780C1211FB900365E064046008E064E8
:1034B3000960030235CCE50AA2E54003023584EE38
:1034C300242E1236A1851882851983F0EE242F123B
:1034D30036A1C0E0740112128AD0E0F0EE2430125B
:1034E30036A1C0E0740212128AD0E0F074141212F2
:1034F3008AE064017027740E12128A124437EE2494
:10350300121236A1687003A3E0697011740C1212D1
:103513008A122FD97007741412128AE4F0EE24244D
:103523001235D4120E18740412128AAC82AD83744D
:103533000712128AAA82AB8312132D7404120FEBA3
:103543000235CC9003AAE0640160030234A974201D
:1035530012128A1235EA7009E50AA2E65003023410
:10356300A9741012128AE0F47003A3E0F4605AEE17
:10357300FCEFFD740312128AAA82AB831214358006
:1035830048A2E65044742012128A12561B701A7411
:103593001A12128AE064027030740312128AAA8229
:1035A300AB8379001215438020742012128A1235DE
:1035B300E37016741A12128AE06404700C74031216
:1035C300128AAA82AB8312153D74220259C7EE24D4
:1035D3000BF582EF12442C22F582E91252C1F82234
:1035E300125CDCE064072212445E640622EE242AA5
:1035F30012442912320F24121244292274F4120A9B
:1036030069EAFEEBFF8C088D099005F3E0600F1269
:103613002FDF7003A3E069700512139F804F7900B9
:103623001255FF1213CF8A828B83E582458360355F
:10363300A3A3A3A3A3A3E05418602AE508241BF5BE
:1036430082E5091235D7120E1C123CD51235D7125A
:103653000E1CEE2418125CFE1236721213E174046F
:10366300120FEB800879001236721213A580278E91
:10367300828F83A3A3A3A3A3A3A3A3A312320F2481
:103683000BF582EF12368B223400F583124486FB4E
:10369300227403120FEB7F04020D62EE2417F582EE
:1036A300EF1252C12274F7120A6974F7121069EA11
:1036B300FEEBFF900365E06403600DE064016008C6
:1036C300E0640960030237728E828F83A3E0707E09
:1036D3007C007D007A027B001220ADEE2402FAEF1B
:1036E3001240421244379003561252A879531220C3
:1036F300E37900123777E064096003123B0A851807
:1037030082851983740112527E9003657404F074E8
:103713000112128AAA82AB83794A1220DD74011244
:10372300128AAC82AD837A5B7B031220CB90035663
:10373300125B0E7A03123B14900350E0A2E3500491
:10374300D2F08002C2F012526B122DC5801E8E82FF
:103753008F83A3AE82AF83FC7D007A037B1012209C
:10376300AD8E828F83E0F9123777E4F012145F7421
:103773000902584F90036312368F12133F9003656B
:1037830022C082C08390033412525D701F90036580
:10379300E014600924FC600A14600C800F90033C61
:1037A3008032900338802D90033A8028E8496008DE
:1037B300900335123ABC700C8A828B83A3E0F91212
:1037C3001333801B900335123D71700512159780DA
:1037D3000E9003D212525D600612524F1222F8026B
:1037E30047DF74F4120A6974FB1210698A088B09A3
:1037F3007A0F7B001219578A0A8B0BAE0AAF0BEEB6
:103803004F70030238EC8E828F831257D97950128E
:1038130020DD850882850983A3E060030238D49004
:103823000363E0F47003A3E0F46034900363E064A3
:10383300FE7003A3E0F4602785188285198312388C
:10384300F87003A3E0696017850882850983A37470
:10385300EA123AF27A637B0379501220E38072858D
:103863001882851983125CBD1252A87A567B03799C
:10387300531220DD9003561252D91252A87A597B63
:1038830003794B1220DD7A587B0379E11220DD9016
:10389300036AE0C3940F5021900358E0C0E0740220
:1038A30012128AD0E0F0740412128A7401F0041226
:1038B300128AAA82AB831220F5750A00780A120FC6
:1038C300C1780A120FC1900F37E0F9123AD3120FE1
:1038D300EB8508828509831238F1A3F090036574A0
:1038E30003F0EEFAEFFB1252917405023696A3E051
:1038F3008E828F8322125CC1E068221249172274E0
:10390300F5120A6974D81210698A088B098A828BA6
:1039130083A3A3A3124463741512128AAC82AD83EA
:103923008A828B83A3A3A3A3A3A3A3A3123AC2FA5A
:10393300A3E0FB121465741512128AE0706B8508FC
:1039430082850983A3A3A3A3A3A3A3A3E0C3940B87
:1039530040578E828F83A3A3A3A3A3A3A3A3E0644F
:10396300027046EE240B1236A1F4703D900365E01D
:103973006402603AE06406603590033412525D607D
:1039830005123ABC604F900365E064086005E0648B
:10399300047016741712128AE0F9741C12128AAC9E
:1039A30082AD831255FF12146B74280261DB9003FE
:1039B3003412525D701F7508007808120FC1780821
:1039C300120FC1EE24101235D4125D1612412A12C1
:1039D3003ADC120FEB8E828F8312557B1240541206
:1039E3004437740212128A1252A8EE240D1236A121
:1039F300C0E0740412128AD0E0123AE5F508A3E09D
:103A0300F509740F7808121219740512128AE50861
:103A1300F0741912128AE0C0E0740612128AD0E020
:103A2300F0741B12128AE0C0E0740712128AD0E00D
:103A3300F0741612128AE0C0E0740912128AD0E000
:103A4300F0741712128AE0C0E0740812128AD0E0F0
:103A5300F0EE24101236A1C0E0740A12128AD0E0EC
:103A6300F0741A12128AE0C0E0740B12128AD0E0CA
:103A7300F0742712128AE0C0E0740C12128AD0E0AC
:103A8300F0741C12128AA982AA8389088A09750A0A
:103A9300007808120FB97C087D00741012128AAAEC
:103AA30082AB83124E0C120FEB851882851983AA01
:103AB30082AB831213390239AC123D77640122E0E1
:103AC300F98A828B83A3A3A3A3A3A3A3A3A3E02223
:103AD300900363125B1290035912368F12152574EB
:103AE3000222F0EE240B1252BE221252C1FA22F02D
:103AF3007A567B037953123AFD221220E37A597BDB
:103B030003794B1220E32290036312368F1215C7F9
:103B1300227B001220AD900359125B127A047B00C2
:103B23001220AD22F0125D212274F2120A6974F898
:103B3300121069EAFEEBFF8C0A8D0B890C85188243
:103B4300851983AC82AD837583857582CE74081223
:103B53000F38F50DEEFCEFFD851882851983AA82D7
:103B6300AB831254DC7003750D019003B1803BEEFF
:103B7300FCEFFDE508240BFAE50934001254DB6081
:103B83001E850882850983A3A3E0650C701185084F
:103B930082850983E0650A7004A3E0650B6038E55C
:103BA300082414F582E5091235D712404CE508457F
:103BB300096024E50DA2E040B6850882850983E00B
:103BC300650A7004A3E0650B70D5850882850983B7
:103BD300A3A3E0650C70C8AA08AB097408022FF50B
:103BE300C082C0839003B10247DC74F7120A699064
:103BF30003B11244868012EA2414F582EB1235D7FE
:103C03001244631219D5EEFAEFFBEA4B70E9900305
:103C1300B1E4F0A3F00258527F07020D6274F1126F
:103C23000A69EAFEEBFF890A8C088D098E828F836D
:103C3300E08C828D831246F3AE82AF83E0124ECCCA
:103C4300124E3DC4124ECC123CDEE054038C828DE6
:103C530083124E3BA2E2E4338C828D83124E3A13DD
:103C63001313541F124ECC124E39A2E7E4338C8245
:103C73008D83A3A3A3A3123CDE8E0C8F0D750E00C0
:103C8300780C120FB97C087D00E5082407125A81CD
:103C9300120FEB125AEC8E0C8F0D780C120FB97CAD
:103CA300037D00E508240F125A81120FEBE50AC3C6
:103CB300940F40148E828F83A3A3A3E0C0E0123C31
:103CC300D51235D7D0E08006123CD5125F49F002F9
:103CD3003C1BE5082412F582E50922A3A31246F74B
:103CE3000EAF832274F4120A6974F9121069EAFEA2
:103CF300EBFF890890033412525D600E123D717020
:103D030009EEFAEFFB121591805F900363E06E708A
:103D130003A3E06F70537401650860097A777B032E
:103D23001254DC70447A007B0212429B8B0BEA45EF
:103D33000B703690036612125F8518828519831201
:103D4300125390036CE0C0E0740412128AD0E0F0C6
:103D5300740512128A7401F0740612128A1257D96A
:103D6300121303E9609B1213097407023696123D7E
:103D730077640222125CDDA3A3A3A3A3A3E02274AE
:103D8300F5120A698A088B098A828B83A3AE82AFF4
:103D930083E0F91213578E828F83E064EB600C8506
:103DA3000882850983A3E064E17009850882850997
:103DB30083A3E4F0122DC5750A01780A120FC18599
:103DC3000882850983A3E0F5087808120FC17900FA
:103DD300123AD3120FEB1214770261DEEAF0A3EB6F
:103DE300F00247DF74F6120A699003B4E0701B7C9B
:103DF3000079017A007B001214A7EA4B600C8A82D7
:103E03008B8312525D6003121405025266C082C096
:103E130083124283401079FF1214A1E9F8902BAF6B
:103E2300E493C39850047901800279000247DF7458
:103E3300F0120A698A088B09890B750C008A828B38
:103E430083A3A3A3A3A3A3A3A3E0F91214AD8A0E90
:103E53008B0FAE0EAF0F750A01EE4F6003023F10DA
:103E6300850882850983A3A3A3A3A3A3125B0E855D
:103E73000882850983A3A3A3A3A3A3A3124C0C12B3
:103E8300560C1214958A0C8B0DAE0CAF0DEE4F70C1
:103E9300030240338E828F83A3A3A3A3E4F0A3F092
:103EA300E508240B12403FE0C0E01235D1D0E0F02A
:103EB30012156DEE240CF582EF125231E508240E33
:103EC300F582E509124434EE240EF582EF1252A571
:103ED300750C01EE2406F8EF12403B547FF0A3E08B
:103EE30054FC125D73E054046003023F96900F1577
:103EF300124BFD740778081211828E828F83A3A35D
:103F0300A3A3A3A3E04508F0A3E04509F08E828FA5
:103F130083A3A3A3A312404A74077808121219E5D6
:103F2300085407F508E50B607A8E828F83A3A3A359
:103F3300A3A3A3A3A3A37402124E3E240D12490C00
:103F4300E0A2E2500B9003511252D9A3A31252A83C
:103F5300E5087003024008EE2406F8EF3400F9E8A0
:103F6300FAE9FB8A828B83E0547FFCA3E054FCFDD7
:103F7300E50824FFF508E434FFF50974077808120F
:103F83001182EC4508F8ED4509F98A828B831252B8
:103F9300A880728E828F83A3A3A3A3A3A3E04480EC
:103FA300023F0FE5087005750A0080598E828F83E2
:103FB300A3A3A3A3A3A3E054206012121951EA54AC
:103FC3007F245F8E828F83A3A3A3A380238E828FFC
:103FD30083A3A3A3A3A3A3E05410600A121951EA75
:103FE300540F240A80DD8E828F83A3A3A3A37401BD
:103FF300F0A3E412405474041242928B09EA450977
:104003007003125224E50CA2E050288E828F83A302
:10401300A3A3A312583FF9EEFAEFFB12149BE96036
:1040230012125253600312441CEEFAEFFB1219D51D
:10403300750A00A90A0259CA12539C22FAE50934E7
:1040430000FB8A828B8322A3A3E0F508A3E0F50992
:104053002212405822125A9DA3A3A3A3A32274F4AD
:10406300120A6974F71210697E001214ADEA4B70DC
:10407300030241238A828B83A3A3A3A3A3A3A3A3A2
:10408300A3E0640660030241238A828B83A3A3A374
:10409300A3A3A3A3E0FF8A828B8312491FE0C0E09E
:1040A300740812128AD0E01244571254E21252A832
:1040B3001214BFEF54086066851882851983125B5A
:1040C3000E7A007B0012148F8B0BEA450B704F9016
:1040D300036312454712210D7C007D007A007B00AB
:1040E30080288E828F83124441F47003A3E0F4602E
:1040F3002D90036312412A12560C121E01E9641A11
:10410300601C7C007D00EEFAEFFB12148F8A0A8B91
:104113000BAE0AAF0BEE4F70C979001221137E016B
:10412300EEF9740902369612412E22E0FCA3E0FD5B
:104133008E828F8322C082C083EA4B70059003B5C1
:1041430080068A828B83A3A312434760258A828BCE
:1041530083A3A3A3A3A3A3A3E0540860E5EC4D604A
:10416300158A828B831244416C7003A3E06D70D275
:1041730080047A007B000247DF74F2120A69EAFEC8
:10418300EBFF890A8C088D097A107B001219CFEA9C
:104193004B603F8A828B83A3A3A3A3A3A3A3A3A35D
:1041A300E4124445A3E50A125CE3A31241DF8A82C9
:1041B3008B83A3A3A3A3E4F0A3124451A3F0125B44
:1041C30077EA240CF582EB1246E31241D8A3A3F05D
:1041D300A3F0022FF8A3F08A828B8322A3A3E5081E
:1041E300F0A3E509F02274F4120A69EAFEEBFF89F1
:1041F300088C0A8D0BEE4F605574016508701479B5
:10420300011214A1E9F8902BB4E493C398500F79E9
:1042130011806A74046508702F12428340F18E8204
:104223008F83A3A3A3A3A3A3A3A3A3E5081246F386
:10423300A31262688E828F83A3A3E4F0A3F090039A
:10424300B512525D6021800D7402650860D079C19A
:10425300802BE0F8A31252D2A3A31243478882898A
:1042630083A3A370ED80039003B5EEF0A3EF124296
:10427300928B0BEA450B7003125224790002369994
:1042830079041214A1E9F8902BBBE493C39822F0AC
:10429300124297227A207B009003B0E0F9121A8F22
:1042A30022C082C083E9F879009003B5801D8A8219
:1042B3008B83A3A3A3A3A3A3A3A3A3E06860057411
:1042C300FF687001098A828B83A3A312434770DEC0
:1042D3000247DF74F7120A69EA4B70059003B58051
:1042E300068A828B83A3A312434760248A828B832B
:1042F300A3A3A3A3A3A3A3A3A3E06970E4EC601403
:104303008A828B83E0240D125AFFA2E240D38004F9
:104313007A007B00025852C082C0839003B58006A6
:104323008A828B83A3A312434760128A828B83A35F
:10433300A3A3A3A3A3A3A3E06970E580047A007BEE
:10434300000247DF12368FEA4B2274F2120A698A9F
:104353000A8B0B8C0C8D0D750800750900EA450B53
:10436300602E9003B580068E828F83A3A312439A97
:10437300601EAC0CAD0DEEFAEFFB850A82850B8354
:104383001222F8E9640170DFEEF8EFF98808890971
:10439300AA08AB09022FF8E0FEA3E0FFEE4F227458
:1043A300F7120A699003B51244377C007D00800D33
:1043B300E8FCE9FD88828983A3A3124437E84960B6
:1043C30030EA687002EB6970E79003B512560CE8A7
:1043D3006A7002E96B88828983A3A3700812443749
:1043E3009003B580091244378C828D83A3A31252A4
:1043F300A802585274F7120A69EAFEEBFFEE4F6007
:10440300151214B9124469125253600312441CEE7C
:10441300FAEFFB1219D5025852EE240C124429125A
:10442300447E22EE241DF582EF3400F58322F582CB
:10443300EF12442C1247D622F582EF12442C124479
:104443005E2212444922125CEBA3A3A3A3221244CB
:1044530049A3A3221241D912445E22125CD6E02260
:10446300E0FEA3E0FF228E828F83E0241C1249101A
:1044730012447E8E828F8312447E22124486FB1264
:1044830019D522E0FAA3E022C082C083EAFCEBFD47
:10449300EC4D700479058044EC24FBF582ED34FF88
:1044A30012525B70071244E2E0F4600512195D805A
:1044B300E39003B0E0C0E01244E2D0E0F0902BB10F
:1044C300E493F97AB77B03121987E96401700B7AD5
:1044D300007B201252287900800279040247DFEC26
:1044E30024FFF582ED34FFF5832274F4120A69A2E6
:1044F300AFE433F508C2AF9003B712439A6038EEC6
:1045030024FBF582EF34FF12525B7A007B20900389
:10451300B0600512522B8005E0F9121993E4F50AF5
:10452300F50B780A120FBDEEFCEFFD7AB77B031291
:1045330019817402120FEBE508A2E092AFEEFAEFD5
:10454300FB023699125B12851882851983AA82AB06
:10455300832274F2120A6974FC121069EAFEEBFFFB
:10456300750AFE750BFF12147DE960057911024689
:10457300D8EE24151236A16037900F29E0C43354C6
:10458300E0F8E0333354FC48C0E0EE24151235D490
:10459300D0E01246F31246E98B09EA45096011752A
:1045A3000AFFEE240F1236A144041252B6D2E0F0F1
:1045B3008E828F83122FBD6006EE24121246E0EE28
:1045C30024131236A17010902BB7E493C0E0EE24AD
:1045D300131235D4D0E0F08E828F83E0A2E750042B
:1045E3005403801CEE24141236A17015900342E08C
:1045F300C0E0EE24141235D4D0E0F0900342E0047E
:10460300F0EE24111236A1640170169005EAE06001
:104613000D90034DE0700A8E828F83E07003124683
:10462300DD8E828F83E064017013EE240B12443B12
:1046330064027009EE240F1236A14440F0851882FB
:10464300851983AC82AD83EEFAEFFB1214E38A087B
:104653008B0974FE650A700374FFF470098E828FF0
:1046630083A3A3125A8DEA450960668E828F83E085
:10467300C0E0740112128AD0E0F0740212128A129E
:104683005B7B740112128A85820C85830D780C1270
:104693000FBDEE240F1235D4120E1CEE240E12366B
:1046A300A1F50C780C120FC1900356120E1C74075F
:1046B30012128AE0F9AC0AAD0B1214DD7407120F63
:1046C300EBE9FE74106E700BAA08AB091219D580C2
:1046D300027E10EEF97404022FF5EE2411F582EF39
:1046E30012442CE4F022A312368F79FF12215B22AD
:1046F3001246F722F08E828F83A322C082C0837476
:10470300DE1210698A828B83A3A3A3A31244377496
:104713000E12128AE8F0A3E91247CD740C12128A22
:104723001247C6240DF582EB1236A4C0E0741A12A8
:10473300128AD0E0F01259DAEB12443474201212C8
:104743008A1247C62415F582EB1236A4C0E074081A
:1047530012128AD0E0F0EA241CF582EB124434747E
:104763001212128A1247C62411F582EB1236A4C024
:10477300E0740912128AD0E01247BA74FFF0740190
:1047830012128A74FFF0740212128A74FFF0908678
:1047930028120E18740412128AAC82AD83740712A5
:1047A300128AAA82AB8312132D7404120FEB7900C1
:1047B3007422120FEB80251247BE22F085188285E2
:1047C300198322E8F0A3E9F0EA221241D9A31247A0
:1047D300D522A3E0F8A3E0F92212560CD083D082AD
:1047E300020F9D74EC120A6974EE1210698A128B1F
:1047F30013ECFEEDFF8909742612128A125A8D7486
:104803002812128AE0F510742912128A12490174CF
:104813002B12128AE0F50EA3E0F50F7508107A1E2D
:104823007B001219CF740212128A125235740212CB
:10483300128A12525D70030248FA85188285198321
:10484300AA82AB83795012511012560C74021212C1
:104853008A12491FA3125235741012128A12626A05
:10486300740212128AE0240B12490C7402F0121221
:104873008A12491F7402F012128A125CCE125B7BF9
:10488300740212128A125621E509F0740212128A76
:10489300E0240C12490CE510F0740212128A12493A
:1048A30009E512F0A3E513F0740812128AE50CF07F
:1048B300A3E50DF0740A12128AE510F0850E8285C5
:1048C3000F83C082C083740D12128AAC82AD83D071
:1048D30083D0827403120F38F9740212128AAA82E7
:1048E300AB83121483E964017005750800800874B2
:1048F3000212128A124422A9087412025AA4E0F581
:104903000CA3E0F50D22E0241C12491022F8A3E0C9
:10491300124917223400F98882898322125614A37C
:10492300A3A3A3A32274EE120A69EAFEEBFF8C0889
:104933008D098E828F83A374081252F1E060088E72
:10494300828F83A37410F012369E60098E828F8348
:10495300A3E02408F0EE24151236A160088E828F9E
:1049630083A3E004F08E828F83A3A3A3A3A3A3E076
:1049730060198E828F83A3A3A3A3A3A3A3E0C3334E
:104983002402F88E828F83A3E028F0EE24111236DE
:10499300A16005750B0E8003750B008E828F83A3B8
:1049A300C082C083EE240D1236A1D083D082F8E0FA
:1049B30028250B8C828D83F0EE24111236A160051D
:1049C300124E1C28F0850882850983E0C394754044
:1049D30009750800750900024B0AE0FA7B00125CB6
:1049E300297003024B0AEEFAEFFB1214E9EA850879
:1049F30082850983125236EE2402F8EF1238FE1232
:104A03004C04124B46F0EE24040808EF1238FE1251
:104A13005046A3124B46A3A3F0EE2413124B2CF0E3
:104A2300EE2414124B2CA3F0750A08EE241612364A
:104A3300A16010EE2418125B0BE5082408125D0C2C
:104A4300750A1012369E6016EE241A125B0B850A45
:104A53000CE508250C125D0C7408250AF50A8E82F4
:104A63008F83A3A3A3A3A3A3E06059EE2407F510A8
:104A7300EF3400F511851082F583E0C0E0124B138B
:104A83001235D7D0E0124B36E0C0E0124B1312358B
:104A9300D7D0E0124B36A3124B1F120FB9851082E9
:104AA300851183E0C333FCE433FD850A0CE5082557
:104AB3000C125A81120FEB851082851183E0C333E8
:104AC300250AF50AEE24151236A1600BC0E0124B3D
:104AD300131235D7D0E0F01235D1124B1F120FB994
:104AE300EE240D1236A1FC7D00850B0A8E828F8386
:104AF300A3E0F8E50828F8E5093400F9E8250AFAFF
:104B0300E9125A84120FEBAA08AB097F0A020D625D
:104B1300850A0CE508250CF582E50922E0F50CA3CE
:104B2300E0F50D750E00780C22124429124B50A3A8
:104B3300A3A322F0050A8E828F83A3A3A3A3A3A317
:104B4300A3A322A3A3125D77A3124B502212504AB0
:104B5300A3A32274F6120A698A828B83E0FC900372
:104B630053124BFD74027808121182EC4508FCAD18
:104B730009EA2412124BF774067808121182EC45E5
:104B830008FCED4509FDEA2415F582EB1236A46015
:104B930004780180027800E4C8F9ED49FDEA2411A4
:104BA300F582EB1236A4F508880974097808121106
:104BB30082ED4509FDEA2416124BF7740B780812AF
:104BC3001182ED4509FDEA2417124BF7740C78089E
:104BD300121182ED4509FD8A828B83A3A3A3A3A3AC
:104BE300A3124BFD740A7808121182ECFAED450901
:104BF300FB025266F582EB12442CE0F508750900BE
:104C030022E085088285098322A3E0F9850882854D
:104C130009832274EE120A698A0A8B0BECFEEDFFFC
:104C2300750F01E9C3940850057900024E098E827D
:104C33008F83E9F012506FE96003750F0012505330
:104C43008E828F8312509DEE1259DBEF125092C069
:104C5300E0EE24111235D4D0E012508AC0E0EE24E5
:104C6300121235D4D0E01246F37408125A95A3A356
:104C7300A3E0601512503BEE2413F582EF1252A508
:104C83008E828F83A3E02408F08E828F83A3A3A355
:104C9300A3A3A3A3A3E060218E828F83A3858208AD
:104CA30085830912507EEE2415F582EF1252A585F5
:104CB3000882850983E02408F08E828F83A3A3A34F
:104CC300A3A3E0601A8E828F83A38582088583095C
:104CD3001250628E828F83A3A3A3A3A3124E2EEE40
:104CE30024191246E0EE241B1246E0A31252E9E017
:104CF3007003024D9DEE2419F8EF3400F98E828F74
:104D030083A3858208858309E0FAE50A2AF582E50B
:104D13000B1236A488828983124E2EFAE50A2AF5ED
:104D230082E50B1236A4C0E0EE241A1235D4D0E08B
:104D3300124E2E88828983E06059F8902BB0E49359
:104D4300C398500575110C8008EE24191236A1F58D
:104D5300118E828F83A3E0F8E50A28F50CE50B1288
:104D63004E12120FB9E511C333FCE433FD7ACB7B4A
:104D73000D124E0C120FEBEE241B1235D474CBF034
:104D8300A3740DF0E511C333F8850882850983E028
:104D9300288006EE2418125F46F08E828F83A3E0EC
:104DA300F88E828F83E0C3985003024C2CA3E0FA61
:104DB3008A08E50A2508F8E50B3400F9EE241DF509
:104DC30082EF1253B1124E3EC39AC0E0EE24171283
:104DD30035D4D0E01252AE602BEE2417F8EF340036
:104DE300F9880889098882F583E024F21253922412
:104DF3000EFAA3E03400FB88828983125235124EE7
:104E03001CC398F0A90F024B0E12193374032234FA
:104E130000F50D750E00780C2290034EE0F9122276
:104E230045E9F8850882850983E022F085088285B3
:104E33000983E004F022A3A3A3A3A3F08E828F83AC
:104E4300E02274F4120A698A088B09EA124ED3F03D
:104E5300EA1313543F124ECCA3A3A3F0EAC41313D3
:104E6300124ED3A3A3F0EB124EC5124EDD74097894
:104E73000A121219124EC3124EDC740A780A121265
:104E830019E50A5401C0E0EC2418F582ED1235D778
:104E9300D0E0124EE2740B780A121219124EC3A319
:104EA300124EDC740C780A121219124EC3A3A3A378
:104EB300A3A3A3A3A3F0740D78081212190232035B
:104EC300E50A54018C828D8322540F8C828D8322B8
:104ED30054038C828D83A3A322A3A3A3A3A3A3F030
:104EE3008A0A8B0B22C082C08379008A828B83A3B8
:104EF300A3A3A3A3A3E090034D600FE070228A82D3
:104F03008B83A3A3E07019098016E060138A828B58
:104F130083125603900356E06A7003A3E06B70E7B5
:104F23000247DF74F0120A698A0A8B0B890C8C081A
:104F33008D0912506F1250538508828509831250D0
:104F43009DE5081259DBE509125092C0E0E50824FB
:104F530011F582E5091235D7D0E012508AC0E0126C
:104F63003CD51235D7D0E01253B974081253D2602E
:104F73001112503BE50824131253AD1253B9E02428
:104F830008F0850882850983A3A3A3A3A3A3A3A3EE
:104F9300E06017850882850983A312507AE5082407
:104FA300151253AD124E3E2408F0850882850983FD
:104FB300A3A3A3A3A3E06019850882850983A3AEF5
:104FC30082AF83125062850882850983124E3904A9
:104FD300F0AA08AB091214FBE9F50D705685088297
:104FE300850983A3A3A3A3A3A31250467014E0FAD5
:104FF3008A0EE50A250EF8E50B12529AE50CC39AC0
:10500300802112507AE8240EF8E912529A90034E46
:10501300E0F91222458E828F83E0F8E50CC39824D1
:10502300F2C399C0E0E5082417F582E5091235D7E4
:10503300D0E0F0A90D0259CAE50A2408F8E50B34BB
:1050430000F92212504A22E0850882850983A322AF
:10505300850A82850B83A3A31250B3E0F9EA22E009
:10506300F8E50A28F582E50B1252C1228A828B8366
:105073001259CF1214F522AE82AF83E0F8E50A2865
:10508300F8E50B3400F9221250C6A3A3A3E02212C1
:10509300442CE81250BFA3A3E022A3A3A3A3A3A37A
:1050A300A3A3A31250BF1250B3A3A3E0F9EAF822BB
:1050B300E0FA850A82850B83A3A3A322F0A3E91256
:1050C30050C622F0850A82850B83A3A3A3A322C023
:1050D30082C0837AC57B0379E21220DD7AC57B0324
:1050E3000247DFC082C0839003560247DCC082C000
:1050F3008374FE121069851882851983AA82AB8393
:10510300794B12511012560C74020247B51220DD6E
:1051130085188285198322C082C083794A1220DDD3
:105123000247DF74F6120A699003CDE0FE04F0EE45
:10513300F91214AD8B09EA450970EDEE60EAF90244
:10514300526674F0120A69EAFEEBFF8C088D098936
:105153000A741012128AE0F50B741112128AE0F528
:105163000C1215CDEA4B7013E50C7042A90AAC087A
:10517300AD09EEFAEFFB1215E5806EE50A6021EA50
:105183002402F582EB1236A4850A082508F8E434D4
:105193000013E813F070098A828B83A3A37401F0D0
:1051A300E50C6045E50B70068A828B83E4F074019D
:1051B300650C7035E50B9003D47004E4F0802AE0AD
:1051C30004F0900F16E0F89003D4E0C398401AE47B
:1051D300F0900359E06E7003A3E06F700CEEFAEFEA
:1051E300FB79011213511251EF0259CA7A017B0064
:1051F3009003B0E0F9121A8922C082C08374016A55
:105203007001EB70077A011252268012900F0D1273
:105213005235EA4B6005122F7F80031251EF02478C
:10522300DF7A207B009003B0E0F912198D2234005D
:10523300F583EAF0A3EBF022C082C083900F0F0244
:105243003DDFC082C083900F11023DDF125CDD227F
:10525300EE240CF582EF3400F5831247D6E8492299
:10526300120FEB7F02020D62A2F0E43385188285F0
:10527300198312528779521220E3221252877942FC
:105283001220E322F0AA82AB8322AA08AB0990037F
:10529300B0E0F9121963223400F9E508241DF58200
:1052A300E50912442CE8F0A3E9F022125A99A3A3CA
:1052B300E022A3F0EE24151252BE22F582EF340051
:1052C300F583E0221252CB223400F583E0F8A3E009
:1052D300F98882898322E0F81252DF22A3E0F98E53
:1052E300828F83A3A322F0EE241812442922F0EE26
:1052F30024161244292274F4120A69EAFEEBFF7A97
:10530300007B041251F31253881252A89003657460
:1053130009F01215078A088B09AC08AD09EE2413AE
:105323001235D412560C1254DC640170487A0F12F1
:10533300537B60418A828B837402125392FAA3E0F7
:10534300FB8A828B83A3E0FC8A828B83A3A3E0FB8B
:10535300EC850882850983A3A31252368882898348
:10536300125610124C041252B5FAA3E0FB794A12FA
:1053730020E312528D0236997B001219578A088B4B
:1053830009EA4509229003361247D6900F1122F0FD
:10539300EE241DF8EF12539C22124917E0221253F8
:1053A300A5223400F5837401F022F582E509124445
:1053B3002CE8F0A3E9221253BD221253C122F08537
:1053C3000882850983A3221253C1A3A3A3A3221294
:1053D30053CAA3A3E0221257E312155B22EE24174C
:1053E300F582EF1253A5121507EE241A124429EA87
:1053F300F0A3EBF02274F4120A6974F312106989B2
:1054030008EAFEEBFF7C0D7D007900851882851983
:1054130083AA82AB8312193FEE241D1235D4125C8A
:10542300CEA3E0F8741F58600A79011220B3790003
:105433000254D3E8A2E55008740C12128A7401F0E6
:10544300E8A2E75008740B12128A7401F0E8A2E68E
:10545300740A500812128A7401F0800812128AE04A
:1054630064017005EE24138003EE2415125B0B74A4
:105473000212128AAA82AB831220CB1235D11254A4
:10548300E11252A8740A12128AE064017033122FD7
:10549300B2703B1215138A0A8B0BA80AA90BEE24D0
:1054A3000B1236A1687003A3E0697022121507EA94
:1054B300FCEBFD740212128AAA82AB831254DC60E5
:1054C3000D851882851983AA82AB8312134BA90811
:1054D300740D023696EEFAEFFB1220C5E922E012B4
:1054E30054E622F8A3E0F98518828519832274F61D
:1054F300120A6974F31210698A088B09ECFEEDFF36
:105503007C0D7D007900851882851983AA82AB837F
:10551300125E73A3A3A3A3A3A3A3A3A312557B12F6
:105523005584F8A2E55008740B12128A7401F0E84E
:10553300A2E75008740A12128A7401F0E8A2E6EE98
:105543005004241380022415125B0B740212128A76
:1055530012556DA3A3E0C0E0740C12128AD0E012BE
:1055630057DB121345740D025263AA82AB831220D8
:10557300CB85088285098322E01254E6E8F0A3E98B
:1055830022F0124426125CD2A3E02274F7120A69B5
:1055930074E1121069EAFEEBFF8E828F83125610BC
:1055A300A3A3A3E0A2E050518E828F831231128A0B
:1055B300828B83A3A3A3A3A3A3E054FE1256288A3A
:1055C300828B83125621E0F98A828B83E0241CFAB2
:1055D300A3E012404212560C121501E9701B741D10
:1055E30012128A12561B7011851882851983AC8298
:1055F300AD83EEFAEFFB12154902584D8E828F836D
:10560300A3A3A3A3A3A3A3A3A312368F2212561467
:1056130022125CD6A3A3A32212445E640422E024D4
:105623001B124910221247BEAC82AD8322E9F879DE
:1056330000740468600A740A686005740368700182
:1056430009020F9D74F6120A698A828B837420F013
:10565300A3A37401F01212F78A088B09AE08AF09ED
:10566300EE4F60108E828F837401F09003A3E0707D
:10567300031253E0EEFAEFFB025266C082C083903E
:1056830003B97401F0E9A2E350037403F0E9A2E162
:105693005004E0D2E2F00247DF74F6120A6979009F
:1056A3007C008A088B097808120D1CF8FF07CF5677
:1056B300CD56CD56CD56CD56C656CA56CF56C356E1
:1056C3000C80097C0480050C80F67C089003B9E00B
:1056D3005C6003098003EC60010902526674F612F0
:1056E3000A698A828B83E07012A312525D600C8A6E
:1056F300828B8312560B12223380047A007B0002C2
:10570300526674F5120A6974F31210698A088B09D8
:10571300ECFEEDFF750A12EA4509700579000257A0
:10572300D4900356E065087004A3E0650970141271
:105733001507EAFCEBFD1254D87005750A018003C6
:10574300750A00851882851983E4F00412128AE52C
:1057530008F0A3E5091257DB1212BBE960277403B3
:1057630012128AAA82AB8312129DE9640170167524
:105773000A01740312128AAC82AD831254D86021D9
:10578300750A00801C7412650A70169003A2E06407
:1057930002700EEEFCEFFDAA08AB091212D3E970FA
:1057A300DFEEFCEFFDAA08AB091215D3E9F8740A82
:1057B300687005750A01801774A0687012EEFCEF1B
:1057C300FDAA08AB091215DFAA08AB091215F1A946
:1057D3000A740D0261DB74021257DF221257E322AF
:1057E3001247BEAA82AB832274F7120A69EAFEEB60
:1057F300FF8E828F83A3A3A3A3A3A3A3A3E0601518
:10580300EE24151235D412367F121573E964017034
:1058130004790180258E828F83A3A3A3A3A3A3A3CB
:10582300E06015EE24131235D412583FFAA3E0FBBF
:10583300121573E9640160D97900801312412EA314
:10584300A3A3A3A3A3A3A3A3E022741F120FEB7F1D
:1058530001020D6274F0120A6974FD1210698A085C
:105863008B09ECFEEDFF890B741312128AE0F50C21
:10587300750A01740112128A7404125D066048E508
:105883000C601DEA2417F582EB125F49125CF48A5F
:10589300828B83E0D2E7F0EA2414F582EB1246E32D
:1058A3001259DAEB1252C7740312626CEE888289C2
:1058B30083A3A3F0EF88828983A3A31241D8124163
:1058C300DF1212F1E9F50AA90A74030259C774EC4D
:1058D300120A6974F51210698A0A8B0B890C8C0EF3
:1058E3008D0F741F12128AE0F50D742012128AE0D4
:1058F300F510A3E0F5117E01EE12128A740AF0E9A5
:105903007007E50DC333240AF0125AAC7003025931
:10591300AE125AC17409F0A3E50CC43354E0450D2B
:10592300125AD3E50C702D7C008023ECC333F8E4CA
:1059330033F9E51028F8E51139F98882898312597A
:10594300BB888289831238F1F0A30EAF830CECC3BA
:10595300950D40D7E5082417F582E5091253A112E6
:105963001507E508241AF582E5091252317403126A
:10597300128AAC82AD83AA0AAB0B1212A3E9601997
:10598300E5082416F582E5091259B512128AA88290
:10599300A983E50824181252A18508828509831278
:1059A3006268AA08AB091212F1E9FEEEF9740B0260
:1059B3005AA41253A5740322E08E828F83F0A3AE00
:1059C30082AF8322120FEB7F08020D62124486F925
:1059D300EA2400E439FB22EA240BF5822274EE1256
:1059E3000A698A0C8B0D890E8C088D0974121212A8
:1059F3008AE0F50F741312128A125A8D9005591208
:105A0300525D6077E50FC333F8E433F9E8240EFA07
:105A1300E93400FB1219578A108B11AE10AF11EE47
:105A23004F60588E828F8374D4F0A3A3E50CF0A348
:105A3300E50D125A95E50EF0AC08AD09EE2405FA12
:105A4300EF125D0FEE240D1235D4E50FF0850A0831
:105A5300850B09750A007808120FB9E50FC333FCEB
:105A6300E433FDEE240EFAEF125A84120FEBEEFA32
:105A7300EFFB900559125CCE1222F8024B0EFAE5A9
:105A8300093400FB121933740322E0F50AA3E0F58D
:105A93000B22125A9922125A9D221246F7A3A3A34C
:105AA30022120FEB7F0C020D62851882851983AADF
:105AB30082AB8312155B8A088B09EA450922EA2423
:105AC3000BF582EB1252C1FEA3E0FF8E828F83227D
:105AD300F0A3AE82AF83AC0EAD0FEEFAEFFB125A1A
:105AE300E5221220CB125AEC22EE2408FEEF3400FA
:105AF300FF22E0FA8E828F83A3A3E022FEA3E03489
:105B030000FF8E828F83E022124429125B1222E06F
:105B1300FCA3E0FD2212368F1214EF2274F6120A50
:105B230069EAFEEBFF9003BA801388828983E06EF3
